{
  "_format": "hh-sol-artifact-1",
  "contractName": "BH_FungibleBlockhouse",
  "sourceName": "contracts/BH_FungibleBlockhouse.sol",
  "abi": [
    {
      "anonymous": false,
      "inputs": [
        {
          "indexed": true,
          "internalType": "address",
          "name": "owner",
          "type": "address"
        },
        {
          "indexed": true,
          "internalType": "address",
          "name": "spender",
          "type": "address"
        },
        {
          "indexed": false,
          "internalType": "uint256",
          "name": "value",
          "type": "uint256"
        }
      ],
      "name": "Approval",
      "type": "event"
    },
    {
      "anonymous": false,
      "inputs": [
        {
          "indexed": false,
          "internalType": "uint8",
          "name": "version",
          "type": "uint8"
        }
      ],
      "name": "Initialized",
      "type": "event"
    },
    {
      "anonymous": false,
      "inputs": [
        {
          "indexed": true,
          "internalType": "address",
          "name": "from",
          "type": "address"
        },
        {
          "indexed": true,
          "internalType": "address",
          "name": "to",
          "type": "address"
        },
        {
          "indexed": false,
          "internalType": "uint256",
          "name": "value",
          "type": "uint256"
        }
      ],
      "name": "Transfer",
      "type": "event"
    },
    {
      "inputs": [],
      "name": "Amount_in_contract",
      "outputs": [
        {
          "internalType": "uint256",
          "name": "",
          "type": "uint256"
        },
        {
          "internalType": "uint256",
          "name": "",
          "type": "uint256"
        }
      ],
      "stateMutability": "view",
      "type": "function"
    },
    {
      "inputs": [],
      "name": "BHMarketplace_contract_address",
      "outputs": [
        {
          "internalType": "address",
          "name": "",
          "type": "address"
        }
      ],
      "stateMutability": "view",
      "type": "function"
    },
    {
      "inputs": [
        {
          "internalType": "uint256",
          "name": "",
          "type": "uint256"
        }
      ],
      "name": "Borrowed_amount",
      "outputs": [
        {
          "internalType": "uint256",
          "name": "",
          "type": "uint256"
        }
      ],
      "stateMutability": "view",
      "type": "function"
    },
    {
      "inputs": [
        {
          "internalType": "uint256",
          "name": "",
          "type": "uint256"
        }
      ],
      "name": "HouseT_Owner",
      "outputs": [
        {
          "internalType": "address",
          "name": "",
          "type": "address"
        }
      ],
      "stateMutability": "view",
      "type": "function"
    },
    {
      "inputs": [
        {
          "internalType": "uint256",
          "name": "",
          "type": "uint256"
        }
      ],
      "name": "HouseT_Remaining_payments",
      "outputs": [
        {
          "internalType": "uint256",
          "name": "",
          "type": "uint256"
        }
      ],
      "stateMutability": "view",
      "type": "function"
    },
    {
      "inputs": [
        {
          "internalType": "uint256",
          "name": "",
          "type": "uint256"
        }
      ],
      "name": "HouseT_Values",
      "outputs": [
        {
          "internalType": "uint256",
          "name": "",
          "type": "uint256"
        }
      ],
      "stateMutability": "view",
      "type": "function"
    },
    {
      "inputs": [
        {
          "internalType": "uint256",
          "name": "",
          "type": "uint256"
        }
      ],
      "name": "HouseT_blocked_income",
      "outputs": [
        {
          "internalType": "uint256",
          "name": "",
          "type": "uint256"
        }
      ],
      "stateMutability": "view",
      "type": "function"
    },
    {
      "inputs": [],
      "name": "HouseT_contract_address",
      "outputs": [
        {
          "internalType": "address",
          "name": "",
          "type": "address"
        }
      ],
      "stateMutability": "view",
      "type": "function"
    },
    {
      "inputs": [
        {
          "internalType": "address",
          "name": "",
          "type": "address"
        }
      ],
      "name": "Staked_HouseTs",
      "outputs": [
        {
          "internalType": "uint256",
          "name": "",
          "type": "uint256"
        }
      ],
      "stateMutability": "view",
      "type": "function"
    },
    {
      "inputs": [
        {
          "internalType": "uint256",
          "name": "",
          "type": "uint256"
        }
      ],
      "name": "Timestamp_borrowed",
      "outputs": [
        {
          "internalType": "uint256",
          "name": "",
          "type": "uint256"
        }
      ],
      "stateMutability": "view",
      "type": "function"
    },
    {
      "inputs": [],
      "name": "USDC_contract_address",
      "outputs": [
        {
          "internalType": "address",
          "name": "",
          "type": "address"
        }
      ],
      "stateMutability": "view",
      "type": "function"
    },
    {
      "inputs": [
        {
          "internalType": "uint256",
          "name": "House_tokenID",
          "type": "uint256"
        },
        {
          "internalType": "uint256",
          "name": "USD_amount",
          "type": "uint256"
        }
      ],
      "name": "add_HouseT_blocked_income",
      "outputs": [],
      "stateMutability": "nonpayable",
      "type": "function"
    },
    {
      "inputs": [
        {
          "internalType": "address",
          "name": "owner",
          "type": "address"
        },
        {
          "internalType": "address",
          "name": "spender",
          "type": "address"
        }
      ],
      "name": "allowance",
      "outputs": [
        {
          "internalType": "uint256",
          "name": "",
          "type": "uint256"
        }
      ],
      "stateMutability": "view",
      "type": "function"
    },
    {
      "inputs": [
        {
          "internalType": "address",
          "name": "spender",
          "type": "address"
        },
        {
          "internalType": "uint256",
          "name": "amount",
          "type": "uint256"
        }
      ],
      "name": "approve",
      "outputs": [
        {
          "internalType": "bool",
          "name": "",
          "type": "bool"
        }
      ],
      "stateMutability": "nonpayable",
      "type": "function"
    },
    {
      "inputs": [
        {
          "internalType": "address",
          "name": "account",
          "type": "address"
        }
      ],
      "name": "balanceOf",
      "outputs": [
        {
          "internalType": "uint256",
          "name": "",
          "type": "uint256"
        }
      ],
      "stateMutability": "view",
      "type": "function"
    },
    {
      "inputs": [
        {
          "internalType": "uint256",
          "name": "amount",
          "type": "uint256"
        }
      ],
      "name": "burn",
      "outputs": [],
      "stateMutability": "nonpayable",
      "type": "function"
    },
    {
      "inputs": [
        {
          "internalType": "address",
          "name": "account",
          "type": "address"
        },
        {
          "internalType": "uint256",
          "name": "amount",
          "type": "uint256"
        }
      ],
      "name": "burnFrom",
      "outputs": [],
      "stateMutability": "nonpayable",
      "type": "function"
    },
    {
      "inputs": [],
      "name": "collateral_ratio",
      "outputs": [
        {
          "internalType": "uint256",
          "name": "",
          "type": "uint256"
        }
      ],
      "stateMutability": "view",
      "type": "function"
    },
    {
      "inputs": [],
      "name": "decimals",
      "outputs": [
        {
          "internalType": "uint8",
          "name": "",
          "type": "uint8"
        }
      ],
      "stateMutability": "view",
      "type": "function"
    },
    {
      "inputs": [
        {
          "internalType": "address",
          "name": "spender",
          "type": "address"
        },
        {
          "internalType": "uint256",
          "name": "subtractedValue",
          "type": "uint256"
        }
      ],
      "name": "decreaseAllowance",
      "outputs": [
        {
          "internalType": "bool",
          "name": "",
          "type": "bool"
        }
      ],
      "stateMutability": "nonpayable",
      "type": "function"
    },
    {
      "inputs": [
        {
          "internalType": "uint256",
          "name": "amount",
          "type": "uint256"
        }
      ],
      "name": "exchange_FS_TO_USDC",
      "outputs": [],
      "stateMutability": "nonpayable",
      "type": "function"
    },
    {
      "inputs": [
        {
          "internalType": "uint256",
          "name": "amount",
          "type": "uint256"
        }
      ],
      "name": "exchange_USDC_TO_FS",
      "outputs": [],
      "stateMutability": "nonpayable",
      "type": "function"
    },
    {
      "inputs": [
        {
          "internalType": "uint256",
          "name": "k",
          "type": "uint256"
        },
        {
          "internalType": "uint256",
          "name": "q",
          "type": "uint256"
        },
        {
          "internalType": "uint256",
          "name": "n",
          "type": "uint256"
        },
        {
          "internalType": "uint256",
          "name": "p",
          "type": "uint256"
        }
      ],
      "name": "fracExp",
      "outputs": [
        {
          "internalType": "uint256",
          "name": "",
          "type": "uint256"
        }
      ],
      "stateMutability": "pure",
      "type": "function"
    },
    {
      "inputs": [
        {
          "internalType": "uint256",
          "name": "House_tokenID",
          "type": "uint256"
        }
      ],
      "name": "get_FSamount_due",
      "outputs": [
        {
          "internalType": "uint256",
          "name": "",
          "type": "uint256"
        }
      ],
      "stateMutability": "view",
      "type": "function"
    },
    {
      "inputs": [
        {
          "internalType": "uint256",
          "name": "House_tokenID",
          "type": "uint256"
        }
      ],
      "name": "get_collateral_value",
      "outputs": [
        {
          "internalType": "uint256",
          "name": "",
          "type": "uint256"
        }
      ],
      "stateMutability": "view",
      "type": "function"
    },
    {
      "inputs": [
        {
          "internalType": "address",
          "name": "_address",
          "type": "address"
        }
      ],
      "name": "get_list_of_HouseT_staked",
      "outputs": [
        {
          "internalType": "uint256[]",
          "name": "",
          "type": "uint256[]"
        },
        {
          "internalType": "uint256[]",
          "name": "",
          "type": "uint256[]"
        }
      ],
      "stateMutability": "view",
      "type": "function"
    },
    {
      "inputs": [],
      "name": "get_list_of_HouseT_staker",
      "outputs": [
        {
          "internalType": "address[]",
          "name": "",
          "type": "address[]"
        },
        {
          "internalType": "uint256[]",
          "name": "",
          "type": "uint256[]"
        }
      ],
      "stateMutability": "view",
      "type": "function"
    },
    {
      "inputs": [
        {
          "internalType": "address",
          "name": "spender",
          "type": "address"
        },
        {
          "internalType": "uint256",
          "name": "addedValue",
          "type": "uint256"
        }
      ],
      "name": "increaseAllowance",
      "outputs": [
        {
          "internalType": "bool",
          "name": "",
          "type": "bool"
        }
      ],
      "stateMutability": "nonpayable",
      "type": "function"
    },
    {
      "inputs": [
        {
          "internalType": "address",
          "name": "_HouseT_contract_address",
          "type": "address"
        },
        {
          "internalType": "address",
          "name": "_owner",
          "type": "address"
        },
        {
          "internalType": "address",
          "name": "_USDC_contract_address",
          "type": "address"
        },
        {
          "internalType": "address",
          "name": "forwarder_",
          "type": "address"
        }
      ],
      "name": "initialize",
      "outputs": [],
      "stateMutability": "nonpayable",
      "type": "function"
    },
    {
      "inputs": [],
      "name": "interrest_rate",
      "outputs": [
        {
          "internalType": "uint256",
          "name": "",
          "type": "uint256"
        }
      ],
      "stateMutability": "view",
      "type": "function"
    },
    {
      "inputs": [
        {
          "internalType": "address",
          "name": "forwarder",
          "type": "address"
        }
      ],
      "name": "isTrustedForwarder",
      "outputs": [
        {
          "internalType": "bool",
          "name": "",
          "type": "bool"
        }
      ],
      "stateMutability": "view",
      "type": "function"
    },
    {
      "inputs": [
        {
          "internalType": "uint256",
          "name": "House_tokenID",
          "type": "uint256"
        }
      ],
      "name": "is_staked",
      "outputs": [
        {
          "internalType": "bool",
          "name": "",
          "type": "bool"
        }
      ],
      "stateMutability": "view",
      "type": "function"
    },
    {
      "inputs": [],
      "name": "name",
      "outputs": [
        {
          "internalType": "string",
          "name": "",
          "type": "string"
        }
      ],
      "stateMutability": "view",
      "type": "function"
    },
    {
      "inputs": [
        {
          "internalType": "uint256",
          "name": "House_tokenID",
          "type": "uint256"
        }
      ],
      "name": "stake_HouseT",
      "outputs": [],
      "stateMutability": "nonpayable",
      "type": "function"
    },
    {
      "inputs": [
        {
          "internalType": "uint256[]",
          "name": "House_tokenIDs",
          "type": "uint256[]"
        }
      ],
      "name": "stake_HouseT_batch",
      "outputs": [],
      "stateMutability": "nonpayable",
      "type": "function"
    },
    {
      "inputs": [],
      "name": "symbol",
      "outputs": [
        {
          "internalType": "string",
          "name": "",
          "type": "string"
        }
      ],
      "stateMutability": "view",
      "type": "function"
    },
    {
      "inputs": [],
      "name": "totalSupply",
      "outputs": [
        {
          "internalType": "uint256",
          "name": "",
          "type": "uint256"
        }
      ],
      "stateMutability": "view",
      "type": "function"
    },
    {
      "inputs": [
        {
          "internalType": "address",
          "name": "to",
          "type": "address"
        },
        {
          "internalType": "uint256",
          "name": "amount",
          "type": "uint256"
        }
      ],
      "name": "transfer",
      "outputs": [
        {
          "internalType": "bool",
          "name": "",
          "type": "bool"
        }
      ],
      "stateMutability": "nonpayable",
      "type": "function"
    },
    {
      "inputs": [
        {
          "internalType": "address",
          "name": "from",
          "type": "address"
        },
        {
          "internalType": "address",
          "name": "to",
          "type": "address"
        },
        {
          "internalType": "uint256",
          "name": "amount",
          "type": "uint256"
        }
      ],
      "name": "transferFrom",
      "outputs": [
        {
          "internalType": "bool",
          "name": "",
          "type": "bool"
        }
      ],
      "stateMutability": "nonpayable",
      "type": "function"
    },
    {
      "inputs": [],
      "name": "trustedForwarder",
      "outputs": [
        {
          "internalType": "address",
          "name": "",
          "type": "address"
        }
      ],
      "stateMutability": "view",
      "type": "function"
    },
    {
      "inputs": [
        {
          "internalType": "uint256",
          "name": "House_tokenID",
          "type": "uint256"
        }
      ],
      "name": "unstake_HouseT",
      "outputs": [],
      "stateMutability": "nonpayable",
      "type": "function"
    },
    {
      "inputs": [
        {
          "internalType": "uint256[]",
          "name": "House_tokenIDs",
          "type": "uint256[]"
        }
      ],
      "name": "unstake_HouseT_batch",
      "outputs": [],
      "stateMutability": "nonpayable",
      "type": "function"
    },
    {
      "inputs": [
        {
          "internalType": "uint256",
          "name": "House_tokenID",
          "type": "uint256"
        },
        {
          "internalType": "uint256",
          "name": "USD_amount",
          "type": "uint256"
        }
      ],
      "name": "update_HouseT_blocked_income",
      "outputs": [],
      "stateMutability": "nonpayable",
      "type": "function"
    },
    {
      "inputs": [
        {
          "internalType": "uint256",
          "name": "House_tokenID",
          "type": "uint256"
        },
        {
          "internalType": "uint256",
          "name": "remaining_payments",
          "type": "uint256"
        }
      ],
      "name": "update_HouseT_remaining_payments",
      "outputs": [],
      "stateMutability": "nonpayable",
      "type": "function"
    },
    {
      "inputs": [
        {
          "internalType": "uint256[]",
          "name": "House_tokenIDs",
          "type": "uint256[]"
        },
        {
          "internalType": "uint256[]",
          "name": "remaining_payments",
          "type": "uint256[]"
        }
      ],
      "name": "update_HouseT_remaining_payments_batch",
      "outputs": [],
      "stateMutability": "nonpayable",
      "type": "function"
    },
    {
      "inputs": [
        {
          "internalType": "uint256",
          "name": "House_tokenID",
          "type": "uint256"
        },
        {
          "internalType": "uint256",
          "name": "USD_value",
          "type": "uint256"
        }
      ],
      "name": "update_HouseT_value",
      "outputs": [],
      "stateMutability": "nonpayable",
      "type": "function"
    },
    {
      "inputs": [
        {
          "internalType": "uint256[]",
          "name": "House_tokenIDs",
          "type": "uint256[]"
        },
        {
          "internalType": "uint256[]",
          "name": "USD_values",
          "type": "uint256[]"
        }
      ],
      "name": "update_HouseT_value_batch",
      "outputs": [],
      "stateMutability": "nonpayable",
      "type": "function"
    },
    {
      "inputs": [
        {
          "internalType": "address",
          "name": "_BHMarketplace_contract_address",
          "type": "address"
        }
      ],
      "name": "update_addresses",
      "outputs": [],
      "stateMutability": "nonpayable",
      "type": "function"
    },
    {
      "inputs": [
        {
          "internalType": "uint256",
          "name": "_ratio",
          "type": "uint256"
        }
      ],
      "name": "update_collateral_ratio",
      "outputs": [],
      "stateMutability": "nonpayable",
      "type": "function"
    },
    {
      "inputs": [
        {
          "internalType": "uint256",
          "name": "_rate",
          "type": "uint256"
        }
      ],
      "name": "update_interrest_rate",
      "outputs": [],
      "stateMutability": "nonpayable",
      "type": "function"
    },
    {
      "inputs": [
        {
          "internalType": "address",
          "name": "forwarder_",
          "type": "address"
        }
      ],
      "name": "update_trusted_forwarder",
      "outputs": [],
      "stateMutability": "nonpayable",
      "type": "function"
    },
    {
      "inputs": [],
      "name": "versionRecipient",
      "outputs": [
        {
          "internalType": "string",
          "name": "",
          "type": "string"
        }
      ],
      "stateMutability": "view",
      "type": "function"
    },
    {
      "inputs": [],
      "name": "void",
      "outputs": [],
      "stateMutability": "nonpayable",
      "type": "function"
    }
  ],
  "bytecode": "0x608060405234801561001057600080fd5b5061364e806100206000396000f3fe608060405234801561001057600080fd5b50600436106102675760003560e01c8063069a2ad81461026c57806306fdde031461029f57806308b41c01146102b4578063095ea7b3146102d757806318160ddd146102ea5780631ba03403146102f257806321a20dca1461031257806323b872dd146103325780632611e1a614610345578063294275b514610365578063313ce5671461037a57806333336dad1461038957806334bd55921461039c57806335a16fc9146103af578063383fc6bb146103cf57806339509351146103ef57806341da499e1461040257806342966c6814610415578063486ff0cd146104285780634b32f1bf146104305780634c5cb348146104435780635048d7a5146104565780635232835b1461047f578063572b6c05146104925780635d52f40d146104a55780636a5dda7f146104c657806370a08231146104d957806379a2c2d71461050257806379cc67901461050b5780637da0a8771461051e5780637ff2767b1461052f57806388fc9995146105425780638f867a14146105625780639022f7311461057557806395d89b411461058857806395f8b4ba14610590578063a3b3e851146105a3578063a457c2d7146105b6578063a6130563146105c9578063a9059cbb146105dc578063ab69b596146105ef578063ac152a9d14610602578063ac4c25b214610378578063b326d65c1461060b578063cd4e7db914610628578063d13bcede1461063b578063d6db85af1461064e578063dd62ed3e14610661578063e2d5ffc914610674578063ee8d0cdc14610687578063f048c54e1461069a578063f8c8765e146106ad578063fa03713e146106c0575b600080fd5b61028c61027a36600461311c565b60a56020526000908152604090205481565b6040519081526020015b60405180910390f35b6102a76106d6565b60405161029691906132b7565b6102c76102c236600461311c565b610768565b6040519015158152602001610296565b6102c76102e5366004612fa5565b610785565b60355461028c565b61028c61030036600461311c565b60a36020526000908152604090205481565b609954610325906001600160a01b031681565b60405161029691906131d8565b6102c7610340366004612f65565b6107a9565b61028c610353366004612e9a565b60a16020526000908152604090205481565b61037861037336600461311c565b6107d7565b005b60405160128152602001610296565b61028c61039736600461311c565b610869565b6103786103aa36600461309c565b610908565b61028c6103bd36600461311c565b60a46020526000908152604090205481565b61028c6103dd36600461311c565b60a66020526000908152604090205481565b6102c76103fd366004612fa5565b610a2f565b61037861041036600461314c565b610a5b565b61037861042336600461311c565b610b88565b6102a7610b9c565b61037861043e36600461311c565b610c2a565b61037861045136600461311c565b6111db565b61032561046436600461311c565b60a2602052600090815260409020546001600160a01b031681565b609a54610325906001600160a01b031681565b6102c76104a0366004612e9a565b6114ba565b6104b86104b3366004612e9a565b6114ce565b604051610296929190613289565b61028c6104d436600461311c565b611640565b61028c6104e7366004612e9a565b6001600160a01b031660009081526033602052604090205490565b61028c60975481565b610378610519366004612fa5565b61166c565b6000546001600160a01b0316610325565b609b54610325906001600160a01b031681565b61028c61055036600461311c565b60a76020526000908152604090205481565b61037861057036600461314c565b61168c565b61037861058336600461314c565b61175c565b6102a7611817565b61037861059e36600461314c565b611826565b6103786105b1366004612fd0565b611906565b6102c76105c4366004612fa5565b61195b565b6103786105d7366004612fd0565b6119e1565b6102c76105ea366004612fa5565b611a31565b6103786105fd366004612e9a565b611a49565b61028c60985481565b610613611ad6565b60408051928352602083019190915201610296565b61037861063636600461311c565b611bf0565b61037861064936600461311c565b611c79565b61028c61065c36600461316d565b611fdd565b61028c61066f366004612ed2565b61206c565b61037861068236600461311c565b612097565b61037861069536600461309c565b612211565b6103786106a8366004612e9a565b612298565b6103786106bb366004612f0a565b612363565b6106c86125c1565b604051610296929190613229565b6060603680546106e590613561565b80601f016020809104026020016040519081016040528092919081815260200182805461071190613561565b801561075e5780601f106107335761010080835404028352916020019161075e565b820191906000526020600020905b81548152906001019060200180831161074157829003601f168201915b5050505050905090565b600090815260a260205260409020546001600160a01b0316151590565b6000806107906127b2565b905061079d8185856127c1565b60019150505b92915050565b6000806107b46127b2565b90506107c18582856128e5565b6107cc858585612959565b506001949350505050565b609f546001600160a01b03166107eb6127b2565b6001600160a01b0316148061081a5750609c546001600160a01b031661080f6127b2565b6001600160a01b0316145b8061083f5750609d546001600160a01b03166108346127b2565b6001600160a01b0316145b6108645760405162461bcd60e51b815260040161085b9061330a565b60405180910390fd5b609855565b60008061087583610768565b156107a357600083815260a76020526040812054610893904261354a565b905080156108ef576301e7d8e46064609854836108b091906134ec565b6108ba91906133e1565b6108c491906133e1565b6108cf9060016133c9565b600085815260a660205260409020546108e891906134ec565b9150610901565b600084815260a6602052604090205491505b5092915050565b609f546001600160a01b031661091c6127b2565b6001600160a01b0316148061094b5750609c546001600160a01b03166109406127b2565b6001600160a01b0316145b806109705750609d546001600160a01b03166109656127b2565b6001600160a01b0316145b806109955750609e546001600160a01b031661098a6127b2565b6001600160a01b0316145b6109b15760405162461bcd60e51b815260040161085b9061330a565b81516000905b80821015610a2957610a178483815181106109e257634e487b7160e01b600052603260045260246000fd5b6020026020010151848481518110610a0a57634e487b7160e01b600052603260045260246000fd5b6020026020010151610a5b565b81610a218161359c565b9250506109b7565b50505050565b600080610a3a6127b2565b905061079d818585610a4c858961206c565b610a5691906133c9565b6127c1565b609f546001600160a01b0316610a6f6127b2565b6001600160a01b03161480610a9e5750609c546001600160a01b0316610a936127b2565b6001600160a01b0316145b80610ac35750609d546001600160a01b0316610ab86127b2565b6001600160a01b0316145b80610ae85750609e546001600160a01b0316610add6127b2565b6001600160a01b0316145b80610b0d5750609a546001600160a01b0316610b026127b2565b6001600160a01b0316145b610b295760405162461bcd60e51b815260040161085b9061330a565b633b9aca00811080610b755760405162461bcd60e51b81526020600482015260156024820152741554d117dd985b1d594818589bdd99481b1a5b5a5d605a1b604482015260640161085b565b50600091825260a3602052604090912055565b610b99610b936127b2565b82612af2565b50565b60a88054610ba990613561565b80601f0160208091040260200160405190810160405280929190818152602001828054610bd590613561565b8015610c225780601f10610bf757610100808354040283529160200191610c22565b820191906000526020600020905b815481529060010190602001808311610c0557829003601f168201915b505050505081565b610c326127b2565b600082815260a260205260409020546001600160a01b03908116911614610cc3576040805162461bcd60e51b81526020600482015260248101919091527f596f7520616c72656164792077697468647261776e2c206f7220617265206e6f60448201527f7420746865206f776e6572206f66207468697320486f7573655420746f6b656e606482015260840161085b565b609a546040516331a9108f60e11b81526004810183905230916001600160a01b031690636352211e9060240160206040518083038186803b158015610d0757600080fd5b505afa158015610d1b573d6000803e3d6000fd5b505050506040513d601f19601f82011682018060405250810190610d3f9190612eb6565b6001600160a01b031614610dc95760405162461bcd60e51b8152602060048201526044602482018190527f5468697320486f7573655420746f6b656e206973206e6f7420696e2074686520908201527f636f6e74726163742c20692e652e2077617320616c72656164792077697468646064820152633930bbb760e11b608482015260a40161085b565b6000610dd66104e76127b2565b90506000610de383610869565b905080821015610e355760405162461bcd60e51b815260206004820152601f60248201527f4e6f7420656e6f75676820465320746f20756e7374616b6520486f7573655400604482015260640161085b565b610e40610b936127b2565b609a546001600160a01b03166323b872dd30610e5a6127b2565b866040518463ffffffff1660e01b8152600401610e79939291906131ec565b600060405180830381600087803b158015610e9357600080fd5b505af1158015610ea7573d6000803e3d6000fd5b505050600084815260a560205260408082205460995491516370a0823160e01b81529093506001600160a01b03909116906370a0823190610eec9030906004016131d8565b60206040518083038186803b158015610f0457600080fd5b505afa158015610f18573d6000803e3d6000fd5b505050506040513d601f19601f82011682018060405250810190610f3c9190613134565b9050818110156110cc57610f50818361350b565b609a5460405163523b8c5960e11b81526001600160a01b039091169063a47718b290610f809030906004016131d8565b60206040518083038186803b158015610f9857600080fd5b505afa158015610fac573d6000803e3d6000fd5b505050506040513d601f19601f82011682018060405250810190610fd09190613134565b1261104257609a60009054906101000a90046001600160a01b03166001600160a01b0316632c9f7f926040518163ffffffff1660e01b8152600401600060405180830381600087803b15801561102557600080fd5b505af1158015611039573d6000803e3d6000fd5b505050506110cc565b60405162461bcd60e51b815260206004820152605360248201527f5468657265206973206e6f7420656e6f7567682055534420696e20746865207360448201527f74616b696e6720616e6420486f7573655420636f6e74726163742c20706c656160648201527239b29031b7b73a30b1ba1021241039ba30b33360691b608482015260a40161085b565b811561115d576099546001600160a01b031663a9059cbb6110eb6127b2565b846040518363ffffffff1660e01b8152600401611109929190613210565b602060405180830381600087803b15801561112357600080fd5b505af1158015611137573d6000803e3d6000fd5b505050506040513d601f19601f8201168201806040525081019061115b91906130fc565b505b600085815260a260209081526040808320546001600160a01b0316835260a1909152812080546001929061119290849061354a565b9091555050506000938452505060a26020908152604080842080546001600160a01b031916905560a6825280842084905560a7825280842084905560a590915282209190915550565b806111e76104e76127b2565b10156112415760405162461bcd60e51b815260206004820152602360248201527f596f7520646f6e2774206f776e20656e6f75676820465320746f2065786368616044820152626e676560e81b606482015260840161085b565b6099546040516370a0823160e01b81526000916001600160a01b0316906370a08231906112729030906004016131d8565b60206040518083038186803b15801561128a57600080fd5b505afa15801561129e573d6000803e3d6000fd5b505050506040513d601f19601f820116820180604052508101906112c29190613134565b90506000609b60009054906101000a90046001600160a01b03166001600160a01b031663d5ad9a036040518163ffffffff1660e01b815260040160206040518083038186803b15801561131457600080fd5b505afa158015611328573d6000803e3d6000fd5b505050506040513d601f19601f8201168201806040525081019061134c9190613134565b9050600061135a82846133c9565b9050838110156113a45760405162461bcd60e51b81526020600482015260156024820152744e6f7420656e6f75676820555344432066756e647360581b604482015260640161085b565b838310156114195760006113b8848661354a565b609b54604051631903edf960e31b8152600481018390529192506001600160a01b03169063c81f6fc890602401600060405180830381600087803b1580156113ff57600080fd5b505af1158015611413573d6000803e3d6000fd5b50505050505b61142a6114246127b2565b85612af2565b6099546001600160a01b031663a9059cbb6114436127b2565b866040518363ffffffff1660e01b8152600401611461929190613210565b602060405180830381600087803b15801561147b57600080fd5b505af115801561148f573d6000803e3d6000fd5b505050506040513d601f19601f820116820180604052508101906114b391906130fc565b5050505050565b6000546001600160a01b0391821691161490565b609a5460405163710ac84b60e01b815260609182916000916001600160a01b03169063710ac84b906115049087906004016131d8565b60006040518083038186803b15801561151c57600080fd5b505afa158015611530573d6000803e3d6000fd5b505050506040513d6000823e601f3d908101601f19168201604052611558919081019061300a565b805190915060009081816001600160401b0381111561158757634e487b7160e01b600052604160045260246000fd5b6040519080825280602002602001820160405280156115b0578160200160208202803683370190505b509050600092505b818310156116335760008484815181106115e257634e487b7160e01b600052603260045260246000fd5b602002602001015190506115f581610869565b82858151811061161557634e487b7160e01b600052603260045260246000fd5b6020908102919091010152508261162b8161359c565b9350506115b8565b9296929550919350505050565b600081815260a5602090815260408083205460a39092528220548291611665916133c9565b9392505050565b61167e826116786127b2565b836128e5565b6116888282612af2565b5050565b609f546001600160a01b03166116a06127b2565b6001600160a01b031614806116cf5750609a546001600160a01b03166116c46127b2565b6001600160a01b0316145b806116f45750609c546001600160a01b03166116e96127b2565b6001600160a01b0316145b806117195750609d546001600160a01b031661170e6127b2565b6001600160a01b0316145b6117355760405162461bcd60e51b815260040161085b9061330a565b600082815260a56020526040812080548392906117539084906133c9565b90915550505050565b609f546001600160a01b03166117706127b2565b6001600160a01b0316148061179f5750609a546001600160a01b03166117946127b2565b6001600160a01b0316145b806117c45750609c546001600160a01b03166117b96127b2565b6001600160a01b0316145b806117e95750609d546001600160a01b03166117de6127b2565b6001600160a01b0316145b6118055760405162461bcd60e51b815260040161085b9061330a565b600091825260a5602052604090912055565b6060603780546106e590613561565b609f546001600160a01b031661183a6127b2565b6001600160a01b031614806118695750609c546001600160a01b031661185e6127b2565b6001600160a01b0316145b8061188e5750609d546001600160a01b03166118836127b2565b6001600160a01b0316145b806118b35750609e546001600160a01b03166118a86127b2565b6001600160a01b0316145b806118d85750609a546001600160a01b03166118cd6127b2565b6001600160a01b0316145b6118f45760405162461bcd60e51b815260040161085b9061330a565b600091825260a4602052604090912055565b80516000905b808210156119565761194483838151811061193757634e487b7160e01b600052603260045260246000fd5b6020026020010151611c79565b8161194e8161359c565b92505061190c565b505050565b6000806119666127b2565b90506000611974828661206c565b9050838110156119d45760405162461bcd60e51b815260206004820152602560248201527f45524332303a2064656372656173656420616c6c6f77616e63652062656c6f77604482015264207a65726f60d81b606482015260840161085b565b6107cc82868684036127c1565b80516000905b8082101561195657611a1f838381518110611a1257634e487b7160e01b600052603260045260246000fd5b6020026020010151610c2a565b81611a298161359c565b9250506119e7565b600080611a3c6127b2565b905061079d818585612959565b609f546001600160a01b0316611a5d6127b2565b6001600160a01b03161480611a8c5750609c546001600160a01b0316611a816127b2565b6001600160a01b0316145b80611ab15750609d546001600160a01b0316611aa66127b2565b6001600160a01b0316145b611acd5760405162461bcd60e51b815260040161085b9061330a565b610b9981612c14565b6099546040516370a0823160e01b8152600091829182916001600160a01b0316906370a0823190611b0b9030906004016131d8565b60206040518083038186803b158015611b2357600080fd5b505afa158015611b37573d6000803e3d6000fd5b505050506040513d601f19601f82011682018060405250810190611b5b9190613134565b90506000609b60009054906101000a90046001600160a01b03166001600160a01b031663d5ad9a036040518163ffffffff1660e01b815260040160206040518083038186803b158015611bad57600080fd5b505afa158015611bc1573d6000803e3d6000fd5b505050506040513d601f19601f82011682018060405250810190611be59190613134565b919491935090915050565b609f546001600160a01b0316611c046127b2565b6001600160a01b03161480611c335750609c546001600160a01b0316611c286127b2565b6001600160a01b0316145b80611c585750609d546001600160a01b0316611c4d6127b2565b6001600160a01b0316145b611c745760405162461bcd60e51b815260040161085b9061330a565b609755565b611c816127b2565b609a546040516331a9108f60e11b8152600481018490526001600160a01b039283169290911690636352211e9060240160206040518083038186803b158015611cc957600080fd5b505afa158015611cdd573d6000803e3d6000fd5b505050506040513d601f19601f82011682018060405250810190611d019190612eb6565b6001600160a01b031614611d525760405162461bcd60e51b8152602060048201526018602482015277165bdd48191bdb9d081bdddb881d1a1a5cc8121bdd5cd95560421b604482015260640161085b565b609a60009054906101000a90046001600160a01b03166001600160a01b031663ee0959d86040518163ffffffff1660e01b815260040160206040518083038186803b158015611da057600080fd5b505afa158015611db4573d6000803e3d6000fd5b505050506040513d601f19601f82011682018060405250810190611dd891906130fc565b151560011415611ecf57609a546001600160a01b031663a9f7841c611dfb6127b2565b6040518263ffffffff1660e01b8152600401611e1791906131d8565b60206040518083038186803b158015611e2f57600080fd5b505afa158015611e43573d6000803e3d6000fd5b505050506040513d601f19601f82011682018060405250810190611e6791906130fc565b611ecf5760405162461bcd60e51b815260206004820152603360248201527f4f6e6c792077686974656c6973746564206164647265737365732063616e2075604482015272736520746865206c6f616e207365727669636560681b606482015260840161085b565b609a546001600160a01b03166323b872dd611ee86127b2565b30846040518463ffffffff1660e01b8152600401611f08939291906131ec565b600060405180830381600087803b158015611f2257600080fd5b505af1158015611f36573d6000803e3d6000fd5b5050609754600084815260a3602052604081205490935060649250611f5b91906134ec565b611f6591906133e1565b9050611f78611f726127b2565b82612c36565b611f806127b2565b600083815260a26020908152604080832080546001600160a01b0319166001600160a01b0395861617815560a6835281842086905560a7835281842042905554909316825260a190529081208054600192906117539084906133c9565b600080600180825b8581101561205f57611ff78189613444565b82612002858c6134ec565b61200c91906133e1565b61201691906133e1565b61202090856133c9565b935061202c818861354a565b61203690846134ec565b92506120438160016133c9565b61204d90836134ec565b91506120588161359c565b9050611fe5565b5091979650505050505050565b6001600160a01b03918216600090815260346020908152604080832093909416825291909152205490565b60995481906001600160a01b03166370a082316120b26127b2565b6040518263ffffffff1660e01b81526004016120ce91906131d8565b60206040518083038186803b1580156120e657600080fd5b505afa1580156120fa573d6000803e3d6000fd5b505050506040513d601f19601f8201168201806040525081019061211e9190613134565b101561217a5760405162461bcd60e51b815260206004820152602560248201527f596f7520646f6e2774206f776e20656e6f756768205553444320746f2065786360448201526468616e676560d81b606482015260840161085b565b6099546001600160a01b03166323b872dd6121936127b2565b30846040518463ffffffff1660e01b81526004016121b3939291906131ec565b602060405180830381600087803b1580156121cd57600080fd5b505af11580156121e1573d6000803e3d6000fd5b505050506040513d601f19601f8201168201806040525081019061220591906130fc565b50610b99611f726127b2565b81516000905b80821015610a295782828151811061223f57634e487b7160e01b600052603260045260246000fd5b602002602001015160a4600086858151811061226b57634e487b7160e01b600052603260045260246000fd5b602002602001015181526020019081526020016000208190555081806122909061359c565b925050612217565b609f546001600160a01b03166122ac6127b2565b6001600160a01b031614806122db575060a0546001600160a01b03166122d06127b2565b6001600160a01b0316145b806123005750609c546001600160a01b03166122f56127b2565b6001600160a01b0316145b806123255750609d546001600160a01b031661231a6127b2565b6001600160a01b0316145b6123415760405162461bcd60e51b815260040161085b9061330a565b609b80546001600160a01b0319166001600160a01b0392909216919091179055565b600054600160a81b900460ff161580801561238b57506000546001600160a01b90910460ff16105b806123ac5750303b1580156123ac5750600054600160a01b900460ff166001145b61240f5760405162461bcd60e51b815260206004820152602e60248201527f496e697469616c697a61626c653a20636f6e747261637420697320616c72656160448201526d191e481a5b9a5d1a585b1a5e995960921b606482015260840161085b565b6000805460ff60a01b1916600160a01b179055801561243c576000805460ff60a81b1916600160a81b1790555b61247a60405180604001604052806002815260200161465360f01b81525060405180604001604052806002815260200161465360f01b815250612ce5565b61248382612c14565b609f80546001600160a01b0319166001600160a01b0386161790556124a66127b2565b60a080546001600160a01b03199081166001600160a01b0393841617909155609a805490911691871691909117905560556097556003609855604080518082019091526005808252640322e322e360dc1b602090920191825261250b9160a891612d92565b50609980546001600160a01b0385166001600160a01b031991821617909155609c8054821673e7e3e925e5dcfeaf5c5cebfbc6efd4b404b0e607908117909155609d8054831673c117e7247be4830d169da13427311f59bd25d669179055609e805490921617905580156114b3576000805460ff60a81b19169055604051600181527f7f26b83ff96e1f2b6a682f133852f6798a09c465da95921460cefb38474024989060200160405180910390a15050505050565b6060806000609a60009054906101000a90046001600160a01b03166001600160a01b031663c0976c586040518163ffffffff1660e01b815260040160206040518083038186803b15801561261457600080fd5b505afa158015612628573d6000803e3d6000fd5b505050506040513d601f19601f8201168201806040525081019061264c9190613134565b90506000816001600160401b0381111561267657634e487b7160e01b600052604160045260246000fd5b60405190808252806020026020018201604052801561269f578160200160208202803683370190505b5090506000826001600160401b038111156126ca57634e487b7160e01b600052604160045260246000fd5b6040519080825280602002602001820160405280156126f3578160200160208202803683370190505b50905060005b838110156127a757600081815260a2602052604090205483516001600160a01b0390911690819085908490811061274057634e487b7160e01b600052603260045260246000fd5b60200260200101906001600160a01b031690816001600160a01b03168152505061276982610869565b83838151811061278957634e487b7160e01b600052603260045260246000fd5b6020908102919091010152508061279f8161359c565b9150506126f9565b509094909350915050565b60006127bc612d18565b905090565b6001600160a01b0383166128235760405162461bcd60e51b8152602060048201526024808201527f45524332303a20617070726f76652066726f6d20746865207a65726f206164646044820152637265737360e01b606482015260840161085b565b6001600160a01b0382166128845760405162461bcd60e51b815260206004820152602260248201527f45524332303a20617070726f766520746f20746865207a65726f206164647265604482015261737360f01b606482015260840161085b565b6001600160a01b0383811660008181526034602090815260408083209487168084529482529182902085905590518481527f8c5be1e5ebec7d5bd14f71427d1e84f3dd0314c0f7b2291e5b200ac8c7c3b925910160405180910390a3505050565b60006128f1848461206c565b90506000198114610a29578181101561294c5760405162461bcd60e51b815260206004820152601d60248201527f45524332303a20696e73756666696369656e7420616c6c6f77616e6365000000604482015260640161085b565b610a2984848484036127c1565b6001600160a01b0383166129bd5760405162461bcd60e51b815260206004820152602560248201527f45524332303a207472616e736665722066726f6d20746865207a65726f206164604482015264647265737360d81b606482015260840161085b565b6001600160a01b038216612a1f5760405162461bcd60e51b815260206004820152602360248201527f45524332303a207472616e7366657220746f20746865207a65726f206164647260448201526265737360e81b606482015260840161085b565b6001600160a01b03831660009081526033602052604090205481811015612a975760405162461bcd60e51b815260206004820152602660248201527f45524332303a207472616e7366657220616d6f756e7420657863656564732062604482015265616c616e636560d01b606482015260840161085b565b6001600160a01b0380851660008181526033602052604080822086860390559286168082529083902080548601905591516000805160206135f983398151915290612ae59086815260200190565b60405180910390a3610a29565b6001600160a01b038216612b525760405162461bcd60e51b815260206004820152602160248201527f45524332303a206275726e2066726f6d20746865207a65726f206164647265736044820152607360f81b606482015260840161085b565b6001600160a01b03821660009081526033602052604090205481811015612bc65760405162461bcd60e51b815260206004820152602260248201527f45524332303a206275726e20616d6f756e7420657863656564732062616c616e604482015261636560f01b606482015260840161085b565b6001600160a01b03831660008181526033602090815260408083208686039055603580548790039055518581529192916000805160206135f9833981519152910160405180910390a3505050565b600080546001600160a01b0319166001600160a01b0392909216919091179055565b6001600160a01b038216612c8c5760405162461bcd60e51b815260206004820152601f60248201527f45524332303a206d696e7420746f20746865207a65726f206164647265737300604482015260640161085b565b8060356000828254612c9e91906133c9565b90915550506001600160a01b0382166000818152603360209081526040808320805486019055518481526000805160206135f9833981519152910160405180910390a35050565b600054600160a81b900460ff16612d0e5760405162461bcd60e51b815260040161085b9061332b565b6116888282612d46565b600060143610801590612d2f5750612d2f336114ba565b15612d41575060131936013560601c90565b503390565b600054600160a81b900460ff16612d6f5760405162461bcd60e51b815260040161085b9061332b565b8151612d82906036906020850190612d92565b5080516119569060379060208401905b828054612d9e90613561565b90600052602060002090601f016020900481019282612dc05760008555612e06565b82601f10612dd957805160ff1916838001178555612e06565b82800160010185558215612e06579182015b82811115612e06578251825591602001919060010190612deb565b50612e12929150612e16565b5090565b5b80821115612e125760008155600101612e17565b600082601f830112612e3b578081fd5b81356020612e50612e4b836133a6565b613376565b80838252828201915082860187848660051b8901011115612e6f578586fd5b855b85811015612e8d57813584529284019290840190600101612e71565b5090979650505050505050565b600060208284031215612eab578081fd5b8135611665816135e3565b600060208284031215612ec7578081fd5b8151611665816135e3565b60008060408385031215612ee4578081fd5b8235612eef816135e3565b91506020830135612eff816135e3565b809150509250929050565b60008060008060808587031215612f1f578182fd5b8435612f2a816135e3565b93506020850135612f3a816135e3565b92506040850135612f4a816135e3565b91506060850135612f5a816135e3565b939692955090935050565b600080600060608486031215612f79578283fd5b8335612f84816135e3565b92506020840135612f94816135e3565b929592945050506040919091013590565b60008060408385031215612fb7578182fd5b8235612fc2816135e3565b946020939093013593505050565b600060208284031215612fe1578081fd5b81356001600160401b03811115612ff6578182fd5b61300284828501612e2b565b949350505050565b6000602080838503121561301c578182fd5b82516001600160401b03811115613031578283fd5b8301601f81018513613041578283fd5b805161304f612e4b826133a6565b80828252848201915084840188868560051b870101111561306e578687fd5b8694505b83851015613090578051835260019490940193918501918501613072565b50979650505050505050565b600080604083850312156130ae578182fd5b82356001600160401b03808211156130c4578384fd5b6130d086838701612e2b565b935060208501359150808211156130e5578283fd5b506130f285828601612e2b565b9150509250929050565b60006020828403121561310d578081fd5b81518015158114611665578182fd5b60006020828403121561312d578081fd5b5035919050565b600060208284031215613145578081fd5b5051919050565b6000806040838503121561315e578182fd5b50508035926020909101359150565b60008060008060808587031215613182578081fd5b5050823594602084013594506040840135936060013592509050565b6000815180845260208085019450808401835b838110156131cd578151875295820195908201906001016131b1565b509495945050505050565b6001600160a01b0391909116815260200190565b6001600160a01b039384168152919092166020820152604081019190915260600190565b6001600160a01b03929092168252602082015260400190565b604080825283519082018190526000906020906060840190828701845b8281101561326b5781516001600160a01b031684529284019290840190600101613246565b5050508381038285015261327f818661319e565b9695505050505050565b60408152600061329c604083018561319e565b82810360208401526132ae818561319e565b95945050505050565b6000602080835283518082850152825b818110156132e3578581018301518582016040015282016132c7565b818111156132f45783604083870101525b50601f01601f1916929092016040019392505050565b60208082526007908201526609edcd8f24084960cb1b604082015260600190565b6020808252602b908201527f496e697469616c697a61626c653a20636f6e7472616374206973206e6f74206960408201526a6e697469616c697a696e6760a81b606082015260800190565b604051601f8201601f191681016001600160401b038111828210171561339e5761339e6135cd565b604052919050565b60006001600160401b038211156133bf576133bf6135cd565b5060051b60200190565b600082198211156133dc576133dc6135b7565b500190565b6000826133fc57634e487b7160e01b81526012600452602481fd5b500490565b600181815b8085111561343c578160001904821115613422576134226135b7565b8085161561342f57918102915b93841c9390800290613406565b509250929050565b6000611665838360008261345a575060016107a3565b81613467575060006107a3565b816001811461347d5760028114613487576134a3565b60019150506107a3565b60ff841115613498576134986135b7565b50506001821b6107a3565b5060208310610133831016604e8410600b84101617156134c6575081810a6107a3565b6134d08383613401565b80600019048211156134e4576134e46135b7565b029392505050565b6000816000190483118215151615613506576135066135b7565b500290565b60008083128015600160ff1b850184121615613529576135296135b7565b6001600160ff1b0384018313811615613544576135446135b7565b50500390565b60008282101561355c5761355c6135b7565b500390565b600181811c9082168061357557607f821691505b6020821081141561359657634e487b7160e01b600052602260045260246000fd5b50919050565b60006000198214156135b0576135b06135b7565b5060010190565b634e487b7160e01b600052601160045260246000fd5b634e487b7160e01b600052604160045260246000fd5b6001600160a01b0381168114610b9957600080fdfeddf252ad1be2c89b69c2b068fc378daa952ba7f163c4a11628f55a4df523b3efa264697066735822122090c9f3f83b84e6f2c44005a89ee1badf73049e90549e1e72b92d97b5958f46ff64736f6c63430008040033",
  "linkReferences": {},
  "deployedLinkReferences": {}
}