{
  "_format": "hh-sol-artifact-1",
  "contractName": "BH_FungibleBlockhouse",
  "sourceName": "contracts/BH_FungibleBlockhouse.sol",
  "abi": [
    {
      "anonymous": false,
      "inputs": [
        {
          "indexed": true,
          "internalType": "address",
          "name": "owner",
          "type": "address"
        },
        {
          "indexed": true,
          "internalType": "address",
          "name": "spender",
          "type": "address"
        },
        {
          "indexed": false,
          "internalType": "uint256",
          "name": "value",
          "type": "uint256"
        }
      ],
      "name": "Approval",
      "type": "event"
    },
    {
      "anonymous": false,
      "inputs": [
        {
          "indexed": false,
          "internalType": "uint8",
          "name": "version",
          "type": "uint8"
        }
      ],
      "name": "Initialized",
      "type": "event"
    },
    {
      "anonymous": false,
      "inputs": [
        {
          "indexed": true,
          "internalType": "address",
          "name": "from",
          "type": "address"
        },
        {
          "indexed": true,
          "internalType": "address",
          "name": "to",
          "type": "address"
        },
        {
          "indexed": false,
          "internalType": "uint256",
          "name": "value",
          "type": "uint256"
        }
      ],
      "name": "Transfer",
      "type": "event"
    },
    {
      "inputs": [],
      "name": "Amount_in_contract",
      "outputs": [
        {
          "internalType": "uint256",
          "name": "",
          "type": "uint256"
        },
        {
          "internalType": "uint256",
          "name": "",
          "type": "uint256"
        }
      ],
      "stateMutability": "view",
      "type": "function"
    },
    {
      "inputs": [],
      "name": "BHMarketplace_contract_address",
      "outputs": [
        {
          "internalType": "address",
          "name": "",
          "type": "address"
        }
      ],
      "stateMutability": "view",
      "type": "function"
    },
    {
      "inputs": [
        {
          "internalType": "uint256",
          "name": "",
          "type": "uint256"
        }
      ],
      "name": "Borrowed_amount",
      "outputs": [
        {
          "internalType": "uint256",
          "name": "",
          "type": "uint256"
        }
      ],
      "stateMutability": "view",
      "type": "function"
    },
    {
      "inputs": [
        {
          "internalType": "uint256",
          "name": "",
          "type": "uint256"
        }
      ],
      "name": "HouseT_Owner",
      "outputs": [
        {
          "internalType": "address",
          "name": "",
          "type": "address"
        }
      ],
      "stateMutability": "view",
      "type": "function"
    },
    {
      "inputs": [
        {
          "internalType": "uint256",
          "name": "",
          "type": "uint256"
        }
      ],
      "name": "HouseT_Remaining_payments",
      "outputs": [
        {
          "internalType": "uint256",
          "name": "",
          "type": "uint256"
        }
      ],
      "stateMutability": "view",
      "type": "function"
    },
    {
      "inputs": [
        {
          "internalType": "uint256",
          "name": "",
          "type": "uint256"
        }
      ],
      "name": "HouseT_Values",
      "outputs": [
        {
          "internalType": "uint256",
          "name": "",
          "type": "uint256"
        }
      ],
      "stateMutability": "view",
      "type": "function"
    },
    {
      "inputs": [
        {
          "internalType": "uint256",
          "name": "",
          "type": "uint256"
        }
      ],
      "name": "HouseT_blocked_income",
      "outputs": [
        {
          "internalType": "uint256",
          "name": "",
          "type": "uint256"
        }
      ],
      "stateMutability": "view",
      "type": "function"
    },
    {
      "inputs": [],
      "name": "HouseT_contract_address",
      "outputs": [
        {
          "internalType": "address",
          "name": "",
          "type": "address"
        }
      ],
      "stateMutability": "view",
      "type": "function"
    },
    {
      "inputs": [
        {
          "internalType": "address",
          "name": "",
          "type": "address"
        }
      ],
      "name": "Staked_HouseTs",
      "outputs": [
        {
          "internalType": "uint256",
          "name": "",
          "type": "uint256"
        }
      ],
      "stateMutability": "view",
      "type": "function"
    },
    {
      "inputs": [
        {
          "internalType": "uint256",
          "name": "",
          "type": "uint256"
        }
      ],
      "name": "Timestamp_borrowed",
      "outputs": [
        {
          "internalType": "uint256",
          "name": "",
          "type": "uint256"
        }
      ],
      "stateMutability": "view",
      "type": "function"
    },
    {
      "inputs": [],
      "name": "USDC_contract_address",
      "outputs": [
        {
          "internalType": "address",
          "name": "",
          "type": "address"
        }
      ],
      "stateMutability": "view",
      "type": "function"
    },
    {
      "inputs": [
        {
          "internalType": "uint256",
          "name": "House_tokenID",
          "type": "uint256"
        },
        {
          "internalType": "uint256",
          "name": "USD_amount",
          "type": "uint256"
        }
      ],
      "name": "add_HouseT_blocked_income",
      "outputs": [],
      "stateMutability": "nonpayable",
      "type": "function"
    },
    {
      "inputs": [
        {
          "internalType": "address",
          "name": "owner",
          "type": "address"
        },
        {
          "internalType": "address",
          "name": "spender",
          "type": "address"
        }
      ],
      "name": "allowance",
      "outputs": [
        {
          "internalType": "uint256",
          "name": "",
          "type": "uint256"
        }
      ],
      "stateMutability": "view",
      "type": "function"
    },
    {
      "inputs": [
        {
          "internalType": "address",
          "name": "spender",
          "type": "address"
        },
        {
          "internalType": "uint256",
          "name": "amount",
          "type": "uint256"
        }
      ],
      "name": "approve",
      "outputs": [
        {
          "internalType": "bool",
          "name": "",
          "type": "bool"
        }
      ],
      "stateMutability": "nonpayable",
      "type": "function"
    },
    {
      "inputs": [
        {
          "internalType": "address",
          "name": "account",
          "type": "address"
        }
      ],
      "name": "balanceOf",
      "outputs": [
        {
          "internalType": "uint256",
          "name": "",
          "type": "uint256"
        }
      ],
      "stateMutability": "view",
      "type": "function"
    },
    {
      "inputs": [
        {
          "internalType": "uint256",
          "name": "amount",
          "type": "uint256"
        }
      ],
      "name": "burn",
      "outputs": [],
      "stateMutability": "nonpayable",
      "type": "function"
    },
    {
      "inputs": [
        {
          "internalType": "address",
          "name": "account",
          "type": "address"
        },
        {
          "internalType": "uint256",
          "name": "amount",
          "type": "uint256"
        }
      ],
      "name": "burnFrom",
      "outputs": [],
      "stateMutability": "nonpayable",
      "type": "function"
    },
    {
      "inputs": [],
      "name": "collateral_ratio",
      "outputs": [
        {
          "internalType": "uint256",
          "name": "",
          "type": "uint256"
        }
      ],
      "stateMutability": "view",
      "type": "function"
    },
    {
      "inputs": [],
      "name": "decimals",
      "outputs": [
        {
          "internalType": "uint8",
          "name": "",
          "type": "uint8"
        }
      ],
      "stateMutability": "view",
      "type": "function"
    },
    {
      "inputs": [
        {
          "internalType": "address",
          "name": "spender",
          "type": "address"
        },
        {
          "internalType": "uint256",
          "name": "subtractedValue",
          "type": "uint256"
        }
      ],
      "name": "decreaseAllowance",
      "outputs": [
        {
          "internalType": "bool",
          "name": "",
          "type": "bool"
        }
      ],
      "stateMutability": "nonpayable",
      "type": "function"
    },
    {
      "inputs": [
        {
          "internalType": "uint256",
          "name": "amount",
          "type": "uint256"
        }
      ],
      "name": "exchange_FBH_TO_USDC",
      "outputs": [],
      "stateMutability": "nonpayable",
      "type": "function"
    },
    {
      "inputs": [
        {
          "internalType": "uint256",
          "name": "amount",
          "type": "uint256"
        }
      ],
      "name": "exchange_USDC_TO_FBH",
      "outputs": [],
      "stateMutability": "nonpayable",
      "type": "function"
    },
    {
      "inputs": [
        {
          "internalType": "uint256",
          "name": "k",
          "type": "uint256"
        },
        {
          "internalType": "uint256",
          "name": "q",
          "type": "uint256"
        },
        {
          "internalType": "uint256",
          "name": "n",
          "type": "uint256"
        },
        {
          "internalType": "uint256",
          "name": "p",
          "type": "uint256"
        }
      ],
      "name": "fracExp",
      "outputs": [
        {
          "internalType": "uint256",
          "name": "",
          "type": "uint256"
        }
      ],
      "stateMutability": "pure",
      "type": "function"
    },
    {
      "inputs": [
        {
          "internalType": "uint256",
          "name": "House_tokenID",
          "type": "uint256"
        }
      ],
      "name": "get_FBHamount_due",
      "outputs": [
        {
          "internalType": "uint256",
          "name": "",
          "type": "uint256"
        }
      ],
      "stateMutability": "view",
      "type": "function"
    },
    {
      "inputs": [
        {
          "internalType": "uint256",
          "name": "House_tokenID",
          "type": "uint256"
        }
      ],
      "name": "get_collateral_value",
      "outputs": [
        {
          "internalType": "uint256",
          "name": "",
          "type": "uint256"
        }
      ],
      "stateMutability": "view",
      "type": "function"
    },
    {
      "inputs": [
        {
          "internalType": "address",
          "name": "_address",
          "type": "address"
        }
      ],
      "name": "get_list_of_HouseT_staked",
      "outputs": [
        {
          "internalType": "uint256[]",
          "name": "",
          "type": "uint256[]"
        },
        {
          "internalType": "uint256[]",
          "name": "",
          "type": "uint256[]"
        }
      ],
      "stateMutability": "view",
      "type": "function"
    },
    {
      "inputs": [],
      "name": "get_list_of_HouseT_staker",
      "outputs": [
        {
          "internalType": "address[]",
          "name": "",
          "type": "address[]"
        },
        {
          "internalType": "uint256[]",
          "name": "",
          "type": "uint256[]"
        }
      ],
      "stateMutability": "view",
      "type": "function"
    },
    {
      "inputs": [
        {
          "internalType": "address",
          "name": "spender",
          "type": "address"
        },
        {
          "internalType": "uint256",
          "name": "addedValue",
          "type": "uint256"
        }
      ],
      "name": "increaseAllowance",
      "outputs": [
        {
          "internalType": "bool",
          "name": "",
          "type": "bool"
        }
      ],
      "stateMutability": "nonpayable",
      "type": "function"
    },
    {
      "inputs": [
        {
          "internalType": "address",
          "name": "_HouseT_contract_address",
          "type": "address"
        },
        {
          "internalType": "address",
          "name": "_owner",
          "type": "address"
        },
        {
          "internalType": "address",
          "name": "_USDC_contract_address",
          "type": "address"
        },
        {
          "internalType": "address",
          "name": "forwarder_",
          "type": "address"
        }
      ],
      "name": "initialize",
      "outputs": [],
      "stateMutability": "nonpayable",
      "type": "function"
    },
    {
      "inputs": [],
      "name": "interrest_rate",
      "outputs": [
        {
          "internalType": "uint256",
          "name": "",
          "type": "uint256"
        }
      ],
      "stateMutability": "view",
      "type": "function"
    },
    {
      "inputs": [
        {
          "internalType": "address",
          "name": "forwarder",
          "type": "address"
        }
      ],
      "name": "isTrustedForwarder",
      "outputs": [
        {
          "internalType": "bool",
          "name": "",
          "type": "bool"
        }
      ],
      "stateMutability": "view",
      "type": "function"
    },
    {
      "inputs": [
        {
          "internalType": "uint256",
          "name": "House_tokenID",
          "type": "uint256"
        }
      ],
      "name": "is_staked",
      "outputs": [
        {
          "internalType": "bool",
          "name": "",
          "type": "bool"
        }
      ],
      "stateMutability": "view",
      "type": "function"
    },
    {
      "inputs": [],
      "name": "name",
      "outputs": [
        {
          "internalType": "string",
          "name": "",
          "type": "string"
        }
      ],
      "stateMutability": "view",
      "type": "function"
    },
    {
      "inputs": [
        {
          "internalType": "uint256",
          "name": "House_tokenID",
          "type": "uint256"
        }
      ],
      "name": "stake_HouseT",
      "outputs": [],
      "stateMutability": "nonpayable",
      "type": "function"
    },
    {
      "inputs": [
        {
          "internalType": "uint256[]",
          "name": "House_tokenIDs",
          "type": "uint256[]"
        }
      ],
      "name": "stake_HouseT_batch",
      "outputs": [],
      "stateMutability": "nonpayable",
      "type": "function"
    },
    {
      "inputs": [],
      "name": "symbol",
      "outputs": [
        {
          "internalType": "string",
          "name": "",
          "type": "string"
        }
      ],
      "stateMutability": "view",
      "type": "function"
    },
    {
      "inputs": [],
      "name": "totalSupply",
      "outputs": [
        {
          "internalType": "uint256",
          "name": "",
          "type": "uint256"
        }
      ],
      "stateMutability": "view",
      "type": "function"
    },
    {
      "inputs": [
        {
          "internalType": "address",
          "name": "to",
          "type": "address"
        },
        {
          "internalType": "uint256",
          "name": "amount",
          "type": "uint256"
        }
      ],
      "name": "transfer",
      "outputs": [
        {
          "internalType": "bool",
          "name": "",
          "type": "bool"
        }
      ],
      "stateMutability": "nonpayable",
      "type": "function"
    },
    {
      "inputs": [
        {
          "internalType": "address",
          "name": "from",
          "type": "address"
        },
        {
          "internalType": "address",
          "name": "to",
          "type": "address"
        },
        {
          "internalType": "uint256",
          "name": "amount",
          "type": "uint256"
        }
      ],
      "name": "transferFrom",
      "outputs": [
        {
          "internalType": "bool",
          "name": "",
          "type": "bool"
        }
      ],
      "stateMutability": "nonpayable",
      "type": "function"
    },
    {
      "inputs": [],
      "name": "trustedForwarder",
      "outputs": [
        {
          "internalType": "address",
          "name": "",
          "type": "address"
        }
      ],
      "stateMutability": "view",
      "type": "function"
    },
    {
      "inputs": [
        {
          "internalType": "uint256",
          "name": "House_tokenID",
          "type": "uint256"
        }
      ],
      "name": "unstake_HouseT",
      "outputs": [],
      "stateMutability": "nonpayable",
      "type": "function"
    },
    {
      "inputs": [
        {
          "internalType": "uint256[]",
          "name": "House_tokenIDs",
          "type": "uint256[]"
        }
      ],
      "name": "unstake_HouseT_batch",
      "outputs": [],
      "stateMutability": "nonpayable",
      "type": "function"
    },
    {
      "inputs": [
        {
          "internalType": "uint256",
          "name": "House_tokenID",
          "type": "uint256"
        },
        {
          "internalType": "uint256",
          "name": "USD_amount",
          "type": "uint256"
        }
      ],
      "name": "update_HouseT_blocked_income",
      "outputs": [],
      "stateMutability": "nonpayable",
      "type": "function"
    },
    {
      "inputs": [
        {
          "internalType": "uint256",
          "name": "House_tokenID",
          "type": "uint256"
        },
        {
          "internalType": "uint256",
          "name": "remaining_payments",
          "type": "uint256"
        }
      ],
      "name": "update_HouseT_remaining_payments",
      "outputs": [],
      "stateMutability": "nonpayable",
      "type": "function"
    },
    {
      "inputs": [
        {
          "internalType": "uint256[]",
          "name": "House_tokenIDs",
          "type": "uint256[]"
        },
        {
          "internalType": "uint256[]",
          "name": "remaining_payments",
          "type": "uint256[]"
        }
      ],
      "name": "update_HouseT_remaining_payments_batch",
      "outputs": [],
      "stateMutability": "nonpayable",
      "type": "function"
    },
    {
      "inputs": [
        {
          "internalType": "uint256",
          "name": "House_tokenID",
          "type": "uint256"
        },
        {
          "internalType": "uint256",
          "name": "USD_value",
          "type": "uint256"
        }
      ],
      "name": "update_HouseT_value",
      "outputs": [],
      "stateMutability": "nonpayable",
      "type": "function"
    },
    {
      "inputs": [
        {
          "internalType": "uint256[]",
          "name": "House_tokenIDs",
          "type": "uint256[]"
        },
        {
          "internalType": "uint256[]",
          "name": "USD_values",
          "type": "uint256[]"
        }
      ],
      "name": "update_HouseT_value_batch",
      "outputs": [],
      "stateMutability": "nonpayable",
      "type": "function"
    },
    {
      "inputs": [
        {
          "internalType": "address",
          "name": "_BHMarketplace_contract_address",
          "type": "address"
        }
      ],
      "name": "update_addresses",
      "outputs": [],
      "stateMutability": "nonpayable",
      "type": "function"
    },
    {
      "inputs": [
        {
          "internalType": "uint256",
          "name": "_ratio",
          "type": "uint256"
        }
      ],
      "name": "update_collateral_ratio",
      "outputs": [],
      "stateMutability": "nonpayable",
      "type": "function"
    },
    {
      "inputs": [
        {
          "internalType": "uint256",
          "name": "_rate",
          "type": "uint256"
        }
      ],
      "name": "update_interrest_rate",
      "outputs": [],
      "stateMutability": "nonpayable",
      "type": "function"
    },
    {
      "inputs": [
        {
          "internalType": "address",
          "name": "forwarder_",
          "type": "address"
        }
      ],
      "name": "update_trusted_forwarder",
      "outputs": [],
      "stateMutability": "nonpayable",
      "type": "function"
    },
    {
      "inputs": [],
      "name": "versionRecipient",
      "outputs": [
        {
          "internalType": "string",
          "name": "",
          "type": "string"
        }
      ],
      "stateMutability": "view",
      "type": "function"
    },
    {
      "inputs": [],
      "name": "void",
      "outputs": [],
      "stateMutability": "nonpayable",
      "type": "function"
    }
  ],
  "bytecode": "0x608060405234801561001057600080fd5b5061364c806100206000396000f3fe608060405234801561001057600080fd5b50600436106102675760003560e01c8063069a2ad81461026c57806306fdde031461029f57806308b41c01146102b4578063095ea7b3146102d757806318160ddd146102ea5780631ba03403146102f25780631bde25221461031257806321a20dca1461032757806323b872dd146103475780632611e1a61461035a578063294275b51461037a578063313ce5671461038d57806334bd55921461039c57806335a16fc9146103af578063383fc6bb146103cf57806339509351146103ef57806341da499e1461040257806342966c6814610415578063486ff0cd146104285780634b32f1bf146104305780635048d7a5146104435780635232835b1461046c578063572b6c051461047f5780635d52f40d146104925780636a5dda7f146104b357806370a08231146104c657806379a2c2d7146104ef57806379cc6790146104f85780637da0a8771461050b5780637ff2767b1461051c57806388fc99951461052f5780638f867a141461054f5780639022f7311461056257806395d89b411461057557806395f8b4ba1461057d578063a3b3e85114610590578063a457c2d7146105a3578063a6130563146105b6578063a9059cbb146105c9578063ab69b596146105dc578063ac152a9d146105ef578063ac4c25b214610325578063b326d65c146105f8578063b3e5aaec14610615578063cd4e7db914610628578063d13bcede1461063b578063d47508d01461064e578063d6db85af14610661578063dd62ed3e14610674578063ee8d0cdc14610687578063f048c54e1461069a578063f8c8765e146106ad578063fa03713e146106c0575b600080fd5b61028c61027a36600461311a565b60a56020526000908152604090205481565b6040519081526020015b60405180910390f35b6102a76106d6565b60405161029691906132b5565b6102c76102c236600461311a565b610768565b6040519015158152602001610296565b6102c76102e5366004612fa3565b610785565b60355461028c565b61028c61030036600461311a565b60a36020526000908152604090205481565b61032561032036600461311a565b6107a9565b005b60995461033a906001600160a01b031681565b60405161029691906131d6565b6102c7610355366004612f63565b610931565b61028c610368366004612e98565b60a16020526000908152604090205481565b61032561038836600461311a565b61095f565b60405160128152602001610296565b6103256103aa36600461309a565b6109e8565b61028c6103bd36600461311a565b60a46020526000908152604090205481565b61028c6103dd36600461311a565b60a66020526000908152604090205481565b6102c76103fd366004612fa3565b610b0f565b61032561041036600461314a565b610b3b565b61032561042336600461311a565b610c68565b6102a7610c79565b61032561043e36600461311a565b610d07565b61033a61045136600461311a565b60a2602052600090815260409020546001600160a01b031681565b609a5461033a906001600160a01b031681565b6102c761048d366004612e98565b6112b8565b6104a56104a0366004612e98565b6112cc565b604051610296929190613287565b61028c6104c136600461311a565b61143e565b61028c6104d4366004612e98565b6001600160a01b031660009081526033602052604090205490565b61028c60975481565b610325610506366004612fa3565b61146a565b6000546001600160a01b031661033a565b609b5461033a906001600160a01b031681565b61028c61053d36600461311a565b60a76020526000908152604090205481565b61032561055d36600461314a565b61148a565b61032561057036600461314a565b61155a565b6102a7611615565b61032561058b36600461314a565b611624565b61032561059e366004612fce565b611704565b6102c76105b1366004612fa3565b611759565b6103256105c4366004612fce565b6117df565b6102c76105d7366004612fa3565b61182f565b6103256105ea366004612e98565b611847565b61028c60985481565b6106006118d4565b60408051928352602083019190915201610296565b61028c61062336600461311a565b6119ee565b61032561063636600461311a565b611a8d565b61032561064936600461311a565b611b16565b61032561065c36600461311a565b611e74565b61028c61066f36600461316b565b612153565b61028c610682366004612ed0565b6121e2565b61032561069536600461309a565b61220d565b6103256106a8366004612e98565b612294565b6103256106bb366004612f08565b61235f565b6106c86125bf565b604051610296929190613227565b6060603680546106e59061355f565b80601f01602080910402602001604051908101604052809291908181526020018280546107119061355f565b801561075e5780601f106107335761010080835404028352916020019161075e565b820191906000526020600020905b81548152906001019060200180831161074157829003601f168201915b5050505050905090565b600090815260a260205260409020546001600160a01b0316151590565b6000806107906127b0565b905061079d8185856127bf565b60019150505b92915050565b60995481906001600160a01b03166370a082316107c46127b0565b6040518263ffffffff1660e01b81526004016107e091906131d6565b60206040518083038186803b1580156107f857600080fd5b505afa15801561080c573d6000803e3d6000fd5b505050506040513d601f19601f820116820180604052508101906108309190613132565b10156108915760405162461bcd60e51b815260206004820152602560248201527f596f7520646f6e2774206f776e20656e6f756768205553444320746f2065786360448201526468616e676560d81b60648201526084015b60405180910390fd5b6099546001600160a01b03166323b872dd6108aa6127b0565b30846040518463ffffffff1660e01b81526004016108ca939291906131ea565b602060405180830381600087803b1580156108e457600080fd5b505af11580156108f8573d6000803e3d6000fd5b505050506040513d601f19601f8201168201806040525081019061091c91906130fa565b5061092e6109286127b0565b826128e3565b50565b60008061093c6127b0565b9050610949858285612992565b610954858585612a06565b506001949350505050565b609f546001600160a01b03166109736127b0565b6001600160a01b031614806109a25750609c546001600160a01b03166109976127b0565b6001600160a01b0316145b806109c75750609d546001600160a01b03166109bc6127b0565b6001600160a01b0316145b6109e35760405162461bcd60e51b815260040161088890613308565b609855565b609f546001600160a01b03166109fc6127b0565b6001600160a01b03161480610a2b5750609c546001600160a01b0316610a206127b0565b6001600160a01b0316145b80610a505750609d546001600160a01b0316610a456127b0565b6001600160a01b0316145b80610a755750609e546001600160a01b0316610a6a6127b0565b6001600160a01b0316145b610a915760405162461bcd60e51b815260040161088890613308565b81516000905b80821015610b0957610af7848381518110610ac257634e487b7160e01b600052603260045260246000fd5b6020026020010151848481518110610aea57634e487b7160e01b600052603260045260246000fd5b6020026020010151610b3b565b81610b018161359a565b925050610a97565b50505050565b600080610b1a6127b0565b905061079d818585610b2c85896121e2565b610b3691906133c7565b6127bf565b609f546001600160a01b0316610b4f6127b0565b6001600160a01b03161480610b7e5750609c546001600160a01b0316610b736127b0565b6001600160a01b0316145b80610ba35750609d546001600160a01b0316610b986127b0565b6001600160a01b0316145b80610bc85750609e546001600160a01b0316610bbd6127b0565b6001600160a01b0316145b80610bed5750609a546001600160a01b0316610be26127b0565b6001600160a01b0316145b610c095760405162461bcd60e51b815260040161088890613308565b633b9aca00811080610c555760405162461bcd60e51b81526020600482015260156024820152741554d117dd985b1d594818589bdd99481b1a5b5a5d605a1b6044820152606401610888565b50600091825260a3602052604090912055565b61092e610c736127b0565b82612b9f565b60a88054610c869061355f565b80601f0160208091040260200160405190810160405280929190818152602001828054610cb29061355f565b8015610cff5780601f10610cd457610100808354040283529160200191610cff565b820191906000526020600020905b815481529060010190602001808311610ce257829003601f168201915b505050505081565b610d0f6127b0565b600082815260a260205260409020546001600160a01b03908116911614610da0576040805162461bcd60e51b81526020600482015260248101919091527f596f7520616c72656164792077697468647261776e2c206f7220617265206e6f60448201527f7420746865206f776e6572206f66207468697320486f7573655420746f6b656e6064820152608401610888565b609a546040516331a9108f60e11b81526004810183905230916001600160a01b031690636352211e9060240160206040518083038186803b158015610de457600080fd5b505afa158015610df8573d6000803e3d6000fd5b505050506040513d601f19601f82011682018060405250810190610e1c9190612eb4565b6001600160a01b031614610ea65760405162461bcd60e51b8152602060048201526044602482018190527f5468697320486f7573655420746f6b656e206973206e6f7420696e2074686520908201527f636f6e74726163742c20692e652e2077617320616c72656164792077697468646064820152633930bbb760e11b608482015260a401610888565b6000610eb36104d46127b0565b90506000610ec0836119ee565b905080821015610f125760405162461bcd60e51b815260206004820181905260248201527f4e6f7420656e6f7567682046424820746f20756e7374616b6520486f757365546044820152606401610888565b610f1d610c736127b0565b609a546001600160a01b03166323b872dd30610f376127b0565b866040518463ffffffff1660e01b8152600401610f56939291906131ea565b600060405180830381600087803b158015610f7057600080fd5b505af1158015610f84573d6000803e3d6000fd5b505050600084815260a560205260408082205460995491516370a0823160e01b81529093506001600160a01b03909116906370a0823190610fc99030906004016131d6565b60206040518083038186803b158015610fe157600080fd5b505afa158015610ff5573d6000803e3d6000fd5b505050506040513d601f19601f820116820180604052508101906110199190613132565b9050818110156111a95761102d8183613509565b609a5460405163523b8c5960e11b81526001600160a01b039091169063a47718b29061105d9030906004016131d6565b60206040518083038186803b15801561107557600080fd5b505afa158015611089573d6000803e3d6000fd5b505050506040513d601f19601f820116820180604052508101906110ad9190613132565b1261111f57609a60009054906101000a90046001600160a01b03166001600160a01b0316632c9f7f926040518163ffffffff1660e01b8152600401600060405180830381600087803b15801561110257600080fd5b505af1158015611116573d6000803e3d6000fd5b505050506111a9565b60405162461bcd60e51b815260206004820152605360248201527f5468657265206973206e6f7420656e6f7567682055534420696e20746865207360448201527f74616b696e6720616e6420486f7573655420636f6e74726163742c20706c656160648201527239b29031b7b73a30b1ba1021241039ba30b33360691b608482015260a401610888565b811561123a576099546001600160a01b031663a9059cbb6111c86127b0565b846040518363ffffffff1660e01b81526004016111e692919061320e565b602060405180830381600087803b15801561120057600080fd5b505af1158015611214573d6000803e3d6000fd5b505050506040513d601f19601f8201168201806040525081019061123891906130fa565b505b600085815260a260209081526040808320546001600160a01b0316835260a1909152812080546001929061126f908490613548565b9091555050506000938452505060a26020908152604080842080546001600160a01b031916905560a6825280842084905560a7825280842084905560a590915282209190915550565b6000546001600160a01b0391821691161490565b609a5460405163710ac84b60e01b815260609182916000916001600160a01b03169063710ac84b906113029087906004016131d6565b60006040518083038186803b15801561131a57600080fd5b505afa15801561132e573d6000803e3d6000fd5b505050506040513d6000823e601f3d908101601f191682016040526113569190810190613008565b805190915060009081816001600160401b0381111561138557634e487b7160e01b600052604160045260246000fd5b6040519080825280602002602001820160405280156113ae578160200160208202803683370190505b509050600092505b818310156114315760008484815181106113e057634e487b7160e01b600052603260045260246000fd5b602002602001015190506113f3816119ee565b82858151811061141357634e487b7160e01b600052603260045260246000fd5b602090810291909101015250826114298161359a565b9350506113b6565b9296929550919350505050565b600081815260a5602090815260408083205460a39092528220548291611463916133c7565b9392505050565b61147c826114766127b0565b83612992565b6114868282612b9f565b5050565b609f546001600160a01b031661149e6127b0565b6001600160a01b031614806114cd5750609a546001600160a01b03166114c26127b0565b6001600160a01b0316145b806114f25750609c546001600160a01b03166114e76127b0565b6001600160a01b0316145b806115175750609d546001600160a01b031661150c6127b0565b6001600160a01b0316145b6115335760405162461bcd60e51b815260040161088890613308565b600082815260a56020526040812080548392906115519084906133c7565b90915550505050565b609f546001600160a01b031661156e6127b0565b6001600160a01b0316148061159d5750609a546001600160a01b03166115926127b0565b6001600160a01b0316145b806115c25750609c546001600160a01b03166115b76127b0565b6001600160a01b0316145b806115e75750609d546001600160a01b03166115dc6127b0565b6001600160a01b0316145b6116035760405162461bcd60e51b815260040161088890613308565b600091825260a5602052604090912055565b6060603780546106e59061355f565b609f546001600160a01b03166116386127b0565b6001600160a01b031614806116675750609c546001600160a01b031661165c6127b0565b6001600160a01b0316145b8061168c5750609d546001600160a01b03166116816127b0565b6001600160a01b0316145b806116b15750609e546001600160a01b03166116a66127b0565b6001600160a01b0316145b806116d65750609a546001600160a01b03166116cb6127b0565b6001600160a01b0316145b6116f25760405162461bcd60e51b815260040161088890613308565b600091825260a4602052604090912055565b80516000905b808210156117545761174283838151811061173557634e487b7160e01b600052603260045260246000fd5b6020026020010151611b16565b8161174c8161359a565b92505061170a565b505050565b6000806117646127b0565b9050600061177282866121e2565b9050838110156117d25760405162461bcd60e51b815260206004820152602560248201527f45524332303a2064656372656173656420616c6c6f77616e63652062656c6f77604482015264207a65726f60d81b6064820152608401610888565b61095482868684036127bf565b80516000905b808210156117545761181d83838151811061181057634e487b7160e01b600052603260045260246000fd5b6020026020010151610d07565b816118278161359a565b9250506117e5565b60008061183a6127b0565b905061079d818585612a06565b609f546001600160a01b031661185b6127b0565b6001600160a01b0316148061188a5750609c546001600160a01b031661187f6127b0565b6001600160a01b0316145b806118af5750609d546001600160a01b03166118a46127b0565b6001600160a01b0316145b6118cb5760405162461bcd60e51b815260040161088890613308565b61092e81612cc1565b6099546040516370a0823160e01b8152600091829182916001600160a01b0316906370a08231906119099030906004016131d6565b60206040518083038186803b15801561192157600080fd5b505afa158015611935573d6000803e3d6000fd5b505050506040513d601f19601f820116820180604052508101906119599190613132565b90506000609b60009054906101000a90046001600160a01b03166001600160a01b031663d5ad9a036040518163ffffffff1660e01b815260040160206040518083038186803b1580156119ab57600080fd5b505afa1580156119bf573d6000803e3d6000fd5b505050506040513d601f19601f820116820180604052508101906119e39190613132565b919491935090915050565b6000806119fa83610768565b156107a357600083815260a76020526040812054611a189042613548565b90508015611a74576301e7d8e4606460985483611a3591906134ea565b611a3f91906133df565b611a4991906133df565b611a549060016133c7565b600085815260a66020526040902054611a6d91906134ea565b9150611a86565b600084815260a6602052604090205491505b5092915050565b609f546001600160a01b0316611aa16127b0565b6001600160a01b03161480611ad05750609c546001600160a01b0316611ac56127b0565b6001600160a01b0316145b80611af55750609d546001600160a01b0316611aea6127b0565b6001600160a01b0316145b611b115760405162461bcd60e51b815260040161088890613308565b609755565b611b1e6127b0565b609a546040516331a9108f60e11b8152600481018490526001600160a01b039283169290911690636352211e9060240160206040518083038186803b158015611b6657600080fd5b505afa158015611b7a573d6000803e3d6000fd5b505050506040513d601f19601f82011682018060405250810190611b9e9190612eb4565b6001600160a01b031614611bef5760405162461bcd60e51b8152602060048201526018602482015277165bdd48191bdb9d081bdddb881d1a1a5cc8121bdd5cd95560421b6044820152606401610888565b609a60009054906101000a90046001600160a01b03166001600160a01b031663ee0959d86040518163ffffffff1660e01b815260040160206040518083038186803b158015611c3d57600080fd5b505afa158015611c51573d6000803e3d6000fd5b505050506040513d601f19601f82011682018060405250810190611c7591906130fa565b151560011415611d6c57609a546001600160a01b031663a9f7841c611c986127b0565b6040518263ffffffff1660e01b8152600401611cb491906131d6565b60206040518083038186803b158015611ccc57600080fd5b505afa158015611ce0573d6000803e3d6000fd5b505050506040513d601f19601f82011682018060405250810190611d0491906130fa565b611d6c5760405162461bcd60e51b815260206004820152603360248201527f4f6e6c792077686974656c6973746564206164647265737365732063616e2075604482015272736520746865206c6f616e207365727669636560681b6064820152608401610888565b609a546001600160a01b03166323b872dd611d856127b0565b30846040518463ffffffff1660e01b8152600401611da5939291906131ea565b600060405180830381600087803b158015611dbf57600080fd5b505af1158015611dd3573d6000803e3d6000fd5b5050609754600084815260a3602052604081205490935060649250611df891906134ea565b611e0291906133df565b9050611e0f6109286127b0565b611e176127b0565b600083815260a26020908152604080832080546001600160a01b0319166001600160a01b0395861617815560a6835281842086905560a7835281842042905554909316825260a190529081208054600192906115519084906133c7565b80611e806104d46127b0565b1015611eda5760405162461bcd60e51b8152602060048201526024808201527f596f7520646f6e2774206f776e20656e6f7567682046424820746f2065786368604482015263616e676560e01b6064820152608401610888565b6099546040516370a0823160e01b81526000916001600160a01b0316906370a0823190611f0b9030906004016131d6565b60206040518083038186803b158015611f2357600080fd5b505afa158015611f37573d6000803e3d6000fd5b505050506040513d601f19601f82011682018060405250810190611f5b9190613132565b90506000609b60009054906101000a90046001600160a01b03166001600160a01b031663d5ad9a036040518163ffffffff1660e01b815260040160206040518083038186803b158015611fad57600080fd5b505afa158015611fc1573d6000803e3d6000fd5b505050506040513d601f19601f82011682018060405250810190611fe59190613132565b90506000611ff382846133c7565b90508381101561203d5760405162461bcd60e51b81526020600482015260156024820152744e6f7420656e6f75676820555344432066756e647360581b6044820152606401610888565b838310156120b25760006120518486613548565b609b5460405163048494d960e41b8152600481018390529192506001600160a01b0316906348494d9090602401600060405180830381600087803b15801561209857600080fd5b505af11580156120ac573d6000803e3d6000fd5b50505050505b6120c36120bd6127b0565b85612b9f565b6099546001600160a01b031663a9059cbb6120dc6127b0565b866040518363ffffffff1660e01b81526004016120fa92919061320e565b602060405180830381600087803b15801561211457600080fd5b505af1158015612128573d6000803e3d6000fd5b505050506040513d601f19601f8201168201806040525081019061214c91906130fa565b5050505050565b600080600180825b858110156121d55761216d8189613442565b82612178858c6134ea565b61218291906133df565b61218c91906133df565b61219690856133c7565b93506121a28188613548565b6121ac90846134ea565b92506121b98160016133c7565b6121c390836134ea565b91506121ce8161359a565b905061215b565b5091979650505050505050565b6001600160a01b03918216600090815260346020908152604080832093909416825291909152205490565b81516000905b80821015610b095782828151811061223b57634e487b7160e01b600052603260045260246000fd5b602002602001015160a4600086858151811061226757634e487b7160e01b600052603260045260246000fd5b6020026020010151815260200190815260200160002081905550818061228c9061359a565b925050612213565b609f546001600160a01b03166122a86127b0565b6001600160a01b031614806122d7575060a0546001600160a01b03166122cc6127b0565b6001600160a01b0316145b806122fc5750609c546001600160a01b03166122f16127b0565b6001600160a01b0316145b806123215750609d546001600160a01b03166123166127b0565b6001600160a01b0316145b61233d5760405162461bcd60e51b815260040161088890613308565b609b80546001600160a01b0319166001600160a01b0392909216919091179055565b600054600160a81b900460ff161580801561238757506000546001600160a01b90910460ff16105b806123a85750303b1580156123a85750600054600160a01b900460ff166001145b61240b5760405162461bcd60e51b815260206004820152602e60248201527f496e697469616c697a61626c653a20636f6e747261637420697320616c72656160448201526d191e481a5b9a5d1a585b1a5e995960921b6064820152608401610888565b6000805460ff60a01b1916600160a01b1790558015612438576000805460ff60a81b1916600160a81b1790555b6124786040518060400160405280600381526020016208c84960eb1b8152506040518060400160405280600381526020016208c84960eb1b815250612ce3565b61248182612cc1565b609f80546001600160a01b0319166001600160a01b0386161790556124a46127b0565b60a080546001600160a01b03199081166001600160a01b0393841617909155609a805490911691871691909117905560556097556003609855604080518082019091526005808252640322e322e360dc1b60209092019182526125099160a891612d90565b50609980546001600160a01b0385166001600160a01b031991821617909155609c8054821673e7e3e925e5dcfeaf5c5cebfbc6efd4b404b0e607908117909155609d8054831673c117e7247be4830d169da13427311f59bd25d669179055609e8054909216179055801561214c576000805460ff60a81b19169055604051600181527f7f26b83ff96e1f2b6a682f133852f6798a09c465da95921460cefb38474024989060200160405180910390a15050505050565b6060806000609a60009054906101000a90046001600160a01b03166001600160a01b031663c0976c586040518163ffffffff1660e01b815260040160206040518083038186803b15801561261257600080fd5b505afa158015612626573d6000803e3d6000fd5b505050506040513d601f19601f8201168201806040525081019061264a9190613132565b90506000816001600160401b0381111561267457634e487b7160e01b600052604160045260246000fd5b60405190808252806020026020018201604052801561269d578160200160208202803683370190505b5090506000826001600160401b038111156126c857634e487b7160e01b600052604160045260246000fd5b6040519080825280602002602001820160405280156126f1578160200160208202803683370190505b50905060005b838110156127a557600081815260a2602052604090205483516001600160a01b0390911690819085908490811061273e57634e487b7160e01b600052603260045260246000fd5b60200260200101906001600160a01b031690816001600160a01b031681525050612767826119ee565b83838151811061278757634e487b7160e01b600052603260045260246000fd5b6020908102919091010152508061279d8161359a565b9150506126f7565b509094909350915050565b60006127ba612d16565b905090565b6001600160a01b0383166128215760405162461bcd60e51b8152602060048201526024808201527f45524332303a20617070726f76652066726f6d20746865207a65726f206164646044820152637265737360e01b6064820152608401610888565b6001600160a01b0382166128825760405162461bcd60e51b815260206004820152602260248201527f45524332303a20617070726f766520746f20746865207a65726f206164647265604482015261737360f01b6064820152608401610888565b6001600160a01b0383811660008181526034602090815260408083209487168084529482529182902085905590518481527f8c5be1e5ebec7d5bd14f71427d1e84f3dd0314c0f7b2291e5b200ac8c7c3b925910160405180910390a3505050565b6001600160a01b0382166129395760405162461bcd60e51b815260206004820152601f60248201527f45524332303a206d696e7420746f20746865207a65726f2061646472657373006044820152606401610888565b806035600082825461294b91906133c7565b90915550506001600160a01b0382166000818152603360209081526040808320805486019055518481526000805160206135f7833981519152910160405180910390a35050565b600061299e84846121e2565b90506000198114610b0957818110156129f95760405162461bcd60e51b815260206004820152601d60248201527f45524332303a20696e73756666696369656e7420616c6c6f77616e63650000006044820152606401610888565b610b0984848484036127bf565b6001600160a01b038316612a6a5760405162461bcd60e51b815260206004820152602560248201527f45524332303a207472616e736665722066726f6d20746865207a65726f206164604482015264647265737360d81b6064820152608401610888565b6001600160a01b038216612acc5760405162461bcd60e51b815260206004820152602360248201527f45524332303a207472616e7366657220746f20746865207a65726f206164647260448201526265737360e81b6064820152608401610888565b6001600160a01b03831660009081526033602052604090205481811015612b445760405162461bcd60e51b815260206004820152602660248201527f45524332303a207472616e7366657220616d6f756e7420657863656564732062604482015265616c616e636560d01b6064820152608401610888565b6001600160a01b0380851660008181526033602052604080822086860390559286168082529083902080548601905591516000805160206135f783398151915290612b929086815260200190565b60405180910390a3610b09565b6001600160a01b038216612bff5760405162461bcd60e51b815260206004820152602160248201527f45524332303a206275726e2066726f6d20746865207a65726f206164647265736044820152607360f81b6064820152608401610888565b6001600160a01b03821660009081526033602052604090205481811015612c735760405162461bcd60e51b815260206004820152602260248201527f45524332303a206275726e20616d6f756e7420657863656564732062616c616e604482015261636560f01b6064820152608401610888565b6001600160a01b03831660008181526033602090815260408083208686039055603580548790039055518581529192916000805160206135f7833981519152910160405180910390a3505050565b600080546001600160a01b0319166001600160a01b0392909216919091179055565b600054600160a81b900460ff16612d0c5760405162461bcd60e51b815260040161088890613329565b6114868282612d44565b600060143610801590612d2d5750612d2d336112b8565b15612d3f575060131936013560601c90565b503390565b600054600160a81b900460ff16612d6d5760405162461bcd60e51b815260040161088890613329565b8151612d80906036906020850190612d90565b5080516117549060379060208401905b828054612d9c9061355f565b90600052602060002090601f016020900481019282612dbe5760008555612e04565b82601f10612dd757805160ff1916838001178555612e04565b82800160010185558215612e04579182015b82811115612e04578251825591602001919060010190612de9565b50612e10929150612e14565b5090565b5b80821115612e105760008155600101612e15565b600082601f830112612e39578081fd5b81356020612e4e612e49836133a4565b613374565b80838252828201915082860187848660051b8901011115612e6d578586fd5b855b85811015612e8b57813584529284019290840190600101612e6f565b5090979650505050505050565b600060208284031215612ea9578081fd5b8135611463816135e1565b600060208284031215612ec5578081fd5b8151611463816135e1565b60008060408385031215612ee2578081fd5b8235612eed816135e1565b91506020830135612efd816135e1565b809150509250929050565b60008060008060808587031215612f1d578182fd5b8435612f28816135e1565b93506020850135612f38816135e1565b92506040850135612f48816135e1565b91506060850135612f58816135e1565b939692955090935050565b600080600060608486031215612f77578283fd5b8335612f82816135e1565b92506020840135612f92816135e1565b929592945050506040919091013590565b60008060408385031215612fb5578182fd5b8235612fc0816135e1565b946020939093013593505050565b600060208284031215612fdf578081fd5b81356001600160401b03811115612ff4578182fd5b61300084828501612e29565b949350505050565b6000602080838503121561301a578182fd5b82516001600160401b0381111561302f578283fd5b8301601f8101851361303f578283fd5b805161304d612e49826133a4565b80828252848201915084840188868560051b870101111561306c578687fd5b8694505b8385101561308e578051835260019490940193918501918501613070565b50979650505050505050565b600080604083850312156130ac578182fd5b82356001600160401b03808211156130c2578384fd5b6130ce86838701612e29565b935060208501359150808211156130e3578283fd5b506130f085828601612e29565b9150509250929050565b60006020828403121561310b578081fd5b81518015158114611463578182fd5b60006020828403121561312b578081fd5b5035919050565b600060208284031215613143578081fd5b5051919050565b6000806040838503121561315c578182fd5b50508035926020909101359150565b60008060008060808587031215613180578081fd5b5050823594602084013594506040840135936060013592509050565b6000815180845260208085019450808401835b838110156131cb578151875295820195908201906001016131af565b509495945050505050565b6001600160a01b0391909116815260200190565b6001600160a01b039384168152919092166020820152604081019190915260600190565b6001600160a01b03929092168252602082015260400190565b604080825283519082018190526000906020906060840190828701845b828110156132695781516001600160a01b031684529284019290840190600101613244565b5050508381038285015261327d818661319c565b9695505050505050565b60408152600061329a604083018561319c565b82810360208401526132ac818561319c565b95945050505050565b6000602080835283518082850152825b818110156132e1578581018301518582016040015282016132c5565b818111156132f25783604083870101525b50601f01601f1916929092016040019392505050565b60208082526007908201526609edcd8f24084960cb1b604082015260600190565b6020808252602b908201527f496e697469616c697a61626c653a20636f6e7472616374206973206e6f74206960408201526a6e697469616c697a696e6760a81b606082015260800190565b604051601f8201601f191681016001600160401b038111828210171561339c5761339c6135cb565b604052919050565b60006001600160401b038211156133bd576133bd6135cb565b5060051b60200190565b600082198211156133da576133da6135b5565b500190565b6000826133fa57634e487b7160e01b81526012600452602481fd5b500490565b600181815b8085111561343a578160001904821115613420576134206135b5565b8085161561342d57918102915b93841c9390800290613404565b509250929050565b60006114638383600082613458575060016107a3565b81613465575060006107a3565b816001811461347b5760028114613485576134a1565b60019150506107a3565b60ff841115613496576134966135b5565b50506001821b6107a3565b5060208310610133831016604e8410600b84101617156134c4575081810a6107a3565b6134ce83836133ff565b80600019048211156134e2576134e26135b5565b029392505050565b6000816000190483118215151615613504576135046135b5565b500290565b60008083128015600160ff1b850184121615613527576135276135b5565b6001600160ff1b0384018313811615613542576135426135b5565b50500390565b60008282101561355a5761355a6135b5565b500390565b600181811c9082168061357357607f821691505b6020821081141561359457634e487b7160e01b600052602260045260246000fd5b50919050565b60006000198214156135ae576135ae6135b5565b5060010190565b634e487b7160e01b600052601160045260246000fd5b634e487b7160e01b600052604160045260246000fd5b6001600160a01b038116811461092e57600080fdfeddf252ad1be2c89b69c2b068fc378daa952ba7f163c4a11628f55a4df523b3efa264697066735822122001765b99ac651a4f3843234dd0652eb7f690ab5f81550946791d83598281d03464736f6c63430008040033",
  "linkReferences": {},
  "deployedLinkReferences": {}
}