{
  "_format": "hh-sol-artifact-1",
  "contractName": "BH_HouseT",
  "sourceName": "contracts/BH_HouseT.sol",
  "abi": [
    {
      "anonymous": false,
      "inputs": [
        {
          "indexed": true,
          "internalType": "address",
          "name": "owner",
          "type": "address"
        },
        {
          "indexed": true,
          "internalType": "address",
          "name": "approved",
          "type": "address"
        },
        {
          "indexed": true,
          "internalType": "uint256",
          "name": "tokenId",
          "type": "uint256"
        }
      ],
      "name": "Approval",
      "type": "event"
    },
    {
      "anonymous": false,
      "inputs": [
        {
          "indexed": true,
          "internalType": "address",
          "name": "owner",
          "type": "address"
        },
        {
          "indexed": true,
          "internalType": "address",
          "name": "operator",
          "type": "address"
        },
        {
          "indexed": false,
          "internalType": "bool",
          "name": "approved",
          "type": "bool"
        }
      ],
      "name": "ApprovalForAll",
      "type": "event"
    },
    {
      "anonymous": false,
      "inputs": [
        {
          "indexed": false,
          "internalType": "uint8",
          "name": "version",
          "type": "uint8"
        }
      ],
      "name": "Initialized",
      "type": "event"
    },
    {
      "anonymous": false,
      "inputs": [
        {
          "indexed": true,
          "internalType": "bytes32",
          "name": "role",
          "type": "bytes32"
        },
        {
          "indexed": true,
          "internalType": "bytes32",
          "name": "previousAdminRole",
          "type": "bytes32"
        },
        {
          "indexed": true,
          "internalType": "bytes32",
          "name": "newAdminRole",
          "type": "bytes32"
        }
      ],
      "name": "RoleAdminChanged",
      "type": "event"
    },
    {
      "anonymous": false,
      "inputs": [
        {
          "indexed": true,
          "internalType": "bytes32",
          "name": "role",
          "type": "bytes32"
        },
        {
          "indexed": true,
          "internalType": "address",
          "name": "account",
          "type": "address"
        },
        {
          "indexed": true,
          "internalType": "address",
          "name": "sender",
          "type": "address"
        }
      ],
      "name": "RoleGranted",
      "type": "event"
    },
    {
      "anonymous": false,
      "inputs": [
        {
          "indexed": true,
          "internalType": "bytes32",
          "name": "role",
          "type": "bytes32"
        },
        {
          "indexed": true,
          "internalType": "address",
          "name": "account",
          "type": "address"
        },
        {
          "indexed": true,
          "internalType": "address",
          "name": "sender",
          "type": "address"
        }
      ],
      "name": "RoleRevoked",
      "type": "event"
    },
    {
      "anonymous": false,
      "inputs": [
        {
          "indexed": true,
          "internalType": "address",
          "name": "from",
          "type": "address"
        },
        {
          "indexed": true,
          "internalType": "address",
          "name": "to",
          "type": "address"
        },
        {
          "indexed": true,
          "internalType": "uint256",
          "name": "tokenId",
          "type": "uint256"
        }
      ],
      "name": "Transfer",
      "type": "event"
    },
    {
      "inputs": [],
      "name": "ADMIN_ROLE",
      "outputs": [
        {
          "internalType": "bytes32",
          "name": "",
          "type": "bytes32"
        }
      ],
      "stateMutability": "view",
      "type": "function"
    },
    {
      "inputs": [
        {
          "internalType": "uint256",
          "name": "HouseT_tokenID",
          "type": "uint256"
        },
        {
          "internalType": "uint256",
          "name": "amount",
          "type": "uint256"
        }
      ],
      "name": "Add_HouseT_entilted_amount",
      "outputs": [],
      "stateMutability": "nonpayable",
      "type": "function"
    },
    {
      "inputs": [
        {
          "internalType": "uint256[]",
          "name": "HouseT_tokenIDs",
          "type": "uint256[]"
        },
        {
          "internalType": "uint256[]",
          "name": "amounts",
          "type": "uint256[]"
        }
      ],
      "name": "Add_HouseT_entilted_amount_batch",
      "outputs": [],
      "stateMutability": "nonpayable",
      "type": "function"
    },
    {
      "inputs": [
        {
          "internalType": "address",
          "name": "",
          "type": "address"
        }
      ],
      "name": "Allowed_addresses_unlimited",
      "outputs": [
        {
          "internalType": "bool",
          "name": "",
          "type": "bool"
        }
      ],
      "stateMutability": "view",
      "type": "function"
    },
    {
      "inputs": [],
      "name": "BHFungibleBlockhouse_contract_address",
      "outputs": [
        {
          "internalType": "address",
          "name": "",
          "type": "address"
        }
      ],
      "stateMutability": "view",
      "type": "function"
    },
    {
      "inputs": [],
      "name": "BHMarketplace_contract_address",
      "outputs": [
        {
          "internalType": "address",
          "name": "",
          "type": "address"
        }
      ],
      "stateMutability": "view",
      "type": "function"
    },
    {
      "inputs": [],
      "name": "BH_ROLE",
      "outputs": [
        {
          "internalType": "bytes32",
          "name": "",
          "type": "bytes32"
        }
      ],
      "stateMutability": "view",
      "type": "function"
    },
    {
      "inputs": [
        {
          "internalType": "uint256",
          "name": "HouseT_token_ID",
          "type": "uint256"
        },
        {
          "internalType": "uint256",
          "name": "amount",
          "type": "uint256"
        }
      ],
      "name": "Change_HouseT_Generated_amount",
      "outputs": [],
      "stateMutability": "nonpayable",
      "type": "function"
    },
    {
      "inputs": [
        {
          "internalType": "address",
          "name": "_address",
          "type": "address"
        },
        {
          "internalType": "uint256",
          "name": "amount",
          "type": "uint256"
        }
      ],
      "name": "Change_HouseT_Generated_amount_per_user",
      "outputs": [],
      "stateMutability": "nonpayable",
      "type": "function"
    },
    {
      "inputs": [
        {
          "internalType": "address",
          "name": "_address",
          "type": "address"
        },
        {
          "internalType": "uint256",
          "name": "amount",
          "type": "uint256"
        }
      ],
      "name": "Change_HouseT_owner_entilted_amount",
      "outputs": [],
      "stateMutability": "nonpayable",
      "type": "function"
    },
    {
      "inputs": [],
      "name": "DEFAULT_ADMIN_ROLE",
      "outputs": [
        {
          "internalType": "bytes32",
          "name": "",
          "type": "bytes32"
        }
      ],
      "stateMutability": "view",
      "type": "function"
    },
    {
      "inputs": [
        {
          "internalType": "address",
          "name": "",
          "type": "address"
        }
      ],
      "name": "Entilted_amount",
      "outputs": [
        {
          "internalType": "uint256",
          "name": "",
          "type": "uint256"
        }
      ],
      "stateMutability": "view",
      "type": "function"
    },
    {
      "inputs": [
        {
          "internalType": "uint256",
          "name": "",
          "type": "uint256"
        }
      ],
      "name": "Generated_profit_per_panel",
      "outputs": [
        {
          "internalType": "uint256",
          "name": "",
          "type": "uint256"
        }
      ],
      "stateMutability": "view",
      "type": "function"
    },
    {
      "inputs": [
        {
          "internalType": "address",
          "name": "",
          "type": "address"
        }
      ],
      "name": "Generated_profit_per_user",
      "outputs": [
        {
          "internalType": "uint256",
          "name": "",
          "type": "uint256"
        }
      ],
      "stateMutability": "view",
      "type": "function"
    },
    {
      "inputs": [
        {
          "internalType": "address",
          "name": "_address",
          "type": "address"
        }
      ],
      "name": "HouseT_IDs_of",
      "outputs": [
        {
          "internalType": "uint256[]",
          "name": "",
          "type": "uint256[]"
        }
      ],
      "stateMutability": "view",
      "type": "function"
    },
    {
      "inputs": [
        {
          "internalType": "uint256",
          "name": "",
          "type": "uint256"
        }
      ],
      "name": "Last_update_HouseT",
      "outputs": [
        {
          "internalType": "uint256",
          "name": "",
          "type": "uint256"
        }
      ],
      "stateMutability": "view",
      "type": "function"
    },
    {
      "inputs": [
        {
          "internalType": "address",
          "name": "",
          "type": "address"
        }
      ],
      "name": "Last_update_address",
      "outputs": [
        {
          "internalType": "uint256",
          "name": "",
          "type": "uint256"
        }
      ],
      "stateMutability": "view",
      "type": "function"
    },
    {
      "inputs": [
        {
          "internalType": "address",
          "name": "",
          "type": "address"
        }
      ],
      "name": "Owner_names",
      "outputs": [
        {
          "internalType": "string",
          "name": "",
          "type": "string"
        }
      ],
      "stateMutability": "view",
      "type": "function"
    },
    {
      "inputs": [],
      "name": "USDC_contract_address",
      "outputs": [
        {
          "internalType": "address",
          "name": "",
          "type": "address"
        }
      ],
      "stateMutability": "view",
      "type": "function"
    },
    {
      "inputs": [
        {
          "internalType": "address",
          "name": "",
          "type": "address"
        }
      ],
      "name": "Withdrawn_amount",
      "outputs": [
        {
          "internalType": "uint256",
          "name": "",
          "type": "uint256"
        }
      ],
      "stateMutability": "view",
      "type": "function"
    },
    {
      "inputs": [
        {
          "internalType": "address",
          "name": "_address",
          "type": "address"
        }
      ],
      "name": "add_unlimted_HouseT_allowance",
      "outputs": [],
      "stateMutability": "nonpayable",
      "type": "function"
    },
    {
      "inputs": [
        {
          "internalType": "address",
          "name": "to",
          "type": "address"
        },
        {
          "internalType": "uint256",
          "name": "tokenId",
          "type": "uint256"
        }
      ],
      "name": "approve",
      "outputs": [],
      "stateMutability": "nonpayable",
      "type": "function"
    },
    {
      "inputs": [
        {
          "internalType": "uint256",
          "name": "House_tokenID",
          "type": "uint256"
        }
      ],
      "name": "approve_listing",
      "outputs": [],
      "stateMutability": "nonpayable",
      "type": "function"
    },
    {
      "inputs": [
        {
          "internalType": "uint256[]",
          "name": "House_tokenIDs",
          "type": "uint256[]"
        }
      ],
      "name": "approve_listing_batch",
      "outputs": [],
      "stateMutability": "nonpayable",
      "type": "function"
    },
    {
      "inputs": [
        {
          "internalType": "uint256",
          "name": "House_tokenID",
          "type": "uint256"
        }
      ],
      "name": "approve_staking",
      "outputs": [],
      "stateMutability": "nonpayable",
      "type": "function"
    },
    {
      "inputs": [
        {
          "internalType": "uint256[]",
          "name": "House_tokenIDs",
          "type": "uint256[]"
        }
      ],
      "name": "approve_staking_batch",
      "outputs": [],
      "stateMutability": "nonpayable",
      "type": "function"
    },
    {
      "inputs": [
        {
          "internalType": "address",
          "name": "owner",
          "type": "address"
        }
      ],
      "name": "balanceOf",
      "outputs": [
        {
          "internalType": "uint256",
          "name": "",
          "type": "uint256"
        }
      ],
      "stateMutability": "view",
      "type": "function"
    },
    {
      "inputs": [
        {
          "internalType": "uint256",
          "name": "House_tokenID",
          "type": "uint256"
        }
      ],
      "name": "burn",
      "outputs": [],
      "stateMutability": "nonpayable",
      "type": "function"
    },
    {
      "inputs": [],
      "name": "burned_HouseT",
      "outputs": [
        {
          "internalType": "uint256",
          "name": "",
          "type": "uint256"
        }
      ],
      "stateMutability": "view",
      "type": "function"
    },
    {
      "inputs": [
        {
          "internalType": "uint256",
          "name": "_max_House_amount",
          "type": "uint256"
        }
      ],
      "name": "change_max_HouseT_amount",
      "outputs": [],
      "stateMutability": "nonpayable",
      "type": "function"
    },
    {
      "inputs": [
        {
          "internalType": "bool",
          "name": "_use_whitelist",
          "type": "bool"
        }
      ],
      "name": "change_using_whitelist",
      "outputs": [],
      "stateMutability": "nonpayable",
      "type": "function"
    },
    {
      "inputs": [
        {
          "internalType": "address",
          "name": "_address",
          "type": "address"
        }
      ],
      "name": "check_current_profits",
      "outputs": [
        {
          "internalType": "uint256",
          "name": "",
          "type": "uint256"
        }
      ],
      "stateMutability": "view",
      "type": "function"
    },
    {
      "inputs": [
        {
          "internalType": "address",
          "name": "to_address",
          "type": "address"
        }
      ],
      "name": "distribute_profit",
      "outputs": [],
      "stateMutability": "nonpayable",
      "type": "function"
    },
    {
      "inputs": [],
      "name": "distribute_profits_to_all_address",
      "outputs": [],
      "stateMutability": "nonpayable",
      "type": "function"
    },
    {
      "inputs": [
        {
          "internalType": "uint256",
          "name": "tokenID",
          "type": "uint256"
        }
      ],
      "name": "exists",
      "outputs": [
        {
          "internalType": "bool",
          "name": "",
          "type": "bool"
        }
      ],
      "stateMutability": "view",
      "type": "function"
    },
    {
      "inputs": [
        {
          "internalType": "uint256",
          "name": "tokenId",
          "type": "uint256"
        }
      ],
      "name": "getApproved",
      "outputs": [
        {
          "internalType": "address",
          "name": "",
          "type": "address"
        }
      ],
      "stateMutability": "view",
      "type": "function"
    },
    {
      "inputs": [
        {
          "internalType": "bytes32",
          "name": "role",
          "type": "bytes32"
        }
      ],
      "name": "getRoleAdmin",
      "outputs": [
        {
          "internalType": "bytes32",
          "name": "",
          "type": "bytes32"
        }
      ],
      "stateMutability": "view",
      "type": "function"
    },
    {
      "inputs": [],
      "name": "get_HouseT_amount",
      "outputs": [
        {
          "internalType": "uint256",
          "name": "",
          "type": "uint256"
        }
      ],
      "stateMutability": "view",
      "type": "function"
    },
    {
      "inputs": [
        {
          "internalType": "uint256",
          "name": "HouseT_tokenID",
          "type": "uint256"
        }
      ],
      "name": "get_HouseT_ownerOf",
      "outputs": [
        {
          "internalType": "address",
          "name": "",
          "type": "address"
        }
      ],
      "stateMutability": "view",
      "type": "function"
    },
    {
      "inputs": [],
      "name": "get_all_HouseT_info",
      "outputs": [
        {
          "internalType": "address[]",
          "name": "",
          "type": "address[]"
        },
        {
          "internalType": "string[]",
          "name": "",
          "type": "string[]"
        },
        {
          "internalType": "bool[]",
          "name": "",
          "type": "bool[]"
        },
        {
          "internalType": "bool[]",
          "name": "",
          "type": "bool[]"
        },
        {
          "internalType": "uint256[][4]",
          "name": "",
          "type": "uint256[][4]"
        }
      ],
      "stateMutability": "view",
      "type": "function"
    },
    {
      "inputs": [],
      "name": "get_list_of_HouseT_owner",
      "outputs": [
        {
          "internalType": "address[]",
          "name": "",
          "type": "address[]"
        }
      ],
      "stateMutability": "view",
      "type": "function"
    },
    {
      "inputs": [
        {
          "internalType": "address",
          "name": "_address",
          "type": "address"
        }
      ],
      "name": "get_owned_HouseTs",
      "outputs": [
        {
          "internalType": "uint256",
          "name": "",
          "type": "uint256"
        }
      ],
      "stateMutability": "view",
      "type": "function"
    },
    {
      "inputs": [
        {
          "internalType": "bytes32",
          "name": "role",
          "type": "bytes32"
        },
        {
          "internalType": "address",
          "name": "account",
          "type": "address"
        }
      ],
      "name": "grantRole",
      "outputs": [],
      "stateMutability": "nonpayable",
      "type": "function"
    },
    {
      "inputs": [
        {
          "internalType": "bytes32",
          "name": "role",
          "type": "bytes32"
        },
        {
          "internalType": "address",
          "name": "account",
          "type": "address"
        }
      ],
      "name": "hasRole",
      "outputs": [
        {
          "internalType": "bool",
          "name": "",
          "type": "bool"
        }
      ],
      "stateMutability": "view",
      "type": "function"
    },
    {
      "inputs": [
        {
          "internalType": "address",
          "name": "owner_",
          "type": "address"
        },
        {
          "internalType": "address",
          "name": "_USDC_contract_address",
          "type": "address"
        },
        {
          "internalType": "address",
          "name": "_forwarder",
          "type": "address"
        },
        {
          "internalType": "bool",
          "name": "_use_whitelist",
          "type": "bool"
        }
      ],
      "name": "initialize",
      "outputs": [],
      "stateMutability": "nonpayable",
      "type": "function"
    },
    {
      "inputs": [
        {
          "internalType": "address",
          "name": "owner",
          "type": "address"
        },
        {
          "internalType": "address",
          "name": "operator",
          "type": "address"
        }
      ],
      "name": "isApprovedForAll",
      "outputs": [
        {
          "internalType": "bool",
          "name": "",
          "type": "bool"
        }
      ],
      "stateMutability": "view",
      "type": "function"
    },
    {
      "inputs": [
        {
          "internalType": "address",
          "name": "forwarder",
          "type": "address"
        }
      ],
      "name": "isTrustedForwarder",
      "outputs": [
        {
          "internalType": "bool",
          "name": "",
          "type": "bool"
        }
      ],
      "stateMutability": "view",
      "type": "function"
    },
    {
      "inputs": [
        {
          "internalType": "address",
          "name": "_address",
          "type": "address"
        }
      ],
      "name": "is_in_whitelist",
      "outputs": [
        {
          "internalType": "bool",
          "name": "",
          "type": "bool"
        }
      ],
      "stateMutability": "view",
      "type": "function"
    },
    {
      "inputs": [],
      "name": "is_using_whitelist",
      "outputs": [
        {
          "internalType": "bool",
          "name": "",
          "type": "bool"
        }
      ],
      "stateMutability": "view",
      "type": "function"
    },
    {
      "inputs": [],
      "name": "max_House_amount",
      "outputs": [
        {
          "internalType": "uint256",
          "name": "",
          "type": "uint256"
        }
      ],
      "stateMutability": "view",
      "type": "function"
    },
    {
      "inputs": [
        {
          "internalType": "address",
          "name": "_to",
          "type": "address"
        },
        {
          "internalType": "string",
          "name": "_tokenURI",
          "type": "string"
        }
      ],
      "name": "mint_HouseT",
      "outputs": [],
      "stateMutability": "nonpayable",
      "type": "function"
    },
    {
      "inputs": [
        {
          "internalType": "address",
          "name": "to",
          "type": "address"
        },
        {
          "internalType": "string[]",
          "name": "_tokenURIs",
          "type": "string[]"
        }
      ],
      "name": "mint_HouseT_batch",
      "outputs": [],
      "stateMutability": "nonpayable",
      "type": "function"
    },
    {
      "inputs": [
        {
          "internalType": "address",
          "name": "_to",
          "type": "address"
        },
        {
          "internalType": "string",
          "name": "_tokenURI",
          "type": "string"
        },
        {
          "internalType": "uint256",
          "name": "USD_book_value",
          "type": "uint256"
        },
        {
          "internalType": "uint256",
          "name": "remaining_payments",
          "type": "uint256"
        }
      ],
      "name": "mint_HouseT_with_info",
      "outputs": [],
      "stateMutability": "nonpayable",
      "type": "function"
    },
    {
      "inputs": [
        {
          "internalType": "address",
          "name": "_to",
          "type": "address"
        },
        {
          "internalType": "string[]",
          "name": "_tokenURIs",
          "type": "string[]"
        },
        {
          "internalType": "uint256[]",
          "name": "USD_book_values",
          "type": "uint256[]"
        },
        {
          "internalType": "uint256[]",
          "name": "remaining_payments",
          "type": "uint256[]"
        }
      ],
      "name": "mint_HouseT_with_info_batch",
      "outputs": [],
      "stateMutability": "nonpayable",
      "type": "function"
    },
    {
      "inputs": [],
      "name": "name",
      "outputs": [
        {
          "internalType": "string",
          "name": "",
          "type": "string"
        }
      ],
      "stateMutability": "view",
      "type": "function"
    },
    {
      "inputs": [
        {
          "internalType": "uint256",
          "name": "tokenId",
          "type": "uint256"
        }
      ],
      "name": "ownerOf",
      "outputs": [
        {
          "internalType": "address",
          "name": "",
          "type": "address"
        }
      ],
      "stateMutability": "view",
      "type": "function"
    },
    {
      "inputs": [
        {
          "internalType": "address",
          "name": "_address",
          "type": "address"
        }
      ],
      "name": "remove_unlimted_HouseT_allowance",
      "outputs": [],
      "stateMutability": "nonpayable",
      "type": "function"
    },
    {
      "inputs": [
        {
          "internalType": "bytes32",
          "name": "role",
          "type": "bytes32"
        },
        {
          "internalType": "address",
          "name": "account",
          "type": "address"
        }
      ],
      "name": "renounceRole",
      "outputs": [],
      "stateMutability": "nonpayable",
      "type": "function"
    },
    {
      "inputs": [
        {
          "internalType": "uint256",
          "name": "House_tokenID",
          "type": "uint256"
        },
        {
          "internalType": "address",
          "name": "_to",
          "type": "address"
        },
        {
          "internalType": "string",
          "name": "_tokenURI",
          "type": "string"
        }
      ],
      "name": "replace_HouseT",
      "outputs": [],
      "stateMutability": "nonpayable",
      "type": "function"
    },
    {
      "inputs": [
        {
          "internalType": "bytes32",
          "name": "role",
          "type": "bytes32"
        },
        {
          "internalType": "address",
          "name": "account",
          "type": "address"
        }
      ],
      "name": "revokeRole",
      "outputs": [],
      "stateMutability": "nonpayable",
      "type": "function"
    },
    {
      "inputs": [
        {
          "internalType": "address",
          "name": "from",
          "type": "address"
        },
        {
          "internalType": "address",
          "name": "to",
          "type": "address"
        },
        {
          "internalType": "uint256",
          "name": "tokenId",
          "type": "uint256"
        }
      ],
      "name": "safeTransferFrom",
      "outputs": [],
      "stateMutability": "nonpayable",
      "type": "function"
    },
    {
      "inputs": [
        {
          "internalType": "address",
          "name": "from",
          "type": "address"
        },
        {
          "internalType": "address",
          "name": "to",
          "type": "address"
        },
        {
          "internalType": "uint256",
          "name": "tokenId",
          "type": "uint256"
        },
        {
          "internalType": "bytes",
          "name": "data",
          "type": "bytes"
        }
      ],
      "name": "safeTransferFrom",
      "outputs": [],
      "stateMutability": "nonpayable",
      "type": "function"
    },
    {
      "inputs": [
        {
          "internalType": "address",
          "name": "operator",
          "type": "address"
        },
        {
          "internalType": "bool",
          "name": "approved",
          "type": "bool"
        }
      ],
      "name": "setApprovalForAll",
      "outputs": [],
      "stateMutability": "nonpayable",
      "type": "function"
    },
    {
      "inputs": [
        {
          "internalType": "bytes4",
          "name": "interfaceId",
          "type": "bytes4"
        }
      ],
      "name": "supportsInterface",
      "outputs": [
        {
          "internalType": "bool",
          "name": "",
          "type": "bool"
        }
      ],
      "stateMutability": "view",
      "type": "function"
    },
    {
      "inputs": [],
      "name": "symbol",
      "outputs": [
        {
          "internalType": "string",
          "name": "",
          "type": "string"
        }
      ],
      "stateMutability": "view",
      "type": "function"
    },
    {
      "inputs": [
        {
          "internalType": "uint256",
          "name": "index",
          "type": "uint256"
        }
      ],
      "name": "tokenByIndex",
      "outputs": [
        {
          "internalType": "uint256",
          "name": "",
          "type": "uint256"
        }
      ],
      "stateMutability": "view",
      "type": "function"
    },
    {
      "inputs": [
        {
          "internalType": "address",
          "name": "owner",
          "type": "address"
        },
        {
          "internalType": "uint256",
          "name": "index",
          "type": "uint256"
        }
      ],
      "name": "tokenOfOwnerByIndex",
      "outputs": [
        {
          "internalType": "uint256",
          "name": "",
          "type": "uint256"
        }
      ],
      "stateMutability": "view",
      "type": "function"
    },
    {
      "inputs": [
        {
          "internalType": "uint256",
          "name": "tokenId",
          "type": "uint256"
        }
      ],
      "name": "tokenURI",
      "outputs": [
        {
          "internalType": "string",
          "name": "",
          "type": "string"
        }
      ],
      "stateMutability": "view",
      "type": "function"
    },
    {
      "inputs": [],
      "name": "totalSupply",
      "outputs": [
        {
          "internalType": "uint256",
          "name": "",
          "type": "uint256"
        }
      ],
      "stateMutability": "view",
      "type": "function"
    },
    {
      "inputs": [
        {
          "internalType": "address",
          "name": "from",
          "type": "address"
        },
        {
          "internalType": "address",
          "name": "to",
          "type": "address"
        },
        {
          "internalType": "uint256",
          "name": "tokenId",
          "type": "uint256"
        }
      ],
      "name": "transferFrom",
      "outputs": [],
      "stateMutability": "nonpayable",
      "type": "function"
    },
    {
      "inputs": [],
      "name": "trustedForwarder",
      "outputs": [
        {
          "internalType": "address",
          "name": "",
          "type": "address"
        }
      ],
      "stateMutability": "view",
      "type": "function"
    },
    {
      "inputs": [
        {
          "internalType": "uint256",
          "name": "_tokenID",
          "type": "uint256"
        },
        {
          "internalType": "string",
          "name": "_tokenURI",
          "type": "string"
        }
      ],
      "name": "update_URI",
      "outputs": [],
      "stateMutability": "nonpayable",
      "type": "function"
    },
    {
      "inputs": [
        {
          "internalType": "uint256[]",
          "name": "_tokenIDs",
          "type": "uint256[]"
        },
        {
          "internalType": "string[]",
          "name": "_tokenURIs",
          "type": "string[]"
        }
      ],
      "name": "update_URI_batch",
      "outputs": [],
      "stateMutability": "nonpayable",
      "type": "function"
    },
    {
      "inputs": [
        {
          "internalType": "address",
          "name": "_BHMarketplace_contract_address",
          "type": "address"
        },
        {
          "internalType": "address",
          "name": "_BHFungibleBlockhouse_contract_address",
          "type": "address"
        }
      ],
      "name": "update_addresses",
      "outputs": [],
      "stateMutability": "nonpayable",
      "type": "function"
    },
    {
      "inputs": [
        {
          "internalType": "address",
          "name": "forwarder_",
          "type": "address"
        }
      ],
      "name": "update_trusted_forwarder",
      "outputs": [],
      "stateMutability": "nonpayable",
      "type": "function"
    },
    {
      "inputs": [],
      "name": "versionRecipient",
      "outputs": [
        {
          "internalType": "string",
          "name": "",
          "type": "string"
        }
      ],
      "stateMutability": "view",
      "type": "function"
    },
    {
      "inputs": [],
      "name": "void",
      "outputs": [],
      "stateMutability": "nonpayable",
      "type": "function"
    },
    {
      "inputs": [
        {
          "internalType": "uint256",
          "name": "amount",
          "type": "uint256"
        }
      ],
      "name": "withdraw_USDC_funds",
      "outputs": [],
      "stateMutability": "nonpayable",
      "type": "function"
    },
    {
      "inputs": [],
      "name": "withdraw_all_USDC_funds",
      "outputs": [],
      "stateMutability": "nonpayable",
      "type": "function"
    },
    {
      "inputs": [],
      "name": "withdraw_profit",
      "outputs": [],
      "stateMutability": "nonpayable",
      "type": "function"
    }
  ],
  "bytecode": "0x608060405234801561001057600080fd5b50615a6580620000216000396000f3fe608060405234801561001057600080fd5b50600436106103905760003560e01c806301ffc9a7146103955780630287fa07146103bd57806306fdde03146103d2578063081812fc146103e7578063095ea7b3146104075780630a0d74971461041a578063110c29341461042d578063118a40231461044057806318160ddd14610463578063187760df1461046b5780631a136ed61461047e5780631a3a56cc1461049157806321a20dca146104a657806323b872dd146104ba578063248a9ca3146104cd5780632c9f7f92146104e05780632f2ff15d146104e85780632f745c59146104fb5780633047f6ed1461050e57806336568abe146105185780633ba9b29a1461052b5780633f86c3481461054c578063426c840c1461055f57806342842e0e1461056757806342966c681461057a57806342ab882a1461058d57806346be6d79146105a0578063486ff0cd146105b35780634f558e79146105bb5780634f6ccce7146105ce57806354cc825e146105e1578063572b6c05146105f4578063633ab2fe146106075780636352211e146106315780636513aab7146106445780636847cd4b1461065757806370a082311461066a578063710ac84b1461067d578063731c75001461069d57806375b238fc146106b05780637901a8e9146106c55780637c3f7fc2146106e65780637d48f2a0146106f95780637da0a8771461071a5780637ff2767b1461072b57806381a52e7f1461073f578063865049fa146107475780638b61b4fb1461075a5780638d53171f1461076d57806391d148541461078e57806395d89b41146107a1578063982f9848146107a9578063a217fddf146107bc578063a22cb465146107c4578063a47718b2146107d7578063a59783ae146107f8578063a9f7841c14610802578063ab69b59614610815578063ac4c25b2146103d0578063ac70914514610828578063accea88c1461083c578063b80fb7cf1461084f578063b88d4fde14610873578063c0976c5814610886578063c3edfa231461088e578063c87b56dd146108af578063d0c71238146108c2578063d18c3e87146108d5578063d45da899146108e8578063d547741f146108fb578063e099425e1461090e578063e1a76bda14610927578063e23e82911461093a578063e985e9c51461094d578063ee0959d814610960578063ee943fb41461096c578063f0c1ac4d1461097f578063f7ceb69214610992578063fecf9734146109a5578063fef55771146109b8575b600080fd5b6103a86103a33660046151b5565b6109cb565b60405190151581526020015b60405180910390f35b6103d06103cb366004614f98565b6109dc565b005b6103da610a63565b6040516103b49190615599565b6103fa6103f5366004615179565b610af5565b6040516103b4919061545b565b6103d0610415366004615038565b610b1c565b6103d0610428366004615179565b610c3f565b6103da61043b366004614d0d565b610c7b565b6104556000805160206159d083398151915281565b6040519081526020016103b4565b60fd54610455565b6103d0610479366004614d0d565b610d16565b6103d061048c366004615095565b610d6e565b610499610e22565b6040516103b491906154c5565b61012d546103fa906001600160a01b031681565b6103d06104c8366004614dd8565b610fa0565b6104556104db366004615179565b610fd8565b6103d0610fed565b6103d06104f6366004615191565b61116a565b610455610509366004615038565b611186565b6104556101445481565b6103d0610526366004615191565b61121c565b610455610539366004614d0d565b6101366020526000908152604090205481565b6103d061055a366004614fdb565b6112aa565b6103d06113c9565b6103d0610575366004614dd8565b611568565b6103d0610588366004615179565b611583565b6103d061059b366004614d0d565b6115c9565b6103fa6105ae366004615179565b611624565b6103da6116ce565b6103a86105c9366004615179565b6116dc565b6104556105dc366004615179565b6116e7565b6103d06105ef366004615038565b611788565b6103a8610602366004614d0d565b6117db565b610455610615366004614d0d565b6001600160a01b03166000908152610135602052604090205490565b6103fa61063f366004615179565b6117ef565b6103d0610652366004614ee1565b611823565b6103d0610665366004615205565b6119e4565b610455610678366004614d0d565b611aeb565b61069061068b366004614d0d565b611b71565b6040516103b49190615586565b6103d06106ab366004615179565b611c2e565b610455600080516020615a1083398151915281565b6104556106d3366004614d0d565b6101396020526000908152604090205481565b6103d06106f4366004615289565b611e10565b610455610707366004615179565b61013a6020526000908152604090205481565b6000546001600160a01b03166103fa565b610133546103fa906001600160a01b031681565b6103d0611e67565b6103d0610755366004615038565b611ffb565b6103d061076836600461525b565b61205c565b61045561077b366004614d0d565b6101386020526000908152604090205481565b6103a861079c366004615191565b61209c565b6103da6120c7565b6103d06107b7366004614d45565b6120d6565b610455600081565b6103d06107d2366004614f6b565b6122b1565b6104556107e5366004614d0d565b6101356020526000908152604090205481565b6104556101415481565b6103a8610810366004614d0d565b6122c3565b6103d0610823366004614d0d565b6122d2565b610134546103fa906001600160a01b031681565b6103d061084a366004615141565b612314565b6103a861085d366004614d0d565b6101456020526000908152604090205460ff1681565b6103d0610881366004614e18565b61235e565b610455612397565b61045561089c366004615179565b6101376020526000908152604090205481565b6103da6108bd366004615179565b6123a8565b6103d06108d0366004615179565b6123b3565b6103d06108e3366004614d0d565b6123f3565b6103d06108f6366004615063565b6124db565b6103d0610909366004615191565b612560565b61091661257c565b6040516103b49594939291906154d8565b6103d06109353660046150eb565b612cfc565b6103d0610948366004615063565b612d74565b6103a861095b366004614d45565b612dec565b6101425460ff166103a8565b61045561097a366004614d0d565b612e1a565b6103d061098d366004615289565b612f54565b6103d06109a0366004615179565b613179565b6103d06109b3366004614d7d565b6131b9565b6103d06109c6366004614e94565b613729565b60006109d6826137a3565b92915050565b6109f66000805160206159d083398151915261079c6137c8565b610a1b5760405162461bcd60e51b8152600401610a1290615766565b60405180910390fd5b6000610a276101405490565b9050610a3383826137d2565b610a3d81836138db565b600081815261013a60205260409020429055610a5e61014080546001019055565b505050565b606060978054610a7290615914565b80601f0160208091040260200160405190810160405280929190818152602001828054610a9e90615914565b8015610aeb5780601f10610ac057610100808354040283529160200191610aeb565b820191906000526020600020905b815481529060010190602001808311610ace57829003601f168201915b5050505050905090565b6000610b0082613966565b506000908152609b60205260409020546001600160a01b031690565b6000610b27826117ef565b9050806001600160a01b0316836001600160a01b03161415610b955760405162461bcd60e51b815260206004820152602160248201527f4552433732313a20617070726f76616c20746f2063757272656e74206f776e656044820152603960f91b6064820152608401610a12565b806001600160a01b0316610ba76137c8565b6001600160a01b03161480610bc35750610bc38161095b6137c8565b610c355760405162461bcd60e51b815260206004820152603d60248201527f4552433732313a20617070726f76652063616c6c6572206973206e6f7420746f60448201527f6b656e206f776e6572206f7220617070726f76656420666f7220616c6c0000006064820152608401610a12565b610a5e838361398b565b610c59600080516020615a1083398151915261079c6137c8565b610c755760405162461bcd60e51b8152600401610a129061570d565b61014455565b61013f6020526000908152604090208054610c9590615914565b80601f0160208091040260200160405190810160405280929190818152602001828054610cc190615914565b8015610d0e5780601f10610ce357610100808354040283529160200191610d0e565b820191906000526020600020905b815481529060010190602001808311610cf157829003601f168201915b505050505081565b610d30600080516020615a1083398151915261079c6137c8565b610d4c5760405162461bcd60e51b8152600401610a129061570d565b6001600160a01b0316600090815261014560205260409020805460ff19169055565b610d886000805160206159d083398151915261079c6137c8565b610da45760405162461bcd60e51b8152600401610a1290615766565b80516000905b80821015610e1c57610e0a848381518110610dd557634e487b7160e01b600052603260045260246000fd5b6020026020010151848481518110610dfd57634e487b7160e01b600052603260045260246000fd5b60200260200101516138db565b81610e148161594f565b925050610daa565b50505050565b60606000610e306101405490565b90506000816001600160401b03811115610e5a57634e487b7160e01b600052604160045260246000fd5b604051908082528060200260200182016040528015610e83578160200160208202803683370190505b50905060005b82811015610f9957610e9a816139f9565b15610f87576000610eaa826117ef565b610133549091506001600160a01b0380831691161415610f445761013354604051635048d7a560e01b8152600481018490526001600160a01b0390911690635048d7a59060240160206040518083038186803b158015610f0957600080fd5b505afa158015610f1d573d6000803e3d6000fd5b505050506040513d601f19601f82011682018060405250810190610f419190614d29565b90505b80838381518110610f6557634e487b7160e01b600052603260045260246000fd5b60200260200101906001600160a01b031690816001600160a01b031681525050505b80610f918161594f565b915050610e89565b5092915050565b610fb1610fab6137c8565b82613a16565b610fcd5760405162461bcd60e51b8152600401610a12906155ac565b610a5e838383613a75565b60009081526065602052604090206001015490565b6101425460ff16151560011415611025576110096108106137c8565b6110255760405162461bcd60e51b8152600401610a12906156c6565b600061102f6137c8565b6001600160a01b03811660009081526101356020526040902054909150806110a45760405162461bcd60e51b815260206004820152602260248201527f596f7520646f6e74206861766520616e79205553444320746f20776974686472604482015261617760f01b6064820152608401610a12565b61012d5460405163a9059cbb60e01b81526001600160a01b039091169063a9059cbb906110d790859085906004016154ac565b602060405180830381600087803b1580156110f157600080fd5b505af1158015611105573d6000803e3d6000fd5b505050506040513d601f19601f82011682018060405250810190611129919061515d565b506001600160a01b03821660009081526101356020908152604080832083905561013690915281208054839290611161908490615883565b90915550505050565b61117382610fd8565b61117c81613bd4565b610a5e8383613be5565b600061119183611aeb565b82106111f35760405162461bcd60e51b815260206004820152602b60248201527f455243373231456e756d657261626c653a206f776e657220696e646578206f7560448201526a74206f6620626f756e647360a81b6064820152608401610a12565b506001600160a01b0391909116600090815260fb60209081526040808320938352929052205490565b6112246137c8565b6001600160a01b0316816001600160a01b03161461129c5760405162461bcd60e51b815260206004820152602f60248201527f416363657373436f6e74726f6c3a2063616e206f6e6c792072656e6f756e636560448201526e103937b632b9903337b91039b2b63360891b6064820152608401610a12565b6112a68282613c6c565b5050565b6112c46000805160206159d083398151915261079c6137c8565b6112e05760405162461bcd60e51b8152600401610a1290615766565b60006112ec6101405490565b90506112f885856109dc565b610134546040516320ed24cf60e11b81526001600160a01b03909116906341da499e9061132b9084908790600401615822565b600060405180830381600087803b15801561134557600080fd5b505af1158015611359573d6000803e3d6000fd5b505061013454604051634afc5a5d60e11b81526001600160a01b0390911692506395f8b4ba91506113909084908690600401615822565b600060405180830381600087803b1580156113aa57600080fd5b505af11580156113be573d6000803e3d6000fd5b505050505050505050565b6113e36000805160206159d083398151915261079c6137c8565b6113ff5760405162461bcd60e51b8152600401610a1290615766565b6000611409610e22565b8051909150600060015b82821015610e1c57600084838151811061143d57634e487b7160e01b600052603260045260246000fd5b60209081029190910101516101425490915060ff1615156001141561146a576114676108106137c8565b91505b8115611555576001600160a01b0381166000908152610135602052604090205480156115175761012d5460405163a9059cbb60e01b81526001600160a01b039091169063a9059cbb906114c390859085906004016154ac565b602060405180830381600087803b1580156114dd57600080fd5b505af11580156114f1573d6000803e3d6000fd5b505050506040513d601f19601f82011682018060405250810190611515919061515d565b505b6001600160a01b0382166000908152610135602090815260408083208390556101369091528120805483929061154e908490615883565b9091555050505b50816115608161594f565b925050611413565b610a5e8383836040518060200160405280600081525061235e565b61158e610fab6137c8565b6115aa5760405162461bcd60e51b8152600401610a12906157d2565b6115b381613cf1565b610141546115c2906001615883565b6101415550565b6115e3600080516020615a1083398151915261079c6137c8565b6115ff5760405162461bcd60e51b8152600401610a129061570d565b6001600160a01b0316600090815261014560205260409020805460ff19166001179055565b600080611630836117ef565b610133549091506001600160a01b03808316911614156109d65761013354604051635048d7a560e01b8152600481018590526001600160a01b0390911690635048d7a59060240160206040518083038186803b15801561168f57600080fd5b505afa1580156116a3573d6000803e3d6000fd5b505050506040513d601f19601f820116820180604052508101906116c79190614d29565b9392505050565b6101438054610c9590615914565b60006109d6826139f9565b60006116f260fd5490565b82106117555760405162461bcd60e51b815260206004820152602c60248201527f455243373231456e756d657261626c653a20676c6f62616c20696e646578206f60448201526b7574206f6620626f756e647360a01b6064820152608401610a12565b60fd828154811061177657634e487b7160e01b600052603260045260246000fd5b90600052602060002001549050919050565b6117a26000805160206159d083398151915261079c6137c8565b6117be5760405162461bcd60e51b8152600401610a1290615766565b6001600160a01b0390911660009081526101386020526040902055565b6000546001600160a01b0391821691161490565b6000806117fb83613cfa565b90506001600160a01b0381166109d65760405162461bcd60e51b8152600401610a1290615734565b61183d6000805160206159d083398151915261079c6137c8565b6118595760405162461bcd60e51b8152600401610a1290615766565b82516000905b808210156119dc5760006118736101405490565b90506118a68787858151811061189957634e487b7160e01b600052603260045260246000fd5b60200260200101516109dc565b6101345485516001600160a01b03909116906341da499e9083908890879081106118e057634e487b7160e01b600052603260045260246000fd5b60200260200101516040518363ffffffff1660e01b8152600401611905929190615822565b600060405180830381600087803b15801561191f57600080fd5b505af1158015611933573d6000803e3d6000fd5b50506101345486516001600160a01b0390911692506395f8b4ba9150839087908790811061197157634e487b7160e01b600052603260045260246000fd5b60200260200101516040518363ffffffff1660e01b8152600401611996929190615822565b600060405180830381600087803b1580156119b057600080fd5b505af11580156119c4573d6000803e3d6000fd5b505050505081806119d49061594f565b92505061185f565b505050505050565b6119fe6000805160206159d083398151915261079c6137c8565b611a1a5760405162461bcd60e51b8152600401610a1290615766565b61014054831115611a795760405162461bcd60e51b8152602060048201526024808201527f596f752063616e206f6e6c79207265706c616365206578697374696e6720746f6044820152636b656e7360e01b6064820152608401610a12565b611a82836139f9565b15611ac257611a98611a926137c8565b84613a16565b611ab45760405162461bcd60e51b8152600401610a12906157d2565b611abd83613cf1565b611ad7565b600161014154611ad291906158ba565b610141555b611ae182846137d2565b610a5e83826138db565b60006001600160a01b038216611b555760405162461bcd60e51b815260206004820152602960248201527f4552433732313a2061646472657373207a65726f206973206e6f7420612076616044820152683634b21037bbb732b960b91b6064820152608401610a12565b506001600160a01b03166000908152609a602052604090205490565b60606000611b7e83611aeb565b90506000816001600160401b03811115611ba857634e487b7160e01b600052604160045260246000fd5b604051908082528060200260200182016040528015611bd1578160200160208202803683370190505b50905060005b82811015611c2657611be98582611186565b828281518110611c0957634e487b7160e01b600052603260045260246000fd5b602090810291909101015280611c1e8161594f565b915050611bd7565b509392505050565b611c48600080516020615a1083398151915261079c6137c8565b611c645760405162461bcd60e51b8152600401610a129061570d565b61012d546040516370a0823160e01b81526000916001600160a01b0316906370a0823190611c9690309060040161545b565b60206040518083038186803b158015611cae57600080fd5b505afa158015611cc2573d6000803e3d6000fd5b505050506040513d601f19601f82011682018060405250810190611ce691906151ed565b905060008211611d385760405162461bcd60e51b815260206004820152601e60248201527f416d6f756e742073686f756c6420626520686967686572207468616e203000006044820152606401610a12565b81811015611d865760405162461bcd60e51b815260206004820152601b60248201527a4e6f7420656e6f756768205553444320746f20776974686472617760281b6044820152606401610a12565b61012d546101315460405163a9059cbb60e01b81526001600160a01b039283169263a9059cbb92611dbe9291169086906004016154ac565b602060405180830381600087803b158015611dd857600080fd5b505af1158015611dec573d6000803e3d6000fd5b505050506040513d601f19601f82011682018060405250810190610a5e919061515d565b611e2a6000805160206159d083398151915261079c6137c8565b611e465760405162461bcd60e51b8152600401610a1290615766565b600091825261013a6020908152604080842042905561013790915290912055565b611e81600080516020615a1083398151915261079c6137c8565b611e9d5760405162461bcd60e51b8152600401610a129061570d565b61012d546040516370a0823160e01b81526000916001600160a01b0316906370a0823190611ecf90309060040161545b565b60206040518083038186803b158015611ee757600080fd5b505afa158015611efb573d6000803e3d6000fd5b505050506040513d601f19601f82011682018060405250810190611f1f91906151ed565b905060008111611f715760405162461bcd60e51b815260206004820152601d60248201527f43757272656e74205553444320666f756e64732061726520656d7074790000006044820152606401610a12565b61012d546101315460405163a9059cbb60e01b81526001600160a01b039283169263a9059cbb92611fa99291169085906004016154ac565b602060405180830381600087803b158015611fc357600080fd5b505af1158015611fd7573d6000803e3d6000fd5b505050506040513d601f19601f820116820180604052508101906112a6919061515d565b612015600080516020615a1083398151915261079c6137c8565b6120315760405162461bcd60e51b8152600401610a129061570d565b6001600160a01b03909116600090815261013960209081526040808320429055610135909152902055565b6120766000805160206159d083398151915261079c6137c8565b6120925760405162461bcd60e51b8152600401610a1290615766565b6112a682826138db565b60009182526065602090815260408084206001600160a01b0393909316845291905290205460ff1690565b606060988054610a7290615914565b610131546001600160a01b03166120eb6137c8565b6001600160a01b0316148061211b5750610132546001600160a01b03166121106137c8565b6001600160a01b0316145b80612141575061012e546001600160a01b03166121366137c8565b6001600160a01b0316145b80612167575061012f546001600160a01b031661215c6137c8565b6001600160a01b0316145b6121835760405162461bcd60e51b8152600401610a1290615766565b61013380546001600160a01b038085166001600160a01b031992831681179093556101348054918516919092161790556121c09061013b90613d15565b50610134546121db9061013b906001600160a01b0316613d15565b50604080518082018252600d81526c42484d61726b6574706c61636560981b6020808301918252610133546001600160a01b0316600090815261013f90915292909220905161222a9290614ab3565b506040805180820182526014815273424846756e6769626c65426c6f636b686f75736560601b6020808301918252610134546001600160a01b0316600090815261013f9091529290922090516122809290614ab3565b506122996000805160206159d083398151915283613d2a565b6112a66000805160206159d083398151915282613d2a565b6112a66122bc6137c8565b8383613d34565b6000806116c761013b84613dff565b6122ec600080516020615a1083398151915261079c6137c8565b6123085760405162461bcd60e51b8152600401610a129061570d565b61231181613e14565b50565b61232e600080516020615a1083398151915261079c6137c8565b61234a5760405162461bcd60e51b8152600401610a129061570d565b610142805460ff1916911515919091179055565b61236f6123696137c8565b83613a16565b61238b5760405162461bcd60e51b8152600401610a12906155ac565b610e1c84848484613e36565b60006123a36101405490565b905090565b60606109d682613e69565b6123bb6137c8565b6001600160a01b03166123cd826117ef565b6001600160a01b031614156123115761013454612311906001600160a01b031682610b1c565b61240d6000805160206159d083398151915261079c6137c8565b6124295760405162461bcd60e51b8152600401610a1290615766565b6101425460ff16151560011415612461576124456108106137c8565b6124615760405162461bcd60e51b8152600401610a12906156c6565b6001600160a01b03811660009081526101356020526040902054806110a45760405162461bcd60e51b815260206004820152602a60248201527f54686973207573657220646f65736e74206861766520616e79205553444320746044820152696f20776974686472617760b01b6064820152608401610a12565b80516000905b80821015610a5e5761251983838151811061250c57634e487b7160e01b600052603260045260246000fd5b60200260200101516139f9565b1561254e5761254e83838151811061254157634e487b7160e01b600052603260045260246000fd5b6020026020010151613179565b816125588161594f565b9250506124e1565b61256982610fd8565b61257281613bd4565b610a5e8383613c6c565b60608060608061258a614b37565b60006125966101405490565b90506000816001600160401b038111156125c057634e487b7160e01b600052604160045260246000fd5b6040519080825280602002602001820160405280156125e9578160200160208202803683370190505b5090506000826001600160401b0381111561261457634e487b7160e01b600052604160045260246000fd5b60405190808252806020026020018201604052801561264757816020015b60608152602001906001900390816126325790505b5090506000836001600160401b0381111561267257634e487b7160e01b600052604160045260246000fd5b60405190808252806020026020018201604052801561269b578160200160208202803683370190505b5090506000846001600160401b038111156126c657634e487b7160e01b600052604160045260246000fd5b6040519080825280602002602001820160405280156126ef578160200160208202803683370190505b5090506000856001600160401b0381111561271a57634e487b7160e01b600052604160045260246000fd5b604051908082528060200260200182016040528015612743578160200160208202803683370190505b5090506000866001600160401b0381111561276e57634e487b7160e01b600052604160045260246000fd5b604051908082528060200260200182016040528015612797578160200160208202803683370190505b5090506000876001600160401b038111156127c257634e487b7160e01b600052604160045260246000fd5b6040519080825280602002602001820160405280156127eb578160200160208202803683370190505b5090506000886001600160401b0381111561281657634e487b7160e01b600052604160045260246000fd5b60405190808252806020026020018201604052801561283f578160200160208202803683370190505b50905060005b89811015612ccb57612856816139f9565b15612cb9576000806000612869846117ef565b610133549091506001600160a01b03808316911614156129075761013354604051635048d7a560e01b8152600481018690526001600160a01b0390911690635048d7a59060240160206040518083038186803b1580156128c857600080fd5b505afa1580156128dc573d6000803e3d6000fd5b505050506040513d601f19601f820116820180604052508101906129009190614d29565b9050600191505b610134546001600160a01b03828116911614156129a25761013454604051635048d7a560e01b8152600481018690526001600160a01b0390911690635048d7a59060240160206040518083038186803b15801561296357600080fd5b505afa158015612977573d6000803e3d6000fd5b505050506040513d601f19601f8201168201806040525081019061299b9190614d29565b9050600192505b808c85815181106129c357634e487b7160e01b600052603260045260246000fd5b60200260200101906001600160a01b031690816001600160a01b0316815250506129ec846123a8565b8b8581518110612a0c57634e487b7160e01b600052603260045260246000fd5b6020026020010181905250818a8581518110612a3857634e487b7160e01b600052603260045260246000fd5b60200260200101901515908115158152505082898581518110612a6b57634e487b7160e01b600052603260045260246000fd5b9115156020928302919091019091015261013454604051631ba0340360e01b8152600481018690526001600160a01b0390911690631ba034039060240160206040518083038186803b158015612ac057600080fd5b505afa158015612ad4573d6000803e3d6000fd5b505050506040513d601f19601f82011682018060405250810190612af891906151ed565b888581518110612b1857634e487b7160e01b600052603260045260246000fd5b6020908102919091010152610134546040516335a16fc960e01b8152600481018690526001600160a01b03909116906335a16fc99060240160206040518083038186803b158015612b6857600080fd5b505afa158015612b7c573d6000803e3d6000fd5b505050506040513d601f19601f82011682018060405250810190612ba091906151ed565b858581518110612bc057634e487b7160e01b600052603260045260246000fd5b602090810291909101015261013354604051631f68041760e01b8152600481018690526001600160a01b0390911690631f6804179060240160206040518083038186803b158015612c1057600080fd5b505afa158015612c24573d6000803e3d6000fd5b505050506040513d601f19601f82011682018060405250810190612c4891906151ed565b878581518110612c6857634e487b7160e01b600052603260045260246000fd5b602002602001018181525050610137600085815260200190815260200160002054868581518110612ca957634e487b7160e01b600052603260045260246000fd5b6020026020010181815250505050505b80612cc38161594f565b915050612845565b50604080516080810182529485526020850193909352918301526060820152939a9299509097509550909350915050565b81516000905b80821015610e1c57612d62848381518110612d2d57634e487b7160e01b600052603260045260246000fd5b6020026020010151848481518110612d5557634e487b7160e01b600052603260045260246000fd5b6020026020010151612f54565b81612d6c8161594f565b925050612d02565b80516000905b80821015610a5e57612da583838151811061250c57634e487b7160e01b600052603260045260246000fd5b15612dda57612dda838381518110612dcd57634e487b7160e01b600052603260045260246000fd5b60200260200101516123b3565b81612de48161594f565b925050612d7a565b6001600160a01b039182166000908152609c6020908152604080832093909416825291909152205460ff1690565b600080612e2683611aeb565b61013354604051631ac312b560e31b81529192506000916001600160a01b039091169063d61895a890612e5d90879060040161545b565b60206040518083038186803b158015612e7557600080fd5b505afa158015612e89573d6000803e3d6000fd5b505050506040513d601f19601f82011682018060405250810190612ead91906151ed565b61013454604051631308f0d360e11b81529192506000916001600160a01b0390911690632611e1a690612ee490889060040161545b565b60206040518083038186803b158015612efc57600080fd5b505afa158015612f10573d6000803e3d6000fd5b505050506040513d601f19601f82011682018060405250810190612f3491906151ed565b905080612f418385615883565b612f4b9190615883565b95945050505050565b612f6e6000805160206159d083398151915261079c6137c8565b612f8a5760405162461bcd60e51b8152600401610a1290615766565b610130546001906001600160a01b0316612fa26137c8565b6001600160a01b03161415612fe257600083815261013a60205260409020546103e890612fcf90426158ba565b118015612fdf57506305f5e10082105b90505b8061304c5760405162461bcd60e51b815260206004820152603460248201527f4c61737420746f6b656e2075706461746520746f6f20736f6f6e2061676f206f6044820152731c88185b5bdd5b9d0818589bdd99481b1a5b5a5d60621b6064820152608401610a12565b600061305784611624565b600085815261013a6020908152604080832042908190556001600160a01b03851684526101398352818420556101359091528120805492935085929091906130a0908490615883565b909155505060008481526101376020526040812080548592906130c4908490615883565b90915550506001600160a01b03811660009081526101386020526040812080548592906130f2908490615883565b9091555050610134546001600160a01b0382811691161415610e1c57610134546040516323e19e8560e21b81526001600160a01b0390911690638f867a14906131419087908790600401615822565b600060405180830381600087803b15801561315b57600080fd5b505af115801561316f573d6000803e3d6000fd5b5050505050505050565b6131816137c8565b6001600160a01b0316613193826117ef565b6001600160a01b031614156123115761013354612311906001600160a01b031682610b1c565b600054600160a81b900460ff16158080156131e157506000546001600160a01b90910460ff16105b8061320957506131f030613f72565b1580156132095750600054600160a01b900460ff166001145b61326c5760405162461bcd60e51b815260206004820152602e60248201527f496e697469616c697a61626c653a20636f6e747261637420697320616c72656160448201526d191e481a5b9a5d1a585b1a5e995960921b6064820152608401610a12565b6000805460ff60a01b1916600160a01b1790558015613299576000805460ff60a81b1916600160a81b1790555b6132e36040518060400160405280600a8152602001692437bab9b2aa37b5b2b760b11b81525060405180604001604052806006815260200165121bdd5cd95560d21b815250613f81565b6132ec83613e14565b61012d80546001600160a01b038087166001600160a01b03199283161790925561012f8054821673e7e3e925e5dcfeaf5c5cebfbc6efd4b404b0e60790811790915561012e8054831673c117e7247be4830d169da13427311f59bd25d6691790556101308054831690911790556101318054928816929091169190911790556133736137c8565b61013280546001600160a01b0319166001600160a01b0392909216919091179055610142805460ff1916831515179055600261014455604080518082019091526005808252640322e322e360dc1b60209092019182526133d69161014391614ab3565b50604080518082018252600581526427bbb732b960d91b6020808301918252610131546001600160a01b0316600090815261013f90915292909220905161341d9290614ab3565b506040805180820182526009815268109217d21bdd5cd95560ba1b602080830191825230600090815261013f90915292909220905161345c9290614ab3565b506040805180820182526017815276417572656c69656e2050656c697373696572202842482960481b602080830191825261012e546001600160a01b0316600090815261013f9091529290922090516134b59290614ab3565b5060408051808201825260148152734a6f6e617468616e204c65686e6572202842482960601b602080830191825261012f546001600160a01b0316600090815261013f90915292909220905161350b9290614ab3565b5061351861013b30613d15565b5061012e546135339061013b906001600160a01b0316613d15565b5061012f5461354e9061013b906001600160a01b0316613d15565b50610131546135699061013b906001600160a01b0316613d15565b5061013180546001600160a01b03908116600090815261014560205260408082208054600160ff19918216811790925561012e5485168452828420805482168317905561012f5485168452919092208054909116909117905590546135de91600080516020615a108339815191529116613d2a565b61012f5461360490600080516020615a10833981519152906001600160a01b0316613d2a565b61012e5461362a90600080516020615a10833981519152906001600160a01b0316613d2a565b61013154613650906000805160206159d0833981519152906001600160a01b0316613d2a565b61012f54613676906000805160206159d0833981519152906001600160a01b0316613d2a565b61012e5461369c906000805160206159d0833981519152906001600160a01b0316613d2a565b610130546136c2906000805160206159d0833981519152906001600160a01b0316613d2a565b6136da6000805160206159d083398151915230613d2a565b8015613722576000805460ff60a81b19169055604051600181527f7f26b83ff96e1f2b6a682f133852f6798a09c465da95921460cefb38474024989060200160405180910390a15b5050505050565b6137436000805160206159d083398151915261079c6137c8565b61375f5760405162461bcd60e51b8152600401610a1290615766565b80516000905b80821015610e1c576137918484848151811061189957634e487b7160e01b600052603260045260246000fd5b8161379b8161594f565b925050613765565b60006001600160e01b0319821663780e9d6360e01b14806109d657506109d682613fb4565b60006123a3613ff4565b6001600160a01b0382166138285760405162461bcd60e51b815260206004820181905260248201527f4552433732313a206d696e7420746f20746865207a65726f20616464726573736044820152606401610a12565b613831816139f9565b1561384e5760405162461bcd60e51b8152600401610a1290615690565b61385c600083836001614022565b613865816139f9565b156138825760405162461bcd60e51b8152600401610a1290615690565b6001600160a01b0382166000818152609a6020908152604080832080546001019055848352609990915280822080546001600160a01b0319168417905551839291906000805160206159f0833981519152908290a45050565b6138e4826139f9565b6139475760405162461bcd60e51b815260206004820152602e60248201527f45524337323155524953746f726167653a2055524920736574206f66206e6f6e60448201526d32bc34b9ba32b73a103a37b5b2b760911b6064820152608401610a12565b600082815260c9602090815260409091208251610a5e92840190614ab3565b61396f816139f9565b6123115760405162461bcd60e51b8152600401610a1290615734565b6000818152609b6020526040902080546001600160a01b0319166001600160a01b03841690811790915581906139c0826117ef565b6001600160a01b03167f8c5be1e5ebec7d5bd14f71427d1e84f3dd0314c0f7b2291e5b200ac8c7c3b92560405160405180910390a45050565b600080613a0583613cfa565b6001600160a01b0316141592915050565b600080613a22836117ef565b9050806001600160a01b0316846001600160a01b03161480613a495750613a498185612dec565b80613a6d5750836001600160a01b0316613a6284610af5565b6001600160a01b0316145b949350505050565b826001600160a01b0316613a88826117ef565b6001600160a01b031614613aae5760405162461bcd60e51b8152600401610a129061564b565b6001600160a01b038216613b105760405162461bcd60e51b8152602060048201526024808201527f4552433732313a207472616e7366657220746f20746865207a65726f206164646044820152637265737360e01b6064820152608401610a12565b613b1d8383836001614022565b826001600160a01b0316613b30826117ef565b6001600160a01b031614613b565760405162461bcd60e51b8152600401610a129061564b565b6000818152609b6020908152604080832080546001600160a01b03199081169091556001600160a01b03878116808652609a8552838620805460001901905590871680865283862080546001019055868652609990945282852080549092168417909155905184936000805160206159f083398151915291a4505050565b61231181613be06137c8565b61402e565b613bef828261209c565b6112a65760008281526065602090815260408083206001600160a01b03851684529091529020805460ff19166001179055613c286137c8565b6001600160a01b0316816001600160a01b0316837f2f8788117e7eff1d82e926ec794901d17c78024a50270940304540a733656f0d60405160405180910390a45050565b613c76828261209c565b156112a65760008281526065602090815260408083206001600160a01b03851684529091529020805460ff19169055613cad6137c8565b6001600160a01b0316816001600160a01b0316837ff6391f5c32d9c69d2a47ea670b442974b53935d1edc7fd64eb21e047a839171b60405160405180910390a45050565b61231181614087565b6000908152609960205260409020546001600160a01b031690565b60006116c7836001600160a01b0384166140c7565b6112a68282613be5565b816001600160a01b0316836001600160a01b03161415613d925760405162461bcd60e51b815260206004820152601960248201527822a9219b99189d1030b8383937bb32903a379031b0b63632b960391b6044820152606401610a12565b6001600160a01b038381166000818152609c6020908152604080832094871680845294825291829020805460ff191686151590811790915591519182527f17307eab39ab6107e8899845ad3d59bd9653f200f220920489ca2b5937696c31910160405180910390a3505050565b60006116c7836001600160a01b038416614111565b600080546001600160a01b0319166001600160a01b0392909216919091179055565b613e41848484613a75565b613e4d84848484614129565b610e1c5760405162461bcd60e51b8152600401610a12906155f9565b6060613e7482613966565b600082815260c9602052604081208054613e8d90615914565b80601f0160208091040260200160405190810160405280929190818152602001828054613eb990615914565b8015613f065780601f10613edb57610100808354040283529160200191613f06565b820191906000526020600020905b815481529060010190602001808311613ee957829003601f168201915b505050505090506000613f2460408051602081019091526000815290565b9050805160001415613f37575092915050565b815115613f69578082604051602001613f519291906153bd565b60405160208183030381529060405292505050919050565b613a6d84614244565b6001600160a01b03163b151590565b600054600160a81b900460ff16613faa5760405162461bcd60e51b8152600401610a1290615787565b6112a682826142b7565b60006001600160e01b031982166380ac58cd60e01b1480613fe557506001600160e01b03198216635b5e139f60e01b145b806109d657506109d682614307565b60006014361080159061400b575061400b336117db565b1561401d575060131936013560601c90565b503390565b610e1c8484848461433c565b614038828261209c565b6112a65761404581614475565b614050836020614487565b6040516020016140619291906153ec565b60408051601f198184030181529082905262461bcd60e51b8252610a1291600401615599565b61409081614668565b600081815260c96020526040902080546140a990615914565b15905061231157600081815260c96020526040812061231191614b5e565b60006140d38383614111565b614109575081546001818101845560008481526020808220909301849055845484825282860190935260409020919091556109d6565b5060006109d6565b60009081526001919091016020526040902054151590565b600061413d846001600160a01b0316613f72565b1561423957836001600160a01b031663150b7a026141596137c8565b8786866040518563ffffffff1660e01b815260040161417b949392919061546f565b602060405180830381600087803b15801561419557600080fd5b505af19250505080156141c5575060408051601f3d908101601f191682019092526141c2918101906151d1565b60015b61421f573d8080156141f3576040519150601f19603f3d011682016040523d82523d6000602084013e6141f8565b606091505b5080516142175760405162461bcd60e51b8152600401610a12906155f9565b805181602001fd5b6001600160e01b031916630a85bd0160e11b149050613a6d565b506001949350505050565b606061424f82613966565b600061426660408051602081019091526000815290565b9050600081511161428657604051806020016040528060008152506116c7565b80614290846146f9565b6040516020016142a19291906153bd565b6040516020818303038152906040529392505050565b600054600160a81b900460ff166142e05760405162461bcd60e51b8152600401610a1290615787565b81516142f3906097906020850190614ab3565b508051610a5e906098906020840190614ab3565b60006001600160e01b03198216637965db0b60e01b14806109d657506301ffc9a760e01b6001600160e01b03198316146109d6565b6143488484848461479b565b60018111156143b75760405162461bcd60e51b815260206004820152603560248201527f455243373231456e756d657261626c653a20636f6e7365637574697665207472604482015274185b9cd9995c9cc81b9bdd081cdd5c1c1bdc9d1959605a1b6064820152608401610a12565b816001600160a01b0385166144135761440e8160fd8054600083815260fe60205260408120829055600182018355919091527f9346ac6dd7de6b96975fec380d4d994c4c12e6a8897544f22915316cc6cca2800155565b614436565b836001600160a01b0316856001600160a01b031614614436576144368582614823565b6001600160a01b0384166144525761444d816148c0565b613722565b846001600160a01b0316846001600160a01b031614613722576137228482614999565b60606109d66001600160a01b03831660145b6060600061449683600261589b565b6144a1906002615883565b6001600160401b038111156144c657634e487b7160e01b600052604160045260246000fd5b6040519080825280601f01601f1916602001820160405280156144f0576020820181803683370190505b509050600360fc1b8160008151811061451957634e487b7160e01b600052603260045260246000fd5b60200101906001600160f81b031916908160001a905350600f60fb1b8160018151811061455657634e487b7160e01b600052603260045260246000fd5b60200101906001600160f81b031916908160001a905350600061457a84600261589b565b614585906001615883565b90505b6001811115614619576f181899199a1a9b1b9c1cb0b131b232b360811b85600f16601081106145c757634e487b7160e01b600052603260045260246000fd5b1a60f81b8282815181106145eb57634e487b7160e01b600052603260045260246000fd5b60200101906001600160f81b031916908160001a90535060049490941c93614612816158fd565b9050614588565b5083156116c75760405162461bcd60e51b815260206004820181905260248201527f537472696e67733a20686578206c656e67746820696e73756666696369656e746044820152606401610a12565b6000614673826117ef565b9050614683816000846001614022565b61468c826117ef565b6000838152609b6020908152604080832080546001600160a01b03199081169091556001600160a01b038516808552609a845282852080546000190190558785526099909352818420805490911690555192935084926000805160206159f0833981519152908390a45050565b60606000614706836149dd565b60010190506000816001600160401b0381111561473357634e487b7160e01b600052604160045260246000fd5b6040519080825280601f01601f19166020018201604052801561475d576020820181803683370190505b5090508181016020015b600019016f181899199a1a9b1b9c1cb0b131b232b360811b600a86061a8153600a850494508461479657611c26565b614767565b6001811115610e1c576001600160a01b038416156147e1576001600160a01b0384166000908152609a6020526040812080548392906147db9084906158ba565b90915550505b6001600160a01b03831615610e1c576001600160a01b0383166000908152609a602052604081208054839290614818908490615883565b909155505050505050565b6000600161483084611aeb565b61483a91906158ba565b600083815260fc602052604090205490915080821461488d576001600160a01b038416600090815260fb60209081526040808320858452825280832054848452818420819055835260fc90915290208190555b50600091825260fc602090815260408084208490556001600160a01b03909416835260fb81528383209183525290812055565b60fd546000906148d2906001906158ba565b600083815260fe602052604081205460fd805493945090928490811061490857634e487b7160e01b600052603260045260246000fd5b906000526020600020015490508060fd838154811061493757634e487b7160e01b600052603260045260246000fd5b600091825260208083209091019290925582815260fe909152604080822084905585825281205560fd80548061497d57634e487b7160e01b600052603160045260246000fd5b6001900381819060005260206000200160009055905550505050565b60006149a483611aeb565b6001600160a01b03909316600090815260fb60209081526040808320868452825280832085905593825260fc9052919091209190915550565b60008072184f03e93ff9f4daa797ed6e38ed64bf6a1f0160401b8310614a1c5772184f03e93ff9f4daa797ed6e38ed64bf6a1f0160401b830492506040015b6904ee2d6d415b85acef8160201b8310614a46576904ee2d6d415b85acef8160201b830492506020015b662386f26fc100008310614a6457662386f26fc10000830492506010015b6305f5e1008310614a7c576305f5e100830492506008015b6127108310614a9057612710830492506004015b60648310614aa2576064830492506002015b600a83106109d65760010192915050565b828054614abf90615914565b90600052602060002090601f016020900481019282614ae15760008555614b27565b82601f10614afa57805160ff1916838001178555614b27565b82800160010185558215614b27579182015b82811115614b27578251825591602001919060010190614b0c565b50614b33929150614b94565b5090565b60405180608001604052806004905b6060815260200190600190039081614b465790505090565b508054614b6a90615914565b6000825580601f10614b7a575050565b601f01602090049060005260206000209081019061231191905b5b80821115614b335760008155600101614b95565b60006001600160401b03831115614bc257614bc2615980565b614bd5601f8401601f1916602001615830565b9050828152838383011115614be957600080fd5b828260208301376000602084830101529392505050565b600082601f830112614c10578081fd5b81356020614c25614c2083615860565b615830565b80838252828201915082860187848660051b8901011115614c44578586fd5b855b85811015614c845781356001600160401b03811115614c63578788fd5b614c718a87838c0101614cee565b8552509284019290840190600101614c46565b5090979650505050505050565b600082601f830112614ca1578081fd5b81356020614cb1614c2083615860565b80838252828201915082860187848660051b8901011115614cd0578586fd5b855b85811015614c8457813584529284019290840190600101614cd2565b600082601f830112614cfe578081fd5b6116c783833560208501614ba9565b600060208284031215614d1e578081fd5b81356116c781615996565b600060208284031215614d3a578081fd5b81516116c781615996565b60008060408385031215614d57578081fd5b8235614d6281615996565b91506020830135614d7281615996565b809150509250929050565b60008060008060808587031215614d92578182fd5b8435614d9d81615996565b93506020850135614dad81615996565b92506040850135614dbd81615996565b91506060850135614dcd816159ab565b939692955090935050565b600080600060608486031215614dec578283fd5b8335614df781615996565b92506020840135614e0781615996565b929592945050506040919091013590565b60008060008060808587031215614e2d578384fd5b8435614e3881615996565b93506020850135614e4881615996565b92506040850135915060608501356001600160401b03811115614e69578182fd5b8501601f81018713614e79578182fd5b614e8887823560208401614ba9565b91505092959194509250565b60008060408385031215614ea6578081fd5b8235614eb181615996565b915060208301356001600160401b03811115614ecb578182fd5b614ed785828601614c00565b9150509250929050565b60008060008060808587031215614ef6578182fd5b8435614f0181615996565b935060208501356001600160401b0380821115614f1c578384fd5b614f2888838901614c00565b94506040870135915080821115614f3d578384fd5b614f4988838901614c91565b93506060870135915080821115614f5e578283fd5b50614e8887828801614c91565b60008060408385031215614f7d578182fd5b8235614f8881615996565b91506020830135614d72816159ab565b60008060408385031215614faa578182fd5b8235614fb581615996565b915060208301356001600160401b03811115614fcf578182fd5b614ed785828601614cee565b60008060008060808587031215614ff0578182fd5b8435614ffb81615996565b935060208501356001600160401b03811115615015578283fd5b61502187828801614cee565b949794965050505060408301359260600135919050565b6000806040838503121561504a578182fd5b823561505581615996565b946020939093013593505050565b600060208284031215615074578081fd5b81356001600160401b03811115615089578182fd5b613a6d84828501614c91565b600080604083850312156150a7578182fd5b82356001600160401b03808211156150bd578384fd5b6150c986838701614c91565b935060208501359150808211156150de578283fd5b50614ed785828601614c00565b600080604083850312156150fd578182fd5b82356001600160401b0380821115615113578384fd5b61511f86838701614c91565b93506020850135915080821115615134578283fd5b50614ed785828601614c91565b600060208284031215615152578081fd5b81356116c7816159ab565b60006020828403121561516e578081fd5b81516116c7816159ab565b60006020828403121561518a578081fd5b5035919050565b600080604083850312156151a3578182fd5b823591506020830135614d7281615996565b6000602082840312156151c6578081fd5b81356116c7816159b9565b6000602082840312156151e2578081fd5b81516116c7816159b9565b6000602082840312156151fe578081fd5b5051919050565b600080600060608486031215615219578081fd5b83359250602084013561522b81615996565b915060408401356001600160401b03811115615245578182fd5b61525186828701614cee565b9150509250925092565b6000806040838503121561526d578182fd5b8235915060208301356001600160401b03811115614fcf578182fd5b6000806040838503121561529b578182fd5b50508035926020909101359150565b6000815180845260208085019450808401835b838110156152e25781516001600160a01b0316875295820195908201906001016152bd565b509495945050505050565b6000826080810183835b6004811015615326578383038752615310838351615362565b60209788019790935091909101906001016152f7565b509095945050505050565b6000815180845260208085019450808401835b838110156152e2578151151587529582019590820190600101615344565b6000815180845260208085019450808401835b838110156152e257815187529582019590820190600101615375565b600081518084526153a98160208601602086016158d1565b601f01601f19169290920160200192915050565b600083516153cf8184602088016158d1565b8351908301906153e38183602088016158d1565b01949350505050565b76020b1b1b2b9b9a1b7b73a3937b61d1030b1b1b7bab73a1604d1b81526000835161541e8160178501602088016158d1565b7001034b99036b4b9b9b4b733903937b6329607d1b601791840191820152835161544f8160288401602088016158d1565b01602801949350505050565b6001600160a01b0391909116815260200190565b6001600160a01b03858116825284166020820152604081018390526080606082018190526000906154a290830184615391565b9695505050505050565b6001600160a01b03929092168252602082015260400190565b6020815260006116c760208301846152aa565b60a0815260006154eb60a08301886152aa565b6020838203818501528188518084528284019150828160051b850101838b01865b8381101561553a57601f19878403018552615528838351615391565b9486019492509085019060010161550c565b5050868103604088015261554e818b615331565b94505050505082810360608401526155668186615331565b9050828103608084015261557a81856152ed565b98975050505050505050565b6020815260006116c76020830184615362565b6020815260006116c76020830184615391565b6020808252602d908201527f4552433732313a2063616c6c6572206973206e6f7420746f6b656e206f776e6560408201526c1c881bdc88185c1c1c9bdd9959609a1b606082015260800190565b60208082526032908201527f4552433732313a207472616e7366657220746f206e6f6e20455243373231526560408201527131b2b4bb32b91034b6b83632b6b2b73a32b960711b606082015260800190565b60208082526025908201527f4552433732313a207472616e736665722066726f6d20696e636f72726563742060408201526437bbb732b960d91b606082015260800190565b6020808252601c908201527b115490cdcc8c4e881d1bdad95b88185b1c9958591e481b5a5b9d195960221b604082015260600190565b60208082526027908201527f6f6e6c792077686974656c697374656420616464726573732063616e20636c61604082015266696d205553444360c81b606082015260800190565b6020808252600d908201526c09edcd8f24082c8dad2dc5a849609b1b604082015260600190565b602080825260189082015277115490cdcc8c4e881a5b9d985b1a59081d1bdad95b88125160421b604082015260600190565b60208082526007908201526609edcd8f24084960cb1b604082015260600190565b6020808252602b908201527f496e697469616c697a61626c653a20636f6e7472616374206973206e6f74206960408201526a6e697469616c697a696e6760a81b606082015260800190565b60208082526030908201527f4552433732314275726e61626c653a2063616c6c6572206973206e6f74206f7760408201526f1b995c881b9bdc88185c1c1c9bdd995960821b606082015260800190565b918252602082015260400190565b604051601f8201601f191681016001600160401b038111828210171561585857615858615980565b604052919050565b60006001600160401b0382111561587957615879615980565b5060051b60200190565b600082198211156158965761589661596a565b500190565b60008160001904831182151516156158b5576158b561596a565b500290565b6000828210156158cc576158cc61596a565b500390565b60005b838110156158ec5781810151838201526020016158d4565b83811115610e1c5750506000910152565b60008161590c5761590c61596a565b506000190190565b600181811c9082168061592857607f821691505b6020821081141561594957634e487b7160e01b600052602260045260246000fd5b50919050565b60006000198214156159635761596361596a565b5060010190565b634e487b7160e01b600052601160045260246000fd5b634e487b7160e01b600052604160045260246000fd5b6001600160a01b038116811461231157600080fd5b801515811461231157600080fd5b6001600160e01b03198116811461231157600080fdfe6908204b5b44d850a840f5d3620fce856f5ad534a4216cf8acb31f1fb99d1b7dddf252ad1be2c89b69c2b068fc378daa952ba7f163c4a11628f55a4df523b3efa49807205ce4d355092ef5a8a18f56e8913cf4a201fbe287825b095693c21775a26469706673582212203787b54186dfc99f8af19d731c068c7970b04003c9729e13e4f1dddaa945c1b064736f6c63430008040033",
  "linkReferences": {},
  "deployedLinkReferences": {}
}