{
  "_format": "hh-sol-artifact-1",
  "contractName": "BH_MarketPlace",
  "sourceName": "contracts/BH_MarketPlace.sol",
  "abi": [
    {
      "anonymous": false,
      "inputs": [
        {
          "indexed": false,
          "internalType": "uint8",
          "name": "version",
          "type": "uint8"
        }
      ],
      "name": "Initialized",
      "type": "event"
    },
    {
      "inputs": [
        {
          "internalType": "uint256",
          "name": "",
          "type": "uint256"
        }
      ],
      "name": "Address_Bid",
      "outputs": [
        {
          "internalType": "address",
          "name": "",
          "type": "address"
        }
      ],
      "stateMutability": "view",
      "type": "function"
    },
    {
      "inputs": [],
      "name": "BHFungibleBlockhouse_contract_address",
      "outputs": [
        {
          "internalType": "address",
          "name": "",
          "type": "address"
        }
      ],
      "stateMutability": "view",
      "type": "function"
    },
    {
      "inputs": [],
      "name": "Comission_USDC",
      "outputs": [
        {
          "internalType": "uint256",
          "name": "",
          "type": "uint256"
        }
      ],
      "stateMutability": "view",
      "type": "function"
    },
    {
      "inputs": [
        {
          "internalType": "uint256",
          "name": "",
          "type": "uint256"
        }
      ],
      "name": "HouseT_Bid",
      "outputs": [
        {
          "internalType": "uint256",
          "name": "",
          "type": "uint256"
        }
      ],
      "stateMutability": "view",
      "type": "function"
    },
    {
      "inputs": [
        {
          "internalType": "uint256",
          "name": "",
          "type": "uint256"
        }
      ],
      "name": "HouseT_Owner",
      "outputs": [
        {
          "internalType": "address",
          "name": "",
          "type": "address"
        }
      ],
      "stateMutability": "view",
      "type": "function"
    },
    {
      "inputs": [
        {
          "internalType": "uint256",
          "name": "",
          "type": "uint256"
        }
      ],
      "name": "HouseT_Price",
      "outputs": [
        {
          "internalType": "uint256",
          "name": "",
          "type": "uint256"
        }
      ],
      "stateMutability": "view",
      "type": "function"
    },
    {
      "inputs": [],
      "name": "HouseT_contract_address",
      "outputs": [
        {
          "internalType": "address",
          "name": "",
          "type": "address"
        }
      ],
      "stateMutability": "view",
      "type": "function"
    },
    {
      "inputs": [
        {
          "internalType": "address",
          "name": "",
          "type": "address"
        }
      ],
      "name": "Listed_HouseTs",
      "outputs": [
        {
          "internalType": "uint256",
          "name": "",
          "type": "uint256"
        }
      ],
      "stateMutability": "view",
      "type": "function"
    },
    {
      "inputs": [
        {
          "internalType": "uint256",
          "name": "",
          "type": "uint256"
        },
        {
          "internalType": "uint256",
          "name": "",
          "type": "uint256"
        }
      ],
      "name": "Price_history",
      "outputs": [
        {
          "internalType": "uint256",
          "name": "",
          "type": "uint256"
        }
      ],
      "stateMutability": "view",
      "type": "function"
    },
    {
      "inputs": [],
      "name": "USDC_contract_address",
      "outputs": [
        {
          "internalType": "address",
          "name": "",
          "type": "address"
        }
      ],
      "stateMutability": "view",
      "type": "function"
    },
    {
      "inputs": [
        {
          "internalType": "uint256",
          "name": "_CommissionUSDC",
          "type": "uint256"
        }
      ],
      "name": "Update_commission_USDC",
      "outputs": [],
      "stateMutability": "nonpayable",
      "type": "function"
    },
    {
      "inputs": [
        {
          "internalType": "uint256",
          "name": "House_tokenID",
          "type": "uint256"
        }
      ],
      "name": "accept_bid",
      "outputs": [],
      "stateMutability": "nonpayable",
      "type": "function"
    },
    {
      "inputs": [],
      "name": "available_funds",
      "outputs": [
        {
          "internalType": "uint256",
          "name": "",
          "type": "uint256"
        }
      ],
      "stateMutability": "view",
      "type": "function"
    },
    {
      "inputs": [
        {
          "internalType": "uint256",
          "name": "House_tokenID",
          "type": "uint256"
        }
      ],
      "name": "buy_HouseT",
      "outputs": [],
      "stateMutability": "nonpayable",
      "type": "function"
    },
    {
      "inputs": [
        {
          "internalType": "uint256",
          "name": "_percentage_taken_from_transaction",
          "type": "uint256"
        }
      ],
      "name": "change_commission",
      "outputs": [],
      "stateMutability": "nonpayable",
      "type": "function"
    },
    {
      "inputs": [],
      "name": "get_HouseT_owners_in_Marketplace",
      "outputs": [
        {
          "internalType": "address[]",
          "name": "",
          "type": "address[]"
        }
      ],
      "stateMutability": "view",
      "type": "function"
    },
    {
      "inputs": [],
      "name": "get_USDC_Balcance",
      "outputs": [
        {
          "internalType": "uint256",
          "name": "",
          "type": "uint256"
        }
      ],
      "stateMutability": "view",
      "type": "function"
    },
    {
      "inputs": [
        {
          "internalType": "address",
          "name": "_HouseT_contract_address",
          "type": "address"
        },
        {
          "internalType": "address",
          "name": "_BHFungibleBlockhouse_contract_address",
          "type": "address"
        },
        {
          "internalType": "address",
          "name": "_owner",
          "type": "address"
        },
        {
          "internalType": "address",
          "name": "_USDC_contract_address",
          "type": "address"
        },
        {
          "internalType": "address",
          "name": "forwarder_",
          "type": "address"
        }
      ],
      "name": "initialize",
      "outputs": [],
      "stateMutability": "nonpayable",
      "type": "function"
    },
    {
      "inputs": [
        {
          "internalType": "address",
          "name": "forwarder",
          "type": "address"
        }
      ],
      "name": "isTrustedForwarder",
      "outputs": [
        {
          "internalType": "bool",
          "name": "",
          "type": "bool"
        }
      ],
      "stateMutability": "view",
      "type": "function"
    },
    {
      "inputs": [
        {
          "internalType": "uint256",
          "name": "House_tokenID",
          "type": "uint256"
        }
      ],
      "name": "is_listed",
      "outputs": [
        {
          "internalType": "bool",
          "name": "",
          "type": "bool"
        }
      ],
      "stateMutability": "view",
      "type": "function"
    },
    {
      "inputs": [
        {
          "internalType": "uint256",
          "name": "House_tokenID",
          "type": "uint256"
        }
      ],
      "name": "last_sell_price",
      "outputs": [
        {
          "internalType": "uint256",
          "name": "",
          "type": "uint256"
        }
      ],
      "stateMutability": "view",
      "type": "function"
    },
    {
      "inputs": [
        {
          "internalType": "uint256",
          "name": "House_tokenID",
          "type": "uint256"
        },
        {
          "internalType": "uint256",
          "name": "USDC_price",
          "type": "uint256"
        }
      ],
      "name": "list_HouseT",
      "outputs": [],
      "stateMutability": "nonpayable",
      "type": "function"
    },
    {
      "inputs": [
        {
          "internalType": "uint256[]",
          "name": "House_tokenIDs",
          "type": "uint256[]"
        },
        {
          "internalType": "uint256[]",
          "name": "USDC_prices",
          "type": "uint256[]"
        }
      ],
      "name": "list_HouseT_batch",
      "outputs": [],
      "stateMutability": "nonpayable",
      "type": "function"
    },
    {
      "inputs": [
        {
          "internalType": "uint256",
          "name": "House_tokenID",
          "type": "uint256"
        },
        {
          "internalType": "uint256",
          "name": "USDC_amount",
          "type": "uint256"
        }
      ],
      "name": "place_bid",
      "outputs": [],
      "stateMutability": "nonpayable",
      "type": "function"
    },
    {
      "inputs": [
        {
          "internalType": "uint256",
          "name": "amount_to_transfert",
          "type": "uint256"
        }
      ],
      "name": "transfert_funds_to_FS_contract",
      "outputs": [],
      "stateMutability": "nonpayable",
      "type": "function"
    },
    {
      "inputs": [],
      "name": "trustedForwarder",
      "outputs": [
        {
          "internalType": "address",
          "name": "",
          "type": "address"
        }
      ],
      "stateMutability": "view",
      "type": "function"
    },
    {
      "inputs": [
        {
          "internalType": "uint256",
          "name": "House_tokenID",
          "type": "uint256"
        }
      ],
      "name": "unlist_HouseT",
      "outputs": [],
      "stateMutability": "nonpayable",
      "type": "function"
    },
    {
      "inputs": [
        {
          "internalType": "uint256",
          "name": "House_tokenID",
          "type": "uint256"
        },
        {
          "internalType": "uint256",
          "name": "new_USDC_price",
          "type": "uint256"
        }
      ],
      "name": "update_listing_price_HouseT",
      "outputs": [],
      "stateMutability": "nonpayable",
      "type": "function"
    },
    {
      "inputs": [
        {
          "internalType": "address",
          "name": "forwarder_",
          "type": "address"
        }
      ],
      "name": "update_trusted_forwarder",
      "outputs": [],
      "stateMutability": "nonpayable",
      "type": "function"
    },
    {
      "inputs": [],
      "name": "versionRecipient",
      "outputs": [
        {
          "internalType": "string",
          "name": "",
          "type": "string"
        }
      ],
      "stateMutability": "view",
      "type": "function"
    },
    {
      "inputs": [],
      "name": "void",
      "outputs": [],
      "stateMutability": "nonpayable",
      "type": "function"
    },
    {
      "inputs": [
        {
          "internalType": "uint256",
          "name": "House_tokenID",
          "type": "uint256"
        }
      ],
      "name": "withdraw_HouseT",
      "outputs": [],
      "stateMutability": "nonpayable",
      "type": "function"
    },
    {
      "inputs": [
        {
          "internalType": "uint256",
          "name": "amount",
          "type": "uint256"
        }
      ],
      "name": "withdraw_USDC_funds",
      "outputs": [],
      "stateMutability": "nonpayable",
      "type": "function"
    },
    {
      "inputs": [],
      "name": "withdraw_all_HouseTs",
      "outputs": [],
      "stateMutability": "nonpayable",
      "type": "function"
    },
    {
      "inputs": [],
      "name": "withdraw_all_USDC_funds",
      "outputs": [],
      "stateMutability": "nonpayable",
      "type": "function"
    },
    {
      "inputs": [
        {
          "internalType": "uint256",
          "name": "House_tokenID",
          "type": "uint256"
        }
      ],
      "name": "withdraw_bid",
      "outputs": [],
      "stateMutability": "nonpayable",
      "type": "function"
    },
    {
      "inputs": [],
      "name": "withdraw_commission_USDC",
      "outputs": [],
      "stateMutability": "nonpayable",
      "type": "function"
    }
  ],
  "bytecode": "0x608060405234801561001057600080fd5b50613228806100206000396000f3fe608060405234801561001057600080fd5b50600436106101b75760003560e01c8063083beb4b146101bc57806309f28b98146101d15780630f191391146101e4578063103c769e146102025780631056f81c146102155780631459457a146102285780631cc628231461023b5780631f6804171461024357806321a20dca14610271578063260132d61461029157806337dd8b0c146102a4578063486ff0cd146102b757806350452890146102cc5780635048d7a5146102d55780635232835b146102fe57806354958a071461031157806354fca48d1461033a578063572b6c051461034d578063731c7500146103705780637da0a8771461038357806381a52e7f14610394578063832a9dff1461039c578063844316d7146103af5780638fc253e6146103c2578063935f6183146103ca578063a7c8346d146103d2578063ab69b596146103e5578063ac4c25b2146101cf578063ac709145146103f8578063bb79ffe01461040b578063c4bdeb991461041e578063c81f6fc814610431578063d5ad9a0314610444578063d61895a81461044c578063dcf2ab071461046c578063e1915bc71461048e578063f434c596146104ae575b600080fd5b6101cf6101ca366004612ecf565b6104c1565b005b6101cf6101df366004612ecf565b610553565b6101ec610ba6565b6040516101f99190612f71565b60405180910390f35b6101cf610210366004612ecf565b610d02565b6101cf610223366004612ecf565b610e7c565b6101cf610236366004612ddf565b611058565b6101cf611264565b610263610251366004612ecf565b600e6020526000908152604090205481565b6040519081526020016101f9565b600454610284906001600160a01b031681565b6040516101f99190612f20565b6101cf61029f366004612eff565b611489565b6101cf6102b2366004612ecf565b611649565b6102bf6116d2565b6040516101f99190612fbe565b61026360095481565b6102846102e3366004612ecf565b600d602052600090815260409020546001600160a01b031681565b600254610284906001600160a01b031681565b61028461031f366004612ecf565b6010602052600090815260409020546001600160a01b031681565b610263610348366004612ecf565b611760565b61036061035b366004612da0565b6117c2565b60405190151581526020016101f9565b6101cf61037e366004612ecf565b6117d6565b6000546001600160a01b0316610284565b6101cf6119a9565b6101cf6103aa366004612e4f565b611b87565b6101cf6103bd366004612eff565b611c05565b610263611dac565b6101cf611e34565b6102636103e0366004612eff565b612077565b6101cf6103f3366004612da0565b6120a8565b600354610284906001600160a01b031681565b6101cf610419366004612ecf565b612138565b6101cf61042c366004612eff565b612374565b6101cf61043f366004612ecf565b612791565b600954610263565b61026361045a366004612da0565b600b6020526000908152604090205481565b61036061047a366004612ecf565b6000908152600e6020526040902054151590565b61026361049c366004612ecf565b600f6020526000908152604090205481565b6101cf6104bc366004612ecf565b6128b3565b6008546001600160a01b03166104d5612c1a565b6001600160a01b0316148061050457506005546001600160a01b03166104f9612c1a565b6001600160a01b0316145b8061052957506006546001600160a01b031661051e612c1a565b6001600160a01b0316145b61054e5760405162461bcd60e51b815260040161054590613080565b60405180910390fd5b600155565b60025460408051633047f6ed60e01b815290516000926001600160a01b031691633047f6ed916004808301926020929190829003018186803b15801561059857600080fd5b505afa1580156105ac573d6000803e3d6000fd5b505050506040513d601f19601f820116820180604052508101906105d09190612ee7565b6002546001600160a01b031663ee943fb46105e9612c1a565b6040518263ffffffff1660e01b81526004016106059190612f20565b60206040518083038186803b15801561061d57600080fd5b505afa158015610631573d6000803e3d6000fd5b505050506040513d601f19601f820116820180604052508101906106559190612ee7565b10806106e757506002546001600160a01b031663b80fb7cf610675612c1a565b6040518263ffffffff1660e01b81526004016106919190612f20565b60206040518083038186803b1580156106a957600080fd5b505afa1580156106bd573d6000803e3d6000fd5b505050506040513d601f19601f820116820180604052508101906106e19190612eaf565b15156001145b905060018115151461070b5760405162461bcd60e51b8152600401610545906130a1565b6002546040516331a9108f60e11b81526004810184905230916001600160a01b031690636352211e9060240160206040518083038186803b15801561074f57600080fd5b505afa158015610763573d6000803e3d6000fd5b505050506040513d601f19601f820116820180604052508101906107879190612dc3565b6001600160a01b0316146107e95760405162461bcd60e51b8152602060048201526024808201527f5468697320486f75736554206973206e6f7420617661696c61626c6520666f726044820152632062757960e01b6064820152608401610545565b6004546000906001600160a01b03166370a08231610805612c1a565b6040518263ffffffff1660e01b81526004016108219190612f20565b60206040518083038186803b15801561083957600080fd5b505afa15801561084d573d6000803e3d6000fd5b505050506040513d601f19601f820116820180604052508101906108719190612ee7565b6000848152600e60205260409020549091508110156108e85760405162461bcd60e51b815260206004820152602d60248201527f596f7520646f6e74206861766520656e6f756768206d6f6e657920746f20627560448201526c1e481d1a1a5cc81c185b9b995b609a1b6064820152608401610545565b6004546001600160a01b03166323b872dd610901612c1a565b6000868152600e6020526040908190205490516001600160e01b031960e085901b16815261093492913091600401612f34565b602060405180830381600087803b15801561094e57600080fd5b505af1158015610962573d6000803e3d6000fd5b505050506040513d601f19601f820116820180604052508101906109869190612eaf565b506000838152600e6020526040812054600154606491906109a79083613144565b6109b19190613125565b6109bb9190613105565b600480546000878152600d60205260409081902054905163a9059cbb60e01b81529394506001600160a01b039182169363a9059cbb93610a019390921691869101612f58565b602060405180830381600087803b158015610a1b57600080fd5b505af1158015610a2f573d6000803e3d6000fd5b505050506040513d601f19601f82011682018060405250810190610a539190612eaf565b506000848152600e6020526040902054600154606491610a7291613125565b610a7c9190613105565b60096000828254610a8d91906130ed565b90915550506002546001600160a01b03166323b872dd30610aac612c1a565b876040518463ffffffff1660e01b8152600401610acb93929190612f34565b600060405180830381600087803b158015610ae557600080fd5b505af1158015610af9573d6000803e3d6000fd5b5050506000858152600d60209081526040808320546001600160a01b03168352600b9091528120805460019350909190610b34908490613144565b9091555050506000838152600c60209081526040808320600e8352818420805482546001810184559286528486209092019190915595835294829055600d815284822080546001600160a01b0319908116909155600f8252858320839055601090915293902080549093169092555050565b60606000600260009054906101000a90046001600160a01b03166001600160a01b031663c0976c586040518163ffffffff1660e01b815260040160206040518083038186803b158015610bf857600080fd5b505afa158015610c0c573d6000803e3d6000fd5b505050506040513d601f19601f82011682018060405250810190610c309190612ee7565b90506000816001600160401b03811115610c5a57634e487b7160e01b600052604160045260246000fd5b604051908082528060200260200182016040528015610c83578160200160208202803683370190505b50905060005b82811015610cfb576000818152600d602052604090205482516001600160a01b03909116908190849084908110610cd057634e487b7160e01b600052603260045260246000fd5b6001600160a01b03909216602092830291909101909101525080610cf381613196565b915050610c89565b5092915050565b6000818152601060205260409020546001600160a01b0316610d22612c1a565b6001600160a01b031614610db25760405162461bcd60e51b815260206004820152604b60248201527f596f75206e65656420746f20626520746865206c61746573742062696464657260448201527f20746f2077697468647261772c206f722074686520617373657420776173206160648201526a1b1c9958591e481cdbdb1960aa1b608482015260a401610545565b60048054600083815260106020908152604080832054600f9092529182902054915163a9059cbb60e01b81526001600160a01b039384169463a9059cbb94610dfe949316929101612f58565b602060405180830381600087803b158015610e1857600080fd5b505af1158015610e2c573d6000803e3d6000fd5b505050506040513d601f19601f82011682018060405250810190610e509190612eaf565b506000908152600f602090815260408083208390556010909152902080546001600160a01b0319169055565b6008546001600160a01b0316610e90612c1a565b6001600160a01b03161480610ebf57506005546001600160a01b0316610eb4612c1a565b6001600160a01b0316145b80610ee457506006546001600160a01b0316610ed9612c1a565b6001600160a01b0316145b610f005760405162461bcd60e51b815260040161054590613080565b6002546040516331a9108f60e11b8152600481018390526001600160a01b0390911690636352211e9060240160206040518083038186803b158015610f4457600080fd5b505afa158015610f58573d6000803e3d6000fd5b505050506040513d601f19601f82011682018060405250810190610f7c9190612dc3565b6001600160a01b0316306001600160a01b031614610fea5760405162461bcd60e51b815260206004820152602560248201527f5468697320746f6b656e206973206e6f7420696e20746865206d61726b657420604482015264706c61636560d81b6064820152608401610545565b6002546008546040516323b872dd60e01b81526001600160a01b03928316926323b872dd92611023923092909116908690600401612f34565b600060405180830381600087803b15801561103d57600080fd5b505af1158015611051573d6000803e3d6000fd5b5050505050565b600054600160a81b900460ff161580801561108057506000546001600160a01b90910460ff16105b806110a15750303b1580156110a15750600054600160a01b900460ff166001145b6111045760405162461bcd60e51b815260206004820152602e60248201527f496e697469616c697a61626c653a20636f6e747261637420697320616c72656160448201526d191e481a5b9a5d1a585b1a5e995960921b6064820152608401610545565b6000805460ff60a01b1916600160a01b1790558015611131576000805460ff60a81b1916600160a81b1790555b61113a82612c48565b600880546001600160a01b038087166001600160a01b031992831617909255600280548984169083161790556003805492881692909116919091179055600060095560018055604080518082019091526005808252640322e322e360dc1b60209092019182526111ac91600a91612c6a565b50600480546001600160a01b0385166001600160a01b03199182161790915560058054821673e7e3e925e5dcfeaf5c5cebfbc6efd4b404b0e60790811790915560068054831673c117e7247be4830d169da13427311f59bd25d66917905560078054909216179055801561125c576000805460ff60a81b19169055604051600181527f7f26b83ff96e1f2b6a682f133852f6798a09c465da95921460cefb38474024989060200160405180910390a15b505050505050565b6008546001600160a01b0316611278612c1a565b6001600160a01b031614806112a757506005546001600160a01b031661129c612c1a565b6001600160a01b0316145b806112cc57506006546001600160a01b03166112c1612c1a565b6001600160a01b0316145b6112e85760405162461bcd60e51b815260040161054590613080565b60025460408051631812ed8b60e31b815290516000926001600160a01b03169163c0976c58916004808301926020929190829003018186803b15801561132d57600080fd5b505afa158015611341573d6000803e3d6000fd5b505050506040513d601f19601f820116820180604052508101906113659190612ee7565b905060005b81811015611485576002546040516331a9108f60e11b8152600481018390526001600160a01b0390911690636352211e9060240160206040518083038186803b1580156113b657600080fd5b505afa1580156113ca573d6000803e3d6000fd5b505050506040513d601f19601f820116820180604052508101906113ee9190612dc3565b6001600160a01b0316306001600160a01b03161415611473576002546008546040516323b872dd60e01b81526001600160a01b03928316926323b872dd92611440923092909116908690600401612f34565b600060405180830381600087803b15801561145a57600080fd5b505af115801561146e573d6000803e3d6000fd5b505050505b8061147d81613196565b91505061136a565b5050565b611491612c1a565b6002546040516331a9108f60e11b8152600481018590526001600160a01b039283169290911690636352211e9060240160206040518083038186803b1580156114d957600080fd5b505afa1580156114ed573d6000803e3d6000fd5b505050506040513d601f19601f820116820180604052508101906115119190612dc3565b6001600160a01b03161461157a5760405162461bcd60e51b815260206004820152602a60248201527f596f7520646f6e74206f776e206f7220616c7265616479206c697374656420746044820152691a1a5cc8121bdd5cd95560b21b6064820152608401610545565b6002546001600160a01b03166323b872dd611593612c1a565b30856040518463ffffffff1660e01b81526004016115b393929190612f34565b600060405180830381600087803b1580156115cd57600080fd5b505af11580156115e1573d6000803e3d6000fd5b505050506115ed612c1a565b6000838152600d6020908152604080832080546001600160a01b0319166001600160a01b03958616178155600e8352818420869055549093168252600b90529081208054600192906116409084906130ed565b90915550505050565b6008546001600160a01b031661165d612c1a565b6001600160a01b0316148061168c57506005546001600160a01b0316611681612c1a565b6001600160a01b0316145b806116b157506006546001600160a01b03166116a6612c1a565b6001600160a01b0316145b6116cd5760405162461bcd60e51b815260040161054590613080565b600955565b600a80546116df9061315b565b80601f016020809104026020016040519081016040528092919081815260200182805461170b9061315b565b80156117585780601f1061172d57610100808354040283529160200191611758565b820191906000526020600020905b81548152906001019060200180831161173b57829003601f168201915b505050505081565b6000818152600c6020526040812054819061177d90600190613144565b6000848152600c60205260409020805491925090829081106117af57634e487b7160e01b600052603260045260246000fd5b9060005260206000200154915050919050565b6000546001600160a01b0391821691161490565b6008546001600160a01b03166117ea612c1a565b6001600160a01b0316146117fd57600080fd5b600480546040516370a0823160e01b81526000926001600160a01b03909216916370a082319161182f91309101612f20565b60206040518083038186803b15801561184757600080fd5b505afa15801561185b573d6000803e3d6000fd5b505050506040513d601f19601f8201168201806040525081019061187f9190612ee7565b9050600082116118d15760405162461bcd60e51b815260206004820152601e60248201527f416d6f756e742073686f756c6420626520686967686572207468616e203000006044820152606401610545565b81811161191e5760405162461bcd60e51b815260206004820152601b60248201527a4e6f7420656e6f756768205553444320746f20776974686472617760281b6044820152606401610545565b6004805460085460405163a9059cbb60e01b81526001600160a01b039283169363a9059cbb93611952931691879101612f58565b602060405180830381600087803b15801561196c57600080fd5b505af1158015611980573d6000803e3d6000fd5b505050506040513d601f19601f820116820180604052508101906119a49190612eaf565b505050565b6008546001600160a01b03166119bd612c1a565b6001600160a01b031614806119ec57506005546001600160a01b03166119e1612c1a565b6001600160a01b0316145b80611a1157506006546001600160a01b0316611a06612c1a565b6001600160a01b0316145b611a2d5760405162461bcd60e51b815260040161054590613080565b600480546040516370a0823160e01b81526000926001600160a01b03909216916370a0823191611a5f91309101612f20565b60206040518083038186803b158015611a7757600080fd5b505afa158015611a8b573d6000803e3d6000fd5b505050506040513d601f19601f82011682018060405250810190611aaf9190612ee7565b905060008111611b015760405162461bcd60e51b815260206004820152601d60248201527f43757272656e74205553444320666f756e64732061726520656d7074790000006044820152606401610545565b6004805460085460405163a9059cbb60e01b81526001600160a01b039283169363a9059cbb93611b35931691869101612f58565b602060405180830381600087803b158015611b4f57600080fd5b505af1158015611b63573d6000803e3d6000fd5b505050506040513d601f19601f820116820180604052508101906114859190612eaf565b81516000905b80821015611bff57611bed848381518110611bb857634e487b7160e01b600052603260045260246000fd5b6020026020010151848481518110611be057634e487b7160e01b600052603260045260246000fd5b6020026020010151611489565b81611bf781613196565b925050611b8d565b50505050565b611c0d612c1a565b6000838152600d60205260409020546001600160a01b03908116911614611c875760405162461bcd60e51b815260206004820152602860248201527f596f7520646f6e74206f776e206f7220616c726561647920736f6c64207468696044820152671cc8121bdd5cd95560c21b6064820152608401610545565b6002546040516331a9108f60e11b81526004810184905230916001600160a01b031690636352211e9060240160206040518083038186803b158015611ccb57600080fd5b505afa158015611cdf573d6000803e3d6000fd5b505050506040513d601f19601f82011682018060405250810190611d039190612dc3565b6001600160a01b031614611d295760405162461bcd60e51b815260040161054590613011565b6000828152600f60205260409020548111611d9a5760405162461bcd60e51b815260206004820152602b60248201527f4e65772070726963652073686f756c6420626520686967686572207468616e2060448201526a18dd5c9c995b9d08189a5960aa1b6064820152608401610545565b6000918252600e602052604090912055565b600480546040516370a0823160e01b815260009283926001600160a01b0316916370a0823191611dde91309101612f20565b60206040518083038186803b158015611df657600080fd5b505afa158015611e0a573d6000803e3d6000fd5b505050506040513d601f19601f82011682018060405250810190611e2e9190612ee7565b92915050565b6008546001600160a01b0316611e48612c1a565b6001600160a01b03161480611e7757506005546001600160a01b0316611e6c612c1a565b6001600160a01b0316145b80611e9c57506006546001600160a01b0316611e91612c1a565b6001600160a01b0316145b80611ec157506007546001600160a01b0316611eb6612c1a565b6001600160a01b0316145b611edd5760405162461bcd60e51b815260040161054590613080565b600480546040516370a0823160e01b81526000926001600160a01b03909216916370a0823191611f0f91309101612f20565b60206040518083038186803b158015611f2757600080fd5b505afa158015611f3b573d6000803e3d6000fd5b505050506040513d601f19601f82011682018060405250810190611f5f9190612ee7565b600480546040516370a0823160e01b81529293506001600160a01b0316916370a0823191611f8f91309101612f20565b60206040518083038186803b158015611fa757600080fd5b505afa158015611fbb573d6000803e3d6000fd5b505050506040513d601f19601f82011682018060405250810190611fdf9190612ee7565b81106120415760405162461bcd60e51b815260206004820152602b60248201527f43757272656e74205553444320666f756e647320617265206c6573732074686160448201526a371031b7b6b4b9b9b4b7b760a91b6064820152608401610545565b6004805460085460095460405163a9059cbb60e01b81526001600160a01b039384169463a9059cbb94611b359416929101612f58565b600c602052816000526040600020818154811061209357600080fd5b90600052602060002001600091509150505481565b6008546001600160a01b03166120bc612c1a565b6001600160a01b031614806120eb57506005546001600160a01b03166120e0612c1a565b6001600160a01b0316145b8061211057506006546001600160a01b0316612105612c1a565b6001600160a01b0316145b61212c5760405162461bcd60e51b815260040161054590613080565b61213581612c48565b50565b612140612c1a565b6000828152600d60205260409020546001600160a01b039081169116146121795760405162461bcd60e51b815260040161054590613011565b6002546040516331a9108f60e11b81526004810183905230916001600160a01b031690636352211e9060240160206040518083038186803b1580156121bd57600080fd5b505afa1580156121d1573d6000803e3d6000fd5b505050506040513d601f19601f820116820180604052508101906121f59190612dc3565b6001600160a01b0316146122865760405162461bcd60e51b815260206004820152604c60248201527f5468697320486f7573655420746f6b656e206973206e6f7420696e207468652060448201527f636f6e74726163742c20692e652e2077617320616c726561647920776974686460648201526b1c985ddb881bdc881cdbdb1960a21b608482015260a401610545565b6002546001600160a01b03166323b872dd306122a0612c1a565b846040518463ffffffff1660e01b81526004016122bf93929190612f34565b600060405180830381600087803b1580156122d957600080fd5b505af11580156122ed573d6000803e3d6000fd5b5050506000828152600d60209081526040808320546001600160a01b03168352600b9091528120805460019350909190612328908490613144565b90915550506000908152600e60209081526040808320839055600d825280832080546001600160a01b0319908116909155600f8352818420849055601090925290912080549091169055565b60025460408051633047f6ed60e01b815290516000926001600160a01b031691633047f6ed916004808301926020929190829003018186803b1580156123b957600080fd5b505afa1580156123cd573d6000803e3d6000fd5b505050506040513d601f19601f820116820180604052508101906123f19190612ee7565b6002546001600160a01b031663ee943fb461240a612c1a565b6040518263ffffffff1660e01b81526004016124269190612f20565b60206040518083038186803b15801561243e57600080fd5b505afa158015612452573d6000803e3d6000fd5b505050506040513d601f19601f820116820180604052508101906124769190612ee7565b108061250857506002546001600160a01b031663b80fb7cf612496612c1a565b6040518263ffffffff1660e01b81526004016124b29190612f20565b60206040518083038186803b1580156124ca57600080fd5b505afa1580156124de573d6000803e3d6000fd5b505050506040513d601f19601f820116820180604052508101906125029190612eaf565b15156001145b905060018115151461252c5760405162461bcd60e51b8152600401610545906130a1565b6000838152600f6020526040902054821161259d5760405162461bcd60e51b815260206004820152602b60248201527f4e657720626964206e6565647320746f20626520686967686572207468616e2060448201526a18dd5c9c995b9d08189a5960aa1b6064820152608401610545565b6000838152600e6020526040902054821061260f5760405162461bcd60e51b815260206004820152602c60248201527f4e657720626964206e6565647320746f206265206c6f776572207468616e206360448201526b757272656e7420707269636560a01b6064820152608401610545565b600083815260106020908152604080832054600f909252909120546004546001600160a01b0392831692166323b872dd612647612c1a565b30876040518463ffffffff1660e01b815260040161266793929190612f34565b602060405180830381600087803b15801561268157600080fd5b505af1158015612695573d6000803e3d6000fd5b505050506040513d601f19601f820116820180604052508101906126b99190612eaf565b508015612745576004805460405163a9059cbb60e01b81526001600160a01b039091169163a9059cbb916126f1918691869101612f58565b602060405180830381600087803b15801561270b57600080fd5b505af115801561271f573d6000803e3d6000fd5b505050506040513d601f19601f820116820180604052508101906127439190612eaf565b505b6000858152600f6020526040902084905561275e612c1a565b60009586526010602052604090952080546001600160a01b0319166001600160a01b039096169590951790945550505050565b6003546001600160a01b03166127a5612c1a565b6001600160a01b031614806127d457506008546001600160a01b03166127c9612c1a565b6001600160a01b0316145b806127f957506005546001600160a01b03166127ee612c1a565b6001600160a01b0316145b8061281e57506006546001600160a01b0316612813612c1a565b6001600160a01b0316145b8061284357506007546001600160a01b0316612838612c1a565b6001600160a01b0316145b61285f5760405162461bcd60e51b815260040161054590613080565b80600954101561286e57600080fd5b8060095461287c9190613144565b6009556004805460035460405163a9059cbb60e01b81526001600160a01b039283169363a9059cbb93611b35931691869101612f58565b6000818152600d60205260409020546001600160a01b03166128d3612c1a565b6001600160a01b0316146129395760405162461bcd60e51b815260206004820152602760248201527f596f75206e65656420746f206265207468652063757272656e7420486f7573656044820152662a1037bbb732b960c91b6064820152608401610545565b6000818152600f602052604090205461298f5760405162461bcd60e51b8152602060048201526018602482015277446f6e7420616363657074206120626964206f662030202160401b6044820152606401610545565b6000818152601060205260409020546001600160a01b03166129fe5760405162461bcd60e51b815260206004820152602260248201527f446f6e742073656e6420796f7572204e465420746f206e756c6c206164647265604482015261737360f01b6064820152608401610545565b6000818152600f602052604081205460015460649190612a1e9083613144565b612a289190613125565b612a329190613105565b600480546000858152600d60205260409081902054905163a9059cbb60e01b81529394506001600160a01b039182169363a9059cbb93612a789390921691869101612f58565b602060405180830381600087803b158015612a9257600080fd5b505af1158015612aa6573d6000803e3d6000fd5b505050506040513d601f19601f82011682018060405250810190612aca9190612eaf565b506000828152600f6020526040902054600154606491612ae991613125565b612af39190613105565b60096000828254612b0491906130ed565b90915550506002546001600160a01b03166323b872dd30612b23612c1a565b856040518463ffffffff1660e01b8152600401612b4293929190612f34565b600060405180830381600087803b158015612b5c57600080fd5b505af1158015612b70573d6000803e3d6000fd5b5050506000838152600d60209081526040808320546001600160a01b03168352600b9091528120805460019350909190612bab908490613144565b9091555050506000818152600c60209081526040808320600e8352818420805482546001810184559286528486209092019190915593835292829055600d815282822080546001600160a01b0319908116909155600f8252838320839055601090915291902080549091169055565b600060143610801590612c315750612c31336117c2565b15612c43575060131936013560601c90565b503390565b600080546001600160a01b0319166001600160a01b0392909216919091179055565b828054612c769061315b565b90600052602060002090601f016020900481019282612c985760008555612cde565b82601f10612cb157805160ff1916838001178555612cde565b82800160010185558215612cde579182015b82811115612cde578251825591602001919060010190612cc3565b50612cea929150612cee565b5090565b5b80821115612cea5760008155600101612cef565b600082601f830112612d13578081fd5b813560206001600160401b0380831115612d2f57612d2f6131c7565b8260051b604051601f19603f83011681018181108482111715612d5457612d546131c7565b60405284815283810192508684018288018501891015612d72578687fd5b8692505b85831015612d94578035845292840192600192909201918401612d76565b50979650505050505050565b600060208284031215612db1578081fd5b8135612dbc816131dd565b9392505050565b600060208284031215612dd4578081fd5b8151612dbc816131dd565b600080600080600060a08688031215612df6578081fd5b8535612e01816131dd565b94506020860135612e11816131dd565b93506040860135612e21816131dd565b92506060860135612e31816131dd565b91506080860135612e41816131dd565b809150509295509295909350565b60008060408385031215612e61578182fd5b82356001600160401b0380821115612e77578384fd5b612e8386838701612d03565b93506020850135915080821115612e98578283fd5b50612ea585828601612d03565b9150509250929050565b600060208284031215612ec0578081fd5b81518015158114612dbc578182fd5b600060208284031215612ee0578081fd5b5035919050565b600060208284031215612ef8578081fd5b5051919050565b60008060408385031215612f11578182fd5b50508035926020909101359150565b6001600160a01b0391909116815260200190565b6001600160a01b039384168152919092166020820152604081019190915260600190565b6001600160a01b03929092168252602082015260400190565b6020808252825182820181905260009190848201906040850190845b81811015612fb25783516001600160a01b031683529284019291840191600101612f8d565b50909695505050505050565b6000602080835283518082850152825b81811015612fea57858101830151858201604001528201612fce565b81811115612ffb5783604083870101525b50601f01601f1916929092016040019392505050565b60208082526049908201527f596f7520646964206e6f74206c6973742c20616c726561647920736f6c642c2060408201527f6f7220617265206e6f7420746865206f776e6572206f66207468697320486f7560608201526839b2aa103a37b5b2b760b91b608082015260a00190565b60208082526007908201526609edcd8f24084960cb1b604082015260600190565b6020808252602c908201527f796f7520616c7265616479206f776e20746865206d6178696d756d20616d6f7560408201526b1b9d081bd988121bdd5cd95560a21b606082015260800190565b60008219821115613100576131006131b1565b500190565b60008261312057634e487b7160e01b81526012600452602481fd5b500490565b600081600019048311821515161561313f5761313f6131b1565b500290565b600082821015613156576131566131b1565b500390565b600181811c9082168061316f57607f821691505b6020821081141561319057634e487b7160e01b600052602260045260246000fd5b50919050565b60006000198214156131aa576131aa6131b1565b5060010190565b634e487b7160e01b600052601160045260246000fd5b634e487b7160e01b600052604160045260246000fd5b6001600160a01b038116811461213557600080fdfea26469706673582212205e36a1f54e910947ea4f4f83eba3c67b89183bea0cd590c3fc60b3d7d2e83b6764736f6c63430008040033",
  "linkReferences": {},
  "deployedLinkReferences": {}
}