{
  "_format": "hh-sol-artifact-1",
  "contractName": "BH_MarketPlace",
  "sourceName": "contracts/BH_MarketPlace.sol",
  "abi": [
    {
      "anonymous": false,
      "inputs": [
        {
          "indexed": false,
          "internalType": "uint8",
          "name": "version",
          "type": "uint8"
        }
      ],
      "name": "Initialized",
      "type": "event"
    },
    {
      "inputs": [
        {
          "internalType": "uint256",
          "name": "",
          "type": "uint256"
        }
      ],
      "name": "Address_Bid",
      "outputs": [
        {
          "internalType": "address",
          "name": "",
          "type": "address"
        }
      ],
      "stateMutability": "view",
      "type": "function"
    },
    {
      "inputs": [],
      "name": "Comission_USDC",
      "outputs": [
        {
          "internalType": "uint256",
          "name": "",
          "type": "uint256"
        }
      ],
      "stateMutability": "view",
      "type": "function"
    },
    {
      "inputs": [
        {
          "internalType": "address",
          "name": "",
          "type": "address"
        }
      ],
      "name": "Listed_HouseTs",
      "outputs": [
        {
          "internalType": "uint256",
          "name": "",
          "type": "uint256"
        }
      ],
      "stateMutability": "view",
      "type": "function"
    },
    {
      "inputs": [],
      "name": "BHFungibleBlockhouse_contract_address",
      "outputs": [
        {
          "internalType": "address",
          "name": "",
          "type": "address"
        }
      ],
      "stateMutability": "view",
      "type": "function"
    },
    {
      "inputs": [
        {
          "internalType": "uint256",
          "name": "",
          "type": "uint256"
        },
        {
          "internalType": "uint256",
          "name": "",
          "type": "uint256"
        }
      ],
      "name": "Price_history",
      "outputs": [
        {
          "internalType": "uint256",
          "name": "",
          "type": "uint256"
        }
      ],
      "stateMutability": "view",
      "type": "function"
    },
    {
      "inputs": [
        {
          "internalType": "uint256",
          "name": "",
          "type": "uint256"
        }
      ],
      "name": "HouseT_Bid",
      "outputs": [
        {
          "internalType": "uint256",
          "name": "",
          "type": "uint256"
        }
      ],
      "stateMutability": "view",
      "type": "function"
    },
    {
      "inputs": [
        {
          "internalType": "uint256",
          "name": "",
          "type": "uint256"
        }
      ],
      "name": "HouseT_Owner",
      "outputs": [
        {
          "internalType": "address",
          "name": "",
          "type": "address"
        }
      ],
      "stateMutability": "view",
      "type": "function"
    },
    {
      "inputs": [
        {
          "internalType": "uint256",
          "name": "",
          "type": "uint256"
        }
      ],
      "name": "HouseT_Price",
      "outputs": [
        {
          "internalType": "uint256",
          "name": "",
          "type": "uint256"
        }
      ],
      "stateMutability": "view",
      "type": "function"
    },
    {
      "inputs": [],
      "name": "HouseT_contract_address",
      "outputs": [
        {
          "internalType": "address",
          "name": "",
          "type": "address"
        }
      ],
      "stateMutability": "view",
      "type": "function"
    },
    {
      "inputs": [],
      "name": "USDC_contract_address",
      "outputs": [
        {
          "internalType": "address",
          "name": "",
          "type": "address"
        }
      ],
      "stateMutability": "view",
      "type": "function"
    },
    {
      "inputs": [
        {
          "internalType": "uint256",
          "name": "_CommissionUSDC",
          "type": "uint256"
        }
      ],
      "name": "Update_commission_USDC",
      "outputs": [],
      "stateMutability": "nonpayable",
      "type": "function"
    },
    {
      "inputs": [
        {
          "internalType": "uint256",
          "name": "Solar_tokenID",
          "type": "uint256"
        }
      ],
      "name": "accept_bid",
      "outputs": [],
      "stateMutability": "nonpayable",
      "type": "function"
    },
    {
      "inputs": [],
      "name": "available_funds",
      "outputs": [
        {
          "internalType": "uint256",
          "name": "",
          "type": "uint256"
        }
      ],
      "stateMutability": "view",
      "type": "function"
    },
    {
      "inputs": [
        {
          "internalType": "uint256",
          "name": "Solar_tokenID",
          "type": "uint256"
        }
      ],
      "name": "buy_HouseT",
      "outputs": [],
      "stateMutability": "nonpayable",
      "type": "function"
    },
    {
      "inputs": [
        {
          "internalType": "uint256",
          "name": "_percentage_taken_from_transaction",
          "type": "uint256"
        }
      ],
      "name": "change_commission",
      "outputs": [],
      "stateMutability": "nonpayable",
      "type": "function"
    },
    {
      "inputs": [],
      "name": "get_HouseT_owners_in_Marketplace",
      "outputs": [
        {
          "internalType": "address[]",
          "name": "",
          "type": "address[]"
        }
      ],
      "stateMutability": "view",
      "type": "function"
    },
    {
      "inputs": [],
      "name": "get_USDC_Balcance",
      "outputs": [
        {
          "internalType": "uint256",
          "name": "",
          "type": "uint256"
        }
      ],
      "stateMutability": "view",
      "type": "function"
    },
    {
      "inputs": [
        {
          "internalType": "address",
          "name": "_HouseT_contract_address",
          "type": "address"
        },
        {
          "internalType": "address",
          "name": "_BHFungibleBlockhouse_contract_address",
          "type": "address"
        },
        {
          "internalType": "address",
          "name": "_owner",
          "type": "address"
        },
        {
          "internalType": "address",
          "name": "_USDC_contract_address",
          "type": "address"
        },
        {
          "internalType": "address",
          "name": "forwarder_",
          "type": "address"
        }
      ],
      "name": "initialize",
      "outputs": [],
      "stateMutability": "nonpayable",
      "type": "function"
    },
    {
      "inputs": [
        {
          "internalType": "address",
          "name": "forwarder",
          "type": "address"
        }
      ],
      "name": "isTrustedForwarder",
      "outputs": [
        {
          "internalType": "bool",
          "name": "",
          "type": "bool"
        }
      ],
      "stateMutability": "view",
      "type": "function"
    },
    {
      "inputs": [
        {
          "internalType": "uint256",
          "name": "Solar_tokenID",
          "type": "uint256"
        }
      ],
      "name": "is_listed",
      "outputs": [
        {
          "internalType": "bool",
          "name": "",
          "type": "bool"
        }
      ],
      "stateMutability": "view",
      "type": "function"
    },
    {
      "inputs": [
        {
          "internalType": "uint256",
          "name": "Solar_tokenID",
          "type": "uint256"
        }
      ],
      "name": "last_sell_price",
      "outputs": [
        {
          "internalType": "uint256",
          "name": "",
          "type": "uint256"
        }
      ],
      "stateMutability": "view",
      "type": "function"
    },
    {
      "inputs": [
        {
          "internalType": "uint256",
          "name": "Solar_tokenID",
          "type": "uint256"
        },
        {
          "internalType": "uint256",
          "name": "USDC_price",
          "type": "uint256"
        }
      ],
      "name": "list_HouseT",
      "outputs": [],
      "stateMutability": "nonpayable",
      "type": "function"
    },
    {
      "inputs": [
        {
          "internalType": "uint256[]",
          "name": "Solar_tokenIDs",
          "type": "uint256[]"
        },
        {
          "internalType": "uint256[]",
          "name": "USDC_prices",
          "type": "uint256[]"
        }
      ],
      "name": "list_HouseT_batch",
      "outputs": [],
      "stateMutability": "nonpayable",
      "type": "function"
    },
    {
      "inputs": [
        {
          "internalType": "uint256",
          "name": "Solar_tokenID",
          "type": "uint256"
        },
        {
          "internalType": "uint256",
          "name": "USDC_amount",
          "type": "uint256"
        }
      ],
      "name": "place_bid",
      "outputs": [],
      "stateMutability": "nonpayable",
      "type": "function"
    },
    {
      "inputs": [
        {
          "internalType": "uint256",
          "name": "amount_to_transfert",
          "type": "uint256"
        }
      ],
      "name": "transfert_funds_to_FS_contract",
      "outputs": [],
      "stateMutability": "nonpayable",
      "type": "function"
    },
    {
      "inputs": [],
      "name": "trustedForwarder",
      "outputs": [
        {
          "internalType": "address",
          "name": "",
          "type": "address"
        }
      ],
      "stateMutability": "view",
      "type": "function"
    },
    {
      "inputs": [
        {
          "internalType": "uint256",
          "name": "Solar_tokenID",
          "type": "uint256"
        }
      ],
      "name": "unlist_HouseT",
      "outputs": [],
      "stateMutability": "nonpayable",
      "type": "function"
    },
    {
      "inputs": [
        {
          "internalType": "uint256",
          "name": "Solar_tokenID",
          "type": "uint256"
        },
        {
          "internalType": "uint256",
          "name": "new_USDC_price",
          "type": "uint256"
        }
      ],
      "name": "update_listing_price_HouseT",
      "outputs": [],
      "stateMutability": "nonpayable",
      "type": "function"
    },
    {
      "inputs": [
        {
          "internalType": "address",
          "name": "forwarder_",
          "type": "address"
        }
      ],
      "name": "update_trusted_forwarder",
      "outputs": [],
      "stateMutability": "nonpayable",
      "type": "function"
    },
    {
      "inputs": [],
      "name": "versionRecipient",
      "outputs": [
        {
          "internalType": "string",
          "name": "",
          "type": "string"
        }
      ],
      "stateMutability": "view",
      "type": "function"
    },
    {
      "inputs": [],
      "name": "void",
      "outputs": [],
      "stateMutability": "nonpayable",
      "type": "function"
    },
    {
      "inputs": [
        {
          "internalType": "uint256",
          "name": "Solar_tokenID",
          "type": "uint256"
        }
      ],
      "name": "withdraw_HouseT",
      "outputs": [],
      "stateMutability": "nonpayable",
      "type": "function"
    },
    {
      "inputs": [
        {
          "internalType": "uint256",
          "name": "amount",
          "type": "uint256"
        }
      ],
      "name": "withdraw_USDC_funds",
      "outputs": [],
      "stateMutability": "nonpayable",
      "type": "function"
    },
    {
      "inputs": [],
      "name": "withdraw_all_HouseTs",
      "outputs": [],
      "stateMutability": "nonpayable",
      "type": "function"
    },
    {
      "inputs": [],
      "name": "withdraw_all_USDC_funds",
      "outputs": [],
      "stateMutability": "nonpayable",
      "type": "function"
    },
    {
      "inputs": [
        {
          "internalType": "uint256",
          "name": "Solar_tokenID",
          "type": "uint256"
        }
      ],
      "name": "withdraw_bid",
      "outputs": [],
      "stateMutability": "nonpayable",
      "type": "function"
    },
    {
      "inputs": [],
      "name": "withdraw_commission_USDC",
      "outputs": [],
      "stateMutability": "nonpayable",
      "type": "function"
    }
  ],
  "bytecode": "0x608060405234801561001057600080fd5b5061323b806100206000396000f3fe608060405234801561001057600080fd5b50600436106101b75760003560e01c8063083beb4b146101bc578063101283f4146101d1578063103c769e146101fa5780631459457a1461020d5780631cc50ff81461022057806321a20dca14610233578063224310571461024657806337dd8b0c1461024e57806339b7ad85146102615780633f77bdb514610274578063486ff0cd14610287578063504528901461029c57806354958a07146102b357806354fca48d146102dc578063572b6c05146102ef578063656ae0ab14610312578063731c75001461033b5780637da0a8771461034e5780637f7b573c1461035f57806381a52e7f1461037f5780638fc253e614610387578063935f61831461038f5780639997a952146103975780639b31911e146103aa578063a134b6b5146103bd578063a16a75e8146103d0578063a7c8346d146103f0578063ab69b59614610403578063ac4c25b2146101cf578063b78d255614610416578063c4bdeb9914610429578063c81f6fc81461043c578063d5ad9a031461044f578063dcf2ab0714610457578063ea7eeee514610479578063f434c59614610499578063fcedaf50146104ac575b600080fd5b6101cf6101ca366004612ee1565b6104c1565b005b6002546101e4906001600160a01b031681565b6040516101f19190612f32565b60405180910390f35b6101cf610208366004612ee1565b610553565b6101cf61021b366004612df1565b6106cd565b6003546101e4906001600160a01b031681565b6004546101e4906001600160a01b031681565b6101cf6108eb565b6101cf61025c366004612ee1565b610b10565b6101cf61026f366004612ee1565b610b99565b6101cf610282366004612f11565b610d75565b61028f610f35565b6040516101f19190612fd0565b6102a560095481565b6040519081526020016101f1565b6101e46102c1366004612ee1565b6010602052600090815260409020546001600160a01b031681565b6102a56102ea366004612ee1565b610fc3565b6103026102fd366004612db2565b611025565b60405190151581526020016101f1565b6101e4610320366004612ee1565b600d602052600090815260409020546001600160a01b031681565b6101cf610349366004612ee1565b611039565b6000546001600160a01b03166101e4565b6102a561036d366004612ee1565b600e6020526000908152604090205481565b6101cf61120c565b6102a56113ea565b6101cf611472565b6101cf6103a5366004612f11565b6116b5565b6101cf6103b8366004612ee1565b61185c565b6101cf6103cb366004612ee1565b611eaf565b6102a56103de366004612ee1565b600f6020526000908152604090205481565b6102a56103fe366004612f11565b6120eb565b6101cf610411366004612db2565b61211c565b6101cf610424366004612e61565b6121ac565b6101cf610437366004612f11565b61222a565b6101cf61044a366004612ee1565b612647565b6009546102a5565b610302610465366004612ee1565b6000908152600e6020526040902054151590565b6102a5610487366004612db2565b600b6020526000908152604090205481565b6101cf6104a7366004612ee1565b612769565b6104b4612ad0565b6040516101f19190612f83565b6008546001600160a01b03166104d5612c2c565b6001600160a01b0316148061050457506005546001600160a01b03166104f9612c2c565b6001600160a01b0316145b8061052957506006546001600160a01b031661051e612c2c565b6001600160a01b0316145b61054e5760405162461bcd60e51b8152600401610545906130de565b60405180910390fd5b600155565b6000818152601060205260409020546001600160a01b0316610573612c2c565b6001600160a01b0316146106035760405162461bcd60e51b815260206004820152604b60248201527f596f75206e65656420746f20626520746865206c61746573742062696464657260448201527f20746f2077697468647261772c206f722074686520617373657420776173206160648201526a1b1c9958591e481cdbdb1960aa1b608482015260a401610545565b60048054600083815260106020908152604080832054600f9092529182902054915163a9059cbb60e01b81526001600160a01b039384169463a9059cbb9461064f949316929101612f6a565b602060405180830381600087803b15801561066957600080fd5b505af115801561067d573d6000803e3d6000fd5b505050506040513d601f19601f820116820180604052508101906106a19190612ec1565b506000908152600f602090815260408083208390556010909152902080546001600160a01b0319169055565b600054600160a81b900460ff16158080156106f557506000546001600160a01b90910460ff16105b806107165750303b1580156107165750600054600160a01b900460ff166001145b6107795760405162461bcd60e51b815260206004820152602e60248201527f496e697469616c697a61626c653a20636f6e747261637420697320616c72656160448201526d191e481a5b9a5d1a585b1a5e995960921b6064820152608401610545565b6000805460ff60a01b1916600160a01b17905580156107a6576000805460ff60a81b1916600160a81b1790555b6107af82612c5a565b600880546001600160a01b038087166001600160a01b031992831617909255600280548984169083161790556003805492881692909116919091179055600060095560018055604080518082019091526005808252640322e322e360dc1b602090920191825261082191600a91612c7c565b50600480546001600160a01b0385166001600160a01b03199182161790915560058054821673e7e3e925e5dcfeaf5c5cebfbc6efd4b404b0e60717905560068054821673c117e7247be4830d169da13427311f59bd25d66917905560078054909116733a8a9087379e03ce3789e34fcaf34eb19b7389c317905580156108e3576000805460ff60a81b19169055604051600181527f7f26b83ff96e1f2b6a682f133852f6798a09c465da95921460cefb38474024989060200160405180910390a15b505050505050565b6008546001600160a01b03166108ff612c2c565b6001600160a01b0316148061092e57506005546001600160a01b0316610923612c2c565b6001600160a01b0316145b8061095357506006546001600160a01b0316610948612c2c565b6001600160a01b0316145b61096f5760405162461bcd60e51b8152600401610545906130de565b60025460408051636d1f2ae960e01b815290516000926001600160a01b031691636d1f2ae9916004808301926020929190829003018186803b1580156109b457600080fd5b505afa1580156109c8573d6000803e3d6000fd5b505050506040513d601f19601f820116820180604052508101906109ec9190612ef9565b905060005b81811015610b0c576002546040516331a9108f60e11b8152600481018390526001600160a01b0390911690636352211e9060240160206040518083038186803b158015610a3d57600080fd5b505afa158015610a51573d6000803e3d6000fd5b505050506040513d601f19601f82011682018060405250810190610a759190612dd5565b6001600160a01b0316306001600160a01b03161415610afa576002546008546040516323b872dd60e01b81526001600160a01b03928316926323b872dd92610ac7923092909116908690600401612f46565b600060405180830381600087803b158015610ae157600080fd5b505af1158015610af5573d6000803e3d6000fd5b505050505b80610b04816131a9565b9150506109f1565b5050565b6008546001600160a01b0316610b24612c2c565b6001600160a01b03161480610b5357506005546001600160a01b0316610b48612c2c565b6001600160a01b0316145b80610b7857506006546001600160a01b0316610b6d612c2c565b6001600160a01b0316145b610b945760405162461bcd60e51b8152600401610545906130de565b600955565b6008546001600160a01b0316610bad612c2c565b6001600160a01b03161480610bdc57506005546001600160a01b0316610bd1612c2c565b6001600160a01b0316145b80610c0157506006546001600160a01b0316610bf6612c2c565b6001600160a01b0316145b610c1d5760405162461bcd60e51b8152600401610545906130de565b6002546040516331a9108f60e11b8152600481018390526001600160a01b0390911690636352211e9060240160206040518083038186803b158015610c6157600080fd5b505afa158015610c75573d6000803e3d6000fd5b505050506040513d601f19601f82011682018060405250810190610c999190612dd5565b6001600160a01b0316306001600160a01b031614610d075760405162461bcd60e51b815260206004820152602560248201527f5468697320746f6b656e206973206e6f7420696e20746865206d61726b657420604482015264706c61636560d81b6064820152608401610545565b6002546008546040516323b872dd60e01b81526001600160a01b03928316926323b872dd92610d40923092909116908690600401612f46565b600060405180830381600087803b158015610d5a57600080fd5b505af1158015610d6e573d6000803e3d6000fd5b5050505050565b610d7d612c2c565b6002546040516331a9108f60e11b8152600481018590526001600160a01b039283169290911690636352211e9060240160206040518083038186803b158015610dc557600080fd5b505afa158015610dd9573d6000803e3d6000fd5b505050506040513d601f19601f82011682018060405250810190610dfd9190612dd5565b6001600160a01b031614610e665760405162461bcd60e51b815260206004820152602a60248201527f596f7520646f6e74206f776e206f7220616c7265616479206c697374656420746044820152691a1a5cc814dbdb185c9560b21b6064820152608401610545565b6002546001600160a01b03166323b872dd610e7f612c2c565b30856040518463ffffffff1660e01b8152600401610e9f93929190612f46565b600060405180830381600087803b158015610eb957600080fd5b505af1158015610ecd573d6000803e3d6000fd5b50505050610ed9612c2c565b6000838152600d6020908152604080832080546001600160a01b0319166001600160a01b03958616178155600e8352818420869055549093168252600b9052908120805460019290610f2c908490613100565b90915550505050565b600a8054610f429061316e565b80601f0160208091040260200160405190810160405280929190818152602001828054610f6e9061316e565b8015610fbb5780601f10610f9057610100808354040283529160200191610fbb565b820191906000526020600020905b815481529060010190602001808311610f9e57829003601f168201915b505050505081565b6000818152600c60205260408120548190610fe090600190613157565b6000848152600c602052604090208054919250908290811061101257634e487b7160e01b600052603260045260246000fd5b9060005260206000200154915050919050565b6000546001600160a01b0391821691161490565b6008546001600160a01b031661104d612c2c565b6001600160a01b03161461106057600080fd5b600480546040516370a0823160e01b81526000926001600160a01b03909216916370a082319161109291309101612f32565b60206040518083038186803b1580156110aa57600080fd5b505afa1580156110be573d6000803e3d6000fd5b505050506040513d601f19601f820116820180604052508101906110e29190612ef9565b9050600082116111345760405162461bcd60e51b815260206004820152601e60248201527f416d6f756e742073686f756c6420626520686967686572207468616e203000006044820152606401610545565b8181116111815760405162461bcd60e51b815260206004820152601b60248201527a4e6f7420656e6f756768205553444320746f20776974686472617760281b6044820152606401610545565b6004805460085460405163a9059cbb60e01b81526001600160a01b039283169363a9059cbb936111b5931691879101612f6a565b602060405180830381600087803b1580156111cf57600080fd5b505af11580156111e3573d6000803e3d6000fd5b505050506040513d601f19601f820116820180604052508101906112079190612ec1565b505050565b6008546001600160a01b0316611220612c2c565b6001600160a01b0316148061124f57506005546001600160a01b0316611244612c2c565b6001600160a01b0316145b8061127457506006546001600160a01b0316611269612c2c565b6001600160a01b0316145b6112905760405162461bcd60e51b8152600401610545906130de565b600480546040516370a0823160e01b81526000926001600160a01b03909216916370a08231916112c291309101612f32565b60206040518083038186803b1580156112da57600080fd5b505afa1580156112ee573d6000803e3d6000fd5b505050506040513d601f19601f820116820180604052508101906113129190612ef9565b9050600081116113645760405162461bcd60e51b815260206004820152601d60248201527f43757272656e74205553444320666f756e64732061726520656d7074790000006044820152606401610545565b6004805460085460405163a9059cbb60e01b81526001600160a01b039283169363a9059cbb93611398931691869101612f6a565b602060405180830381600087803b1580156113b257600080fd5b505af11580156113c6573d6000803e3d6000fd5b505050506040513d601f19601f82011682018060405250810190610b0c9190612ec1565b600480546040516370a0823160e01b815260009283926001600160a01b0316916370a082319161141c91309101612f32565b60206040518083038186803b15801561143457600080fd5b505afa158015611448573d6000803e3d6000fd5b505050506040513d601f19601f8201168201806040525081019061146c9190612ef9565b92915050565b6008546001600160a01b0316611486612c2c565b6001600160a01b031614806114b557506005546001600160a01b03166114aa612c2c565b6001600160a01b0316145b806114da57506006546001600160a01b03166114cf612c2c565b6001600160a01b0316145b806114ff57506007546001600160a01b03166114f4612c2c565b6001600160a01b0316145b61151b5760405162461bcd60e51b8152600401610545906130de565b600480546040516370a0823160e01b81526000926001600160a01b03909216916370a082319161154d91309101612f32565b60206040518083038186803b15801561156557600080fd5b505afa158015611579573d6000803e3d6000fd5b505050506040513d601f19601f8201168201806040525081019061159d9190612ef9565b600480546040516370a0823160e01b81529293506001600160a01b0316916370a08231916115cd91309101612f32565b60206040518083038186803b1580156115e557600080fd5b505afa1580156115f9573d6000803e3d6000fd5b505050506040513d601f19601f8201168201806040525081019061161d9190612ef9565b811061167f5760405162461bcd60e51b815260206004820152602b60248201527f43757272656e74205553444320666f756e647320617265206c6573732074686160448201526a371031b7b6b4b9b9b4b7b760a91b6064820152608401610545565b6004805460085460095460405163a9059cbb60e01b81526001600160a01b039384169463a9059cbb946113989416929101612f6a565b6116bd612c2c565b6000838152600d60205260409020546001600160a01b039081169116146117375760405162461bcd60e51b815260206004820152602860248201527f596f7520646f6e74206f776e206f7220616c726561647920736f6c64207468696044820152671cc814dbdb185c9560c21b6064820152608401610545565b6002546040516331a9108f60e11b81526004810184905230916001600160a01b031690636352211e9060240160206040518083038186803b15801561177b57600080fd5b505afa15801561178f573d6000803e3d6000fd5b505050506040513d601f19601f820116820180604052508101906117b39190612dd5565b6001600160a01b0316146117d95760405162461bcd60e51b815260040161054590613023565b6000828152600f6020526040902054811161184a5760405162461bcd60e51b815260206004820152602b60248201527f4e65772070726963652073686f756c6420626520686967686572207468616e2060448201526a18dd5c9c995b9d08189a5960aa1b6064820152608401610545565b6000918252600e602052604090912055565b600254604080516324d747e560e01b815290516000926001600160a01b0316916324d747e5916004808301926020929190829003018186803b1580156118a157600080fd5b505afa1580156118b5573d6000803e3d6000fd5b505050506040513d601f19601f820116820180604052508101906118d99190612ef9565b6002546001600160a01b031663469021be6118f2612c2c565b6040518263ffffffff1660e01b815260040161190e9190612f32565b60206040518083038186803b15801561192657600080fd5b505afa15801561193a573d6000803e3d6000fd5b505050506040513d601f19601f8201168201806040525081019061195e9190612ef9565b10806119f057506002546001600160a01b031663b80fb7cf61197e612c2c565b6040518263ffffffff1660e01b815260040161199a9190612f32565b60206040518083038186803b1580156119b257600080fd5b505afa1580156119c6573d6000803e3d6000fd5b505050506040513d601f19601f820116820180604052508101906119ea9190612ec1565b15156001145b9050600181151514611a145760405162461bcd60e51b815260040161054590613092565b6002546040516331a9108f60e11b81526004810184905230916001600160a01b031690636352211e9060240160206040518083038186803b158015611a5857600080fd5b505afa158015611a6c573d6000803e3d6000fd5b505050506040513d601f19601f82011682018060405250810190611a909190612dd5565b6001600160a01b031614611af25760405162461bcd60e51b8152602060048201526024808201527f5468697320536f6c617254206973206e6f7420617661696c61626c6520666f726044820152632062757960e01b6064820152608401610545565b6004546000906001600160a01b03166370a08231611b0e612c2c565b6040518263ffffffff1660e01b8152600401611b2a9190612f32565b60206040518083038186803b158015611b4257600080fd5b505afa158015611b56573d6000803e3d6000fd5b505050506040513d601f19601f82011682018060405250810190611b7a9190612ef9565b6000848152600e6020526040902054909150811015611bf15760405162461bcd60e51b815260206004820152602d60248201527f596f7520646f6e74206861766520656e6f756768206d6f6e657920746f20627560448201526c1e481d1a1a5cc81c185b9b995b609a1b6064820152608401610545565b6004546001600160a01b03166323b872dd611c0a612c2c565b6000868152600e6020526040908190205490516001600160e01b031960e085901b168152611c3d92913091600401612f46565b602060405180830381600087803b158015611c5757600080fd5b505af1158015611c6b573d6000803e3d6000fd5b505050506040513d601f19601f82011682018060405250810190611c8f9190612ec1565b506000838152600e602052604081205460015460649190611cb09083613157565b611cba9190613138565b611cc49190613118565b600480546000878152600d60205260409081902054905163a9059cbb60e01b81529394506001600160a01b039182169363a9059cbb93611d0a9390921691869101612f6a565b602060405180830381600087803b158015611d2457600080fd5b505af1158015611d38573d6000803e3d6000fd5b505050506040513d601f19601f82011682018060405250810190611d5c9190612ec1565b506000848152600e6020526040902054600154606491611d7b91613138565b611d859190613118565b60096000828254611d969190613100565b90915550506002546001600160a01b03166323b872dd30611db5612c2c565b876040518463ffffffff1660e01b8152600401611dd493929190612f46565b600060405180830381600087803b158015611dee57600080fd5b505af1158015611e02573d6000803e3d6000fd5b5050506000858152600d60209081526040808320546001600160a01b03168352600b9091528120805460019350909190611e3d908490613157565b9091555050506000838152600c60209081526040808320600e8352818420805482546001810184559286528486209092019190915595835294829055600d815284822080546001600160a01b0319908116909155600f8252858320839055601090915293902080549093169092555050565b611eb7612c2c565b6000828152600d60205260409020546001600160a01b03908116911614611ef05760405162461bcd60e51b815260040161054590613023565b6002546040516331a9108f60e11b81526004810183905230916001600160a01b031690636352211e9060240160206040518083038186803b158015611f3457600080fd5b505afa158015611f48573d6000803e3d6000fd5b505050506040513d601f19601f82011682018060405250810190611f6c9190612dd5565b6001600160a01b031614611ffd5760405162461bcd60e51b815260206004820152604c60248201527f5468697320536f6c61725420746f6b656e206973206e6f7420696e207468652060448201527f636f6e74726163742c20692e652e2077617320616c726561647920776974686460648201526b1c985ddb881bdc881cdbdb1960a21b608482015260a401610545565b6002546001600160a01b03166323b872dd30612017612c2c565b846040518463ffffffff1660e01b815260040161203693929190612f46565b600060405180830381600087803b15801561205057600080fd5b505af1158015612064573d6000803e3d6000fd5b5050506000828152600d60209081526040808320546001600160a01b03168352600b909152812080546001935090919061209f908490613157565b90915550506000908152600e60209081526040808320839055600d825280832080546001600160a01b0319908116909155600f8352818420849055601090925290912080549091169055565b600c602052816000526040600020818154811061210757600080fd5b90600052602060002001600091509150505481565b6008546001600160a01b0316612130612c2c565b6001600160a01b0316148061215f57506005546001600160a01b0316612154612c2c565b6001600160a01b0316145b8061218457506006546001600160a01b0316612179612c2c565b6001600160a01b0316145b6121a05760405162461bcd60e51b8152600401610545906130de565b6121a981612c5a565b50565b81516000905b80821015612224576122128483815181106121dd57634e487b7160e01b600052603260045260246000fd5b602002602001015184848151811061220557634e487b7160e01b600052603260045260246000fd5b6020026020010151610d75565b8161221c816131a9565b9250506121b2565b50505050565b600254604080516324d747e560e01b815290516000926001600160a01b0316916324d747e5916004808301926020929190829003018186803b15801561226f57600080fd5b505afa158015612283573d6000803e3d6000fd5b505050506040513d601f19601f820116820180604052508101906122a79190612ef9565b6002546001600160a01b031663469021be6122c0612c2c565b6040518263ffffffff1660e01b81526004016122dc9190612f32565b60206040518083038186803b1580156122f457600080fd5b505afa158015612308573d6000803e3d6000fd5b505050506040513d601f19601f8201168201806040525081019061232c9190612ef9565b10806123be57506002546001600160a01b031663b80fb7cf61234c612c2c565b6040518263ffffffff1660e01b81526004016123689190612f32565b60206040518083038186803b15801561238057600080fd5b505afa158015612394573d6000803e3d6000fd5b505050506040513d601f19601f820116820180604052508101906123b89190612ec1565b15156001145b90506001811515146123e25760405162461bcd60e51b815260040161054590613092565b6000838152600f602052604090205482116124535760405162461bcd60e51b815260206004820152602b60248201527f4e657720626964206e6565647320746f20626520686967686572207468616e2060448201526a18dd5c9c995b9d08189a5960aa1b6064820152608401610545565b6000838152600e602052604090205482106124c55760405162461bcd60e51b815260206004820152602c60248201527f4e657720626964206e6565647320746f206265206c6f776572207468616e206360448201526b757272656e7420707269636560a01b6064820152608401610545565b600083815260106020908152604080832054600f909252909120546004546001600160a01b0392831692166323b872dd6124fd612c2c565b30876040518463ffffffff1660e01b815260040161251d93929190612f46565b602060405180830381600087803b15801561253757600080fd5b505af115801561254b573d6000803e3d6000fd5b505050506040513d601f19601f8201168201806040525081019061256f9190612ec1565b5080156125fb576004805460405163a9059cbb60e01b81526001600160a01b039091169163a9059cbb916125a7918691869101612f6a565b602060405180830381600087803b1580156125c157600080fd5b505af11580156125d5573d6000803e3d6000fd5b505050506040513d601f19601f820116820180604052508101906125f99190612ec1565b505b6000858152600f60205260409020849055612614612c2c565b60009586526010602052604090952080546001600160a01b0319166001600160a01b039096169590951790945550505050565b6003546001600160a01b031661265b612c2c565b6001600160a01b0316148061268a57506008546001600160a01b031661267f612c2c565b6001600160a01b0316145b806126af57506005546001600160a01b03166126a4612c2c565b6001600160a01b0316145b806126d457506006546001600160a01b03166126c9612c2c565b6001600160a01b0316145b806126f957506007546001600160a01b03166126ee612c2c565b6001600160a01b0316145b6127155760405162461bcd60e51b8152600401610545906130de565b80600954101561272457600080fd5b806009546127329190613157565b6009556004805460035460405163a9059cbb60e01b81526001600160a01b039283169363a9059cbb93611398931691869101612f6a565b6000818152600d60205260409020546001600160a01b0316612789612c2c565b6001600160a01b0316146127ef5760405162461bcd60e51b815260206004820152602760248201527f596f75206e65656420746f206265207468652063757272656e7420536f6c61726044820152662a1037bbb732b960c91b6064820152608401610545565b6000818152600f60205260409020546128455760405162461bcd60e51b8152602060048201526018602482015277446f6e7420616363657074206120626964206f662030202160401b6044820152606401610545565b6000818152601060205260409020546001600160a01b03166128b45760405162461bcd60e51b815260206004820152602260248201527f446f6e742073656e6420796f7572204e465420746f206e756c6c206164647265604482015261737360f01b6064820152608401610545565b6000818152600f6020526040812054600154606491906128d49083613157565b6128de9190613138565b6128e89190613118565b600480546000858152600d60205260409081902054905163a9059cbb60e01b81529394506001600160a01b039182169363a9059cbb9361292e9390921691869101612f6a565b602060405180830381600087803b15801561294857600080fd5b505af115801561295c573d6000803e3d6000fd5b505050506040513d601f19601f820116820180604052508101906129809190612ec1565b506000828152600f602052604090205460015460649161299f91613138565b6129a99190613118565b600960008282546129ba9190613100565b90915550506002546001600160a01b03166323b872dd306129d9612c2c565b856040518463ffffffff1660e01b81526004016129f893929190612f46565b600060405180830381600087803b158015612a1257600080fd5b505af1158015612a26573d6000803e3d6000fd5b5050506000838152600d60209081526040808320546001600160a01b03168352600b9091528120805460019350909190612a61908490613157565b9091555050506000818152600c60209081526040808320600e8352818420805482546001810184559286528486209092019190915593835292829055600d815282822080546001600160a01b0319908116909155600f8252838320839055601090915291902080549091169055565b60606000600260009054906101000a90046001600160a01b03166001600160a01b0316636d1f2ae96040518163ffffffff1660e01b815260040160206040518083038186803b158015612b2257600080fd5b505afa158015612b36573d6000803e3d6000fd5b505050506040513d601f19601f82011682018060405250810190612b5a9190612ef9565b90506000816001600160401b03811115612b8457634e487b7160e01b600052604160045260246000fd5b604051908082528060200260200182016040528015612bad578160200160208202803683370190505b50905060005b82811015612c25576000818152600d602052604090205482516001600160a01b03909116908190849084908110612bfa57634e487b7160e01b600052603260045260246000fd5b6001600160a01b03909216602092830291909101909101525080612c1d816131a9565b915050612bb3565b5092915050565b600060143610801590612c435750612c4333611025565b15612c55575060131936013560601c90565b503390565b600080546001600160a01b0319166001600160a01b0392909216919091179055565b828054612c889061316e565b90600052602060002090601f016020900481019282612caa5760008555612cf0565b82601f10612cc357805160ff1916838001178555612cf0565b82800160010185558215612cf0579182015b82811115612cf0578251825591602001919060010190612cd5565b50612cfc929150612d00565b5090565b5b80821115612cfc5760008155600101612d01565b600082601f830112612d25578081fd5b813560206001600160401b0380831115612d4157612d416131da565b8260051b604051601f19603f83011681018181108482111715612d6657612d666131da565b60405284815283810192508684018288018501891015612d84578687fd5b8692505b85831015612da6578035845292840192600192909201918401612d88565b50979650505050505050565b600060208284031215612dc3578081fd5b8135612dce816131f0565b9392505050565b600060208284031215612de6578081fd5b8151612dce816131f0565b600080600080600060a08688031215612e08578081fd5b8535612e13816131f0565b94506020860135612e23816131f0565b93506040860135612e33816131f0565b92506060860135612e43816131f0565b91506080860135612e53816131f0565b809150509295509295909350565b60008060408385031215612e73578182fd5b82356001600160401b0380821115612e89578384fd5b612e9586838701612d15565b93506020850135915080821115612eaa578283fd5b50612eb785828601612d15565b9150509250929050565b600060208284031215612ed2578081fd5b81518015158114612dce578182fd5b600060208284031215612ef2578081fd5b5035919050565b600060208284031215612f0a578081fd5b5051919050565b60008060408385031215612f23578182fd5b50508035926020909101359150565b6001600160a01b0391909116815260200190565b6001600160a01b039384168152919092166020820152604081019190915260600190565b6001600160a01b03929092168252602082015260400190565b6020808252825182820181905260009190848201906040850190845b81811015612fc45783516001600160a01b031683529284019291840191600101612f9f565b50909695505050505050565b6000602080835283518082850152825b81811015612ffc57858101830151858201604001528201612fe0565b8181111561300d5783604083870101525b50601f01601f1916929092016040019392505050565b60208082526049908201527f596f7520646964206e6f74206c6973742c20616c726561647920736f6c642c2060408201527f6f7220617265206e6f7420746865206f776e6572206f66207468697320536f6c60608201526830b92a103a37b5b2b760b91b608082015260a00190565b6020808252602c908201527f796f7520616c7265616479206f776e20746865206d6178696d756d20616d6f7560408201526b1b9d081bd98814dbdb185c9560a21b606082015260800190565b60208082526008908201526704f6e6c79205032560c41b604082015260600190565b60008219821115613113576131136131c4565b500190565b60008261313357634e487b7160e01b81526012600452602481fd5b500490565b6000816000190483118215151615613152576131526131c4565b500290565b600082821015613169576131696131c4565b500390565b600181811c9082168061318257607f821691505b602082108114156131a357634e487b7160e01b600052602260045260246000fd5b50919050565b60006000198214156131bd576131bd6131c4565b5060010190565b634e487b7160e01b600052601160045260246000fd5b634e487b7160e01b600052604160045260246000fd5b6001600160a01b03811681146121a957600080fdfea264697066735822122078e5e9a0c490c502c732d360793bcd4e3548d79a9f35566159d39eb60474284e64736f6c63430008040033",
  "linkReferences": {},
  "deployedLinkReferences": {}
}